:1000000009C1000038C1000036C1000034C1000041
:1000100032C1000030C100002EC100002CC1000020
:100020002AC1000028C1000026C1000024C1000030
:1000300022C1000020C100001EC100001CC1000040
:100040001AC1000018C1000016C1000014C1000050
:1000500012C1000010C100000EC100000C94230D5D
:100060000AC100000C9406090C943C0904C100006C
:1000700002C1000000C10000FEC00000FCC0000082
:10008000FAC00000F8C00000F6C00000F4C0000094
:10009000F2C00000F0C00000EEC00000ECC00000A4
:1000A000EAC00000E8C00000E6C00000E4C00000B4
:1000B000E2C00000E0C00000DEC00000DCC00000C4
:1000C000DAC00000D8C00000D6C00000D4C00000D4
:1000D000D2C00000D0C00000CEC00000CCC00000E4
:1000E000CAC0000004100710F60FFA0F00103E10EF
:1000F0000B100F10151019101D10231027102B10A6
:100100003E1031103510391000000A0B02090C0D99
:100110000E080703040100000000000000000000BA
:1001200000000000000000000000000000000000CF
:10013000000000001211100000000000000000008C
:1001400000000000000000000000000000000102AC
:1001500010202008081020401020408002010201D9
:100160000804020101020408102040808040201091
:1001700008040201800402018040201008040201EA
:100180000804020101020408102040800102040852
:10019000102040800505050507050808080802022B
:1001A00002020A0A08080404040401010101010111
:1001B00001010303030303030303040707070C0CF4
:1001C0000C0C0C0C0C0C02020202060606060606BB
:1001D00006060B0B0B0B0B0B0B0B00002200250074
:1001E00028002B002E003100340002010000050120
:1001F00008010B0100002100240027002A002D0027
:100200003000330001010000040107010A015E050E
:100210006E09FE0511241FBECFEFD1E2DEBFCDBFB8
:1002200000E00CBF12E0A0E0B2E0EAE2F8E200E099
:100230000BBF02C007900D92A035B107D9F724E09B
:10024000A0E5B2E001C01D92AB3CB207E1F712E0BD
:10025000C2E1D2E000E006C022970109FE010BBF17
:100260000E942211CE30D10780E00807A9F70E9432
:10027000180D0C940414C4CECF92DF92EF92FF922B
:100280000F931F93CF93DF937C01162FD42EC22E92
:10029000C0E0D0E0F70180819181C817D9075CF4F4
:1002A0000C2D2D2D412FBE01F701848195810E94D7
:1002B000260F2196EFCFDF91CF911F910F91FF90E5
:1002C000EF90DF90CF90089580916C0290916D0235
:1002D0000C94650EAF92BF92CF92DF92EF92FF9295
:1002E0000F931F93CF93DF9300D000D0CDB7DEB72D
:1002F0006C010AEE13E086E0A82E84E0B82EE12C13
:10030000F12CE114F10431F56CE2C6010E946B0C92
:10031000AC01662757FD6095762F4093EE0350930E
:10032000EF036093F0037093F1039C0142E050E00F
:10033000B601CE0101960E946E0CCE0101960E947C
:100340000D0D609306047093070480930804909346
:10035000090426C0F801408151814F5F5F4F6CE274
:10036000C6010E94500CAC01662757FD6095762FA0
:10037000F8014483558366837783408151814F5FC1
:100380005F4F9C01B601CE0101960E946E0CCE011A
:1003900001960E940D0DF501608371838283938322
:1003A000CE0101960E94630BFFEFEF1AFF0A0C5F6C
:1003B0001F4F84E0A80EB11CE5E0EE16F10409F031
:1003C000A0CFC0900604D0900704E0900804F090FD
:1003D0000904860160910A0480910B046093AA03CA
:1003E0008093AB0340910E0480910F044093A803C7
:1003F0008093A90320911204809113042093A603F3
:100400008093A70381E080932004C114D10419F4E0
:1004100088E692E031DFF1E0CF1AD10888E0C81613
:10042000D10490F422E331E0C29EC001C39E900D3E
:10043000D29E900D11242091A6034091A8036091B3
:10044000AA0388599D4F18DF0930110571F481E026
:1004500080931F040E946D0D6093A0037093A1030D
:100460008093A2039093A3030EC00A30110559F4A0
:1004700010921F042091A6034091A8036091AA0343
:1004800088E692E0F9DE81E080931E0426960FB69E
:10049000F894DEBF0FBECDBFDF91CF911F910F91BA
:1004A000FF90EF90DF90CF90BF90AF9008954F9264
:1004B0005F926F927F928F929F92AF92BF92CF92F4
:1004C000DF92EF92FF920F931F93CF93DF93CDB7FD
:1004D000DEB760970FB6F894DEBF0FBECDBF6C01DC
:1004E0000AEE13E096E0A92E94E0B92EE12CF12C4F
:1004F000E114F10431F56CE2C6010E946B0CAC0111
:10050000662757FD6095762F4093EE035093EF03D7
:100510006093F0037093F1039C0142E050E0B60158
:10052000CE0101960E946E0CCE0101960E940D0D27
:100530006093060470930704809308049093090461
:1005400027C0D8014D915C914F5F5F4F6CE2C601AF
:100550000E94500CAC01662757FD6095762FF8017C
:100560004483558366837783408151814F5F5F4F1A
:100570009C01B601CE0101960E946E0CCE0101963F
:100580000E940D0DD5016D937D938D939C931397D0
:10059000CE0101960E94630BBFEFEB1AFB0A0C5FC2
:1005A0001F4FE4E0AE0EB11CF6E0EF16F10409F0C7
:1005B0009FCF009106041091070480910A04909146
:1005C0000B04A0910C04B0910D048D879E87AF871A
:1005D000B88B80900E0490900F04A0901004B090FF
:1005E000110489829A82AB82BC82C0901204D0909E
:1005F0001304E0901404F0901504CD82DE82EF82A3
:10060000F88640901604509017046090180470907B
:10061000190449865A866B867C8680911A049091CB
:100620001B049093A5038093A4036FE072E081E222
:1006300094E0FED62AE030E0B501A40181E294E026
:10064000A5D72AE030E0B701A60181E294E09ED769
:100650002AE030E0B301A20181E294E097D70130B3
:10066000110589F5AD85BE85119769F5A0E5B2E064
:10067000FE0131967F018D919C91119712966D919B
:100680007C911397861797074CF01896F4E0EF0EBD
:10069000F11C82E0A836B80771F715C0F701108188
:1006A000418152819C0128593D4FF901578F40AF3C
:1006B000A9014F5A5F4FFA01108326593F4FF901A4
:1006C00010820196DFCF10920D0260960FB6F8945B
:1006D000DEBF0FBECDBFDF91CF911F910F91FF9075
:1006E000EF90DF90CF90BF90AF909F908F907F90D2
:1006F0006F905F904F900895EF92FF920F931F932A
:10070000CF93DF9322E331E0829F8001839F100D1E
:10071000929F100D112408591D4FC0E0D0E07801C0
:10072000F701848195810E94A90F0197C817D90705
:1007300054F4F801EC0FFD1FE659FF4F8081882328
:1007400019F02196EDCF81E0DF91CF911F910F91AC
:10075000FF90EF9008954F925F926F927F928F92E9
:100760009F92AF92BF92CF92DF92EF92FF920F9340
:100770001F93CF93DF9322E331E0829FE001839FB9
:10078000D00D929FD00D1124C859DD4FC12CD12C12
:10079000E12CF12CAA24AA94B12C2E01F601EE0F23
:1007A000FF1FEC0FFD1FE456FF4F40812181628146
:1007B0004E018C0C9D1C9394D401ED91FC918F0102
:1007C000F7FF04C0002711270E1B1F0B70E06F5F9F
:1007D0007109609FC001619F900D709F900D112461
:1007E000B5010E94C1103B01BFEF6B0E711C30E0E0
:1007F0002F5F3109209FC001219F900D309F900DE8
:100800001124B5010E94C1109B0121503F4F50E0BF
:100810004F5F5109409FC001419F900D509F900D27
:100820001124B5010E94C1108B0101501F4FEF3FF1
:10083000F10524F0F401B182A08204C03196D40104
:10084000ED93FC93462DB701F201848195810E94BE
:10085000260FFFEFEF1AFF0A82E0C80ED11CA9E1B4
:10086000EA16F10409F09ACFDF91CF911F910F9111
:10087000FF90EF90DF90CF90BF90AF909F908F90C0
:100880007F906F905F904F900895CF93DF93E90131
:10089000CC0FDD1FCC0FDD1FFE01E455FC4F608344
:1008A0007183828393830E946D0DFE01E453FC4F9C
:1008B0006083718382839383DF91CF9108952F9218
:1008C0003F924F925F926F927F928F929F92AF92E0
:1008D000BF92CF92DF92EF92FF920F931F93CF932D
:1008E000DF935C0182E391E0A89E4001A99E900CF9
:1008F000B89E900C1124C40188599D4F4C01412C85
:10090000512CC12CD12C1C01F101848195810E94B4
:10091000A90FC816D9060CF086C03401640C751CEA
:100920009CE9690E711CF30120814181628170E0B4
:1009300050E030E080910A0290E0D401AC0DBD1D82
:100940005F96CC915F97D0E0FE01E61BF70B1E1679
:100950001F061CF0FB01EC1BFD0B8E179F0754F4C8
:100960006C177D0724F4EB01C80FD91F03C0EB01FE
:10097000C81BD90BD896EC90D897F12CB701641B03
:10098000750B161617061CF0BA016E197F0986172B
:10099000970754F44E155F0524F47A01E80EF91E0A
:1009A00003C07A01E81AF90AAF5ABF4F0C9110E060
:1009B000A801421B530B141615061CF0A901401B7D
:1009C000510B8417950754F42017310724F489013B
:1009D000080F191F03C08901081B190B402F6E2D2A
:1009E0008C2F0E94A00FF301608371838283938315
:1009F0002E2D4C2FB601F101848195810E94260F86
:100A00006091A4037091A503882777FD8095982FA6
:100A100020E030E0A90139DFFFEFCF1ADF0A84E0E0
:100A2000480E511C71CFC50167DE882319F081E0A3
:100A300080930D02DF91CF911F910F91FF90EF9066
:100A4000DF90CF90BF90AF909F908F907F906F90EE
:100A50005F904F903F902F9008950F931F93CF93E7
:100A6000DF93EC010E946D0DAE01440F551F440F42
:100A7000551FEA01C453DC4F088119812A813B814B
:100A8000601B710B820B930BFA01E455FC4F008144
:100A9000118122813381601771078207930740F02B
:100AA0000E946D0D688379838A839B8381E001C0F6
:100AB00080E0DF91CF911F910F9108958F929F92C7
:100AC000AF92BF92CF92DF92EF92FF920F931F935C
:100AD000CF93DF9361E472E08AE993E05CD689E129
:100AE00090E0909369028093680282E090E0909396
:100AF0006B0280936A0280E190E0A4D7EC016091E0
:100B000068027091690223E040916A020E94240EFB
:100B1000D0936D02C0936C02C0906802D0906902BD
:100B2000FEE68F2EF2E09F2EABEEB2E0C7E8D2E0F9
:100B300020EA32E049EB52E062ED72E004E013E0BB
:100B400088E6E82E83E0F82E80E090E0AA24AA94BC
:100B5000B12C8C159D05D4F4F40111924F011D9216
:100B60001992F90111929F01FA011192AF01FB0153
:100B70001192BF01F80111921192119211928F01FD
:100B8000F701A192B1927F010196E3CF1092510239
:100B9000109250028CE090E09093530280935202A6
:100BA000109254022FEF2093570290935902809392
:100BB000580288E190E090935B0280935A02109271
:100BC0005C0220935F02909361028093600289E14E
:100BD00090E09093630280936202109264022093EB
:100BE0006702DF91CF911F910F91FF90EF90DF90FF
:100BF000CF90BF90AF909F908F9008958AE993E037
:100C000062C5DF92EF92FF920F931F93CF93DF9312
:100C100000D000D0CDB7DEB781E294E087D11816BE
:100C200019060CF03FC040910E0261E274E0CE0163
:100C30000196E8D4BE016F5F7F4F8AE993E0C0D58B
:100C4000CE01019640D58AE993E08BD66AE973E03C
:100C500081E294E0DDD364E58AE993E03CD6892B18
:100C600039F464E78AE993E036D6019709F4E6C0DF
:100C700063E48AE993E02FD6892B39F463E68AE9A5
:100C800093E029D6019709F4E5C060E58AE993E08D
:100C900022D6892B39F460E78AE993E01CD60197C4
:100CA00009F4E4C080911F04882309F471C015D7AA
:100CB0000091A0031091A1032091A2033091A303FE
:100CC000601B710B820B930B6C33710581059105D1
:100CD00008F45EC002D724E130E040E050E00E941A
:100CE000D410CA01B90120E035E040E050E00E9494
:100CF000D410D62EE12CF12C00E010E080916C0293
:100D000090916D020E94A90F20916C0230916D02AA
:100D10000817190790F5C9010E94A90FBC01C70166
:100D20000E94AD10962F9D0D953538F4892F880FB0
:100D3000890F682F609540E011C09A3A40F09A5AA6
:100D4000692F660F690F462F409580E007C09555C3
:100D5000892F880F890F482F60E080950E94A00F8F
:100D60009B01AC01B80180916C0290916D020E94D0
:100D70005A0F0F5F1F4FF394C1CFC901A6D7ADD64D
:100D80006093A0037093A1038093A2039093A303A5
:100D900080910A02882329F080E090E05EDE8111D4
:100DA0006AC080910C02882331F080E090E0D3DCAF
:100DB00081E080931E0481E090E04FDE8823B1F152
:100DC0006091EC037091ED039B012B5F3F4F442733
:100DD00037FD4095542F882777FD8095982F58D45C
:100DE0006931710534F069317105B9F08AE190E03B
:100DF00010C0FB01E058FF4FEE0FFF1FE859FD4FF9
:100E000081E09FEF918380838091EC039091ED03CB
:100E100001969093ED038093EC0321E030E040E0F5
:100E200050E064E170E080E090E02FDD80911E04EE
:100E3000882341F149DA10921E0424C06AE973E064
:100E4000CE010196D2D4CE01019631DBCE010196BE
:100E50003AD40ECF6AE973E0CE010196C6D4CE0132
:100E6000019638DACE0101962ED40FCF1092ED0301
:100E70001092EC0317CF81E080931E0480E090E095
:100E80001EDD8FCF26960FB6F894DEBF0FBECDBF06
:100E9000DF91CF911F910F91FF90EF90DF90089518
:100EA000CF9368EE73E080E090E046D6C1E081E247
:100EB00094E03CD01816190684F062E272E081E2F8
:100EC00094E09BD281E294E0A0D2C0930B026CE24A
:100ED00071E080E090E030D6EACFCF910895CF93D3
:100EE000DF9326E040E051EE60E070E081E294E0C4
:100EF0002CD1C8E6D2E08C819D81E7D68C819D8182
:100F0000D9D66FEF8C819D810E94AD0F69E272E0AE
:100F100081E294E08DD2C4DF20E030E0A90161E0FD
:100F200070E080E090E0DF91CF91AFCCFC01818D4B
:100F3000228D90E0805C9F4F821B91098F739927CF
:100F40000895FC01918D828D981731F0828DE80F04
:100F5000F11D858D90E008958FEF9FEF0895FC01BE
:100F6000918D828D981761F0828DDF01A80FB11DE0
:100F70005D968C91928D9F5F9F73928F90E0089504
:100F80008FEF9FEF089585E699E0892B39F080E097
:100F900090E0892B19F099D1811125C080E090E073
:100FA000892B41F080E090E0892B21F00E94000025
:100FB00081111CC080E090E0892B41F080E090E03E
:100FC000892B21F00E940000811113C080E090E085
:100FD000892BA1F080E090E0892B81F00E94000035
:100FE00081110AC008950E940000D8CF0E9400001D
:100FF000E1CF0E940000EACF0C9400000895FC01AC
:10100000848DDF01A80FB11DA35ABF4F2C91848D91
:1010100090E001968F739927848FA689B7892C93C6
:10102000A089B1898C9180648C93938D848D981361
:1010300006C00288F389E02D80818F7D808308952A
:10104000CF93DF93EC01888D8823C1F0EA89FB8977
:10105000808185FD05C0A889B9898C9186FD0EC067
:101060000FB607FCF5CF808185FFF2CFA889B9893B
:101070008C9185FFEDCFCE01C2DFE8CFDF91CF911C
:101080000895CF92DF92FF920F931F93CF93DF9338
:101090001F92CDB7DEB76C0181E0D60158968C93D4
:1010A00058975B969C915B975C968C915C97981394
:1010B00007C05096ED91FC915197808185FD2DC020
:1010C000F601038D10E00F5F1F4F0F731127F02EF5
:1010D000F601848DF81210C00FB607FCF9CFD601C7
:1010E0005096ED91FC915197808185FFF1CFC6011B
:1010F000698385DF6981ECCF838DE80FF11DE35AA9
:10110000FF4F6083D6015B960C935B975296ED91EF
:10111000FC915397808180620CC0D6015696ED9168
:10112000FC91579760835096ED91FC915197808187
:101130008064808381E090E00F90DF91CF911F91D8
:101140000F91FF90DF90CF900895BF92CF92DF92E2
:10115000EF92FF92CF93DF93EC016A017B01B22EF5
:10116000E889F98982E08083411581EE580761059D
:101170007105A1F060E079E08DE390E0A7019601B0
:101180000E94D410215031094109510956954795C3
:1011900037952795211580E1380790F0E889F9897E
:1011A000108260E874E88EE190E0A7019601FCD718
:1011B0002150310941095109569547953795279591
:1011C000EC85FD853083EE85FF852083188EEC89C4
:1011D000FD89B082EA89FB89808180618083EA8908
:1011E000FB89808188608083EA89FB8980818068AF
:1011F0008083EA89FB8980818F7D8083DF91CF9115
:10120000FF90EF90DF90CF90BF9008951F920F92C4
:101210000FB60F9211240BB60F922F938F939F93BB
:10122000EF93FF93E0913104F09132048081E091DB
:101230003704F091380482FD12C0908180913A0405
:101240008F5F8F7320913B04821751F0E0913A0435
:10125000F0E0EF5DFB4F958F80933A0401C08081F1
:10126000FF91EF919F918F912F910F900BBE0F9057
:101270000FBE0F901F9018951F920F920FB60F92EE
:1012800011240BB60F922F933F934F935F936F935D
:101290007F938F939F93AF93BF93EF93FF9381E2DD
:1012A00094E0ADDEFF91EF91BF91AF919F918F914F
:1012B0007F916F915F914F913F912F910F900BBE56
:1012C0000F900FBE0F901F90189581E294E02EDED4
:1012D00021E0892B09F420E0822F08951092240444
:1012E0001092230488EE93E0A0E0B0E08093250400
:1012F00090932604A0932704B093280483E392E0FC
:10130000909322048093210485EC90E090932E0426
:1013100080932D0484EC90E09093300480932F040C
:1013200080EC90E0909332048093310481EC90E063
:10133000909334048093330482EC90E090933604CD
:101340008093350486EC90E09093380480933704C2
:1013500010923A0410923B0410923C0410923D0407
:101360000895CF92DF92EF92FF920F931F93CF9346
:10137000DF937C016A01EB0100E010E00C151D0514
:1013800071F06991D701ED91FC910190F081E02D10
:10139000C7011995892B19F00F5F1F4FEFCFC801B7
:1013A000DF91CF911F910F91FF90EF90DF90CF9041
:1013B00008956115710581F0DB010D900020E9F7BA
:1013C000AD0141505109461B570BDC01ED91FC91D9
:1013D0000280F381E02D199480E090E00895DC0113
:1013E000ED91FC91DB0114964D915C9115976D91F7
:1013F0007C910280F381E02D1994DBCFDC01ED912B
:10140000FC910190F081E02D19946FE372E0D1CF4F
:101410000F931F93CF93DF93EC01E1DF8C01CE019B
:10142000F4DF800F911FDF91CF911F910F910895ED
:101430000F931F93CF93DF93EC01BBDF8C01CE01A1
:10144000E4DF800F911FDF91CF911F910F910895DD
:101450008F929F92AF92BF92CF92DF92EF92FF92C4
:101460000F931F93CF93DF93CDB7DEB7A1970FB63E
:10147000F894DEBF0FBECDBF7C01C42EE52FCB019B
:10148000D22E19A221E02D1510F02AE0D22E8E01C5
:101490000F5D1F4F8D2C912CA12CB12C6C2D7E2F0C
:1014A000A501940181D68C2DD29E80191124015062
:1014B00011098A3014F4805D01C0895CF8018083D1
:1014C000211531054105510521F0C22EE32FCA0136
:1014D000E5CFB801C7016DDFA1960FB6F894DEBF66
:1014E0000FBECDBFDF91CF911F910F91FF90EF9075
:1014F000DF90CF90BF90AF909F908F900895CF9244
:10150000DF92EF92FF920F931F93CF93DF93EC0143
:101510006A017B012115310579F4E881F981019097
:10152000F081E02D642FDF91CF911F910F91FF90FB
:10153000EF90DF90CF9019942A303105D9F477FFDE
:1015400018C06DE25BDF8C0144275527BA014C19A6
:101550005D096E097F092AE0CE017ADF800F911FB5
:10156000DF91CF911F910F91FF90EF90DF90CF907F
:1015700008952AE0B701A601CE01DF91CF911F9116
:101580000F91FF90EF90DF90CF9062CF0F931F935A
:10159000CF93DF93EC01B3DF8C01CE0136DF800FF8
:1015A000911FDF91CF911F910F9108950F931F937A
:1015B000CF93DF93EC0191D2688779878A879B87E5
:1015C000E881F9810680F781E02DCE01199597FF1A
:1015D00014C083D2088519852A853B85601B710B51
:1015E000820B930B0C811D812E813F816017710747
:1015F0008207930728F38FEF9FEFDF91CF911F9121
:101600000F910895EF92FF920F931F93CF93DF9363
:10161000EC018B01E42E61E472E0BDD0C801C6DFAD
:10162000FF24E7FCF09497FD09C08E159F0531F06B
:10163000682FCE0122D1C801B9DFF5CFCE01DF91ED
:10164000CF911F910F91FF90EF900895CF93DF936B
:1016500000D01F92CDB7DEB79B01AC0161157105BB
:101660008105910559F069833A834B835C836ED77A
:1016700029813A814B815C81B9D503C060E070E07B
:10168000CB010F900F900F900F90DF91CF910895A5
:10169000CF92DF92EF92FF926B017C01621773078A
:1016A000840795075CF4CA01B9016C197D098E099C
:1016B0009F09CCDF6C0D7D1D8E1D9F1DFF90EF904F
:1016C000DF90CF900895FC018081918166C6CF9311
:1016D000DF93EC0188819981009709F05ED6198229
:1016E00018821D821C821B821A82DF91CF9108957D
:1016F0000F931F93CF93DF93EC018B016F5F7F4FAD
:10170000888199812FD7009731F0998388831B8333
:101710000A8381E001C080E0DF91CF911F910F919A
:101720000895CF93DF93EC0188819981892B29F06B
:101730008A819B818617970758F4CE01D9DF8823C9
:1017400041F08C819D81892B19F4E881F981108207
:1017500081E0DF91CF910895EF92FF920F931F9355
:10176000CF93DF93EC017B018A01BA01DADF8111AB
:1017700003C0CE01ACDF07C01D830C83B701888195
:1017800099810E94DF13CE01DF91CF911F910F91BC
:10179000FF90EF900895FC01118210821382128253
:1017A000158214826115710551F0FB010190002032
:1017B000E9F7AF0141505109461B570BCDCF0895B2
:1017C000CF93DF93EC01FB018617970751F06081FF
:1017D00071816115710521F044815581BDDF01C022
:1017E00076DFCE01DF91CF910895FC011182108246
:1017F0001382128215821482E3CFCF93DF93EC0120
:101800006115710559F0FB0101900020E9F7AF0166
:1018100041505109461B570B9FDF01C058DFCE01D5
:10182000DF91CF910895EF92FF920F931F93CF9383
:10183000DF93EC017B010C811D816115710511F4B1
:1018400080E014C04115510581F0040F151FB80147
:1018500068DF8823A9F3288139818C819D81B701B4
:10186000820F931FACD71D830C8381E0DF91CF9152
:101870001F910F91FF90EF900895CF93DF931F92E8
:101880001F92CDB7DEB769831A8241E050E0BE01F6
:101890006F5F7F4FC8DF0F900F90DF91CF9108955A
:1018A000CF93DF93FC01848195814817590770F429
:1018B000C081D181772767FD7095CE01840F951F78
:1018C00073D7009719F08C1B9D0B02C08FEF9FEF11
:1018D000DF91CF91089540E050E0E2CFBF92CF92E8
:1018E000DF92EF92FF920F931F93CF93DF936C01E0
:1018F0007B01EA0189012417350720F48D2FE901C6
:10190000042F182F61E472E0C60145DFD701149659
:101910008D919C911597C817D907C0F4801791072E
:1019200008F48C01D701ED91FC911197E00FF11FA4
:10193000B08010826D917C916C0F7D1FC6015DDFC0
:10194000D701ED91FC91E00FF11FB082C601DF914C
:10195000CF911F910F91FF90EF90DF90CF90BF90AC
:101960000895AF92BF92CF92DF92EF92FF920F93C2
:101970001F93CF93DF937C01DC01CD90DC90119716
:10198000C114D10409F43EC01496CD91DC91159791
:101990002097C1F156018501BFEFAB1ABB0AF801D0
:1019A0008081992787FD9095E7D6892BA1F721970C
:1019B000CC0DDD1D8881992787FD9095DDD6892B7B
:1019C00089F4AE014F5F5F4F401B510BD701159655
:1019D0005C934E931497C016D10648F4B801C60123
:1019E000D3D605C0C017D10760F32197E3CFD70145
:1019F000ED91FC91119714968D919C911597E80F9C
:101A0000F91F1082DF91CF911F910F91FF90EF90FE
:101A1000DF90CF90BF90AF900895FC0180819181BD
:101A2000009709F083C660E070E0CB010895089547
:101A3000A8D0FDDF54DAC3ECD7E0E3D82097E9F370
:101A4000A2DAFBCF12C41F920F920FB60F9211248D
:101A50002F933F938F939F93AF93BF938091BF0436
:101A60009091C004A091C104B091C2043091BE0411
:101A700023E0230F2D3720F40196A11DB11D05C0D1
:101A800026E8230F0296A11DB11D2093BE0480936A
:101A9000BF049093C004A093C104B093C20480918A
:101AA000C3049091C404A091C504B091C6040196EA
:101AB000A11DB11D8093C3049093C404A093C504D9
:101AC000B093C604BF91AF919F918F913F912F9199
:101AD0000F900FBE0F901F9018952FB7F89460913C
:101AE000BF047091C0048091C1049091C2042FBFC3
:101AF00008953FB7F8948091C3049091C404A091D5
:101B0000C504B091C60426B5A89B05C02F3F19F0A7
:101B10000196A11DB11D3FBF6627782F892F9A2FEF
:101B2000620F711D811D911D42E0660F771F881F96
:101B3000991F4A95D1F70895CF92DF92EF92FF92C5
:101B4000CF93DF936B017C01D4DFEB01C114D1048F
:101B5000E104F10479F077D0CCDF6C1B7D0B683E9B
:101B60007340A0F381E0C81AD108E108F108C85118
:101B7000DC4FECCFDF91CF91FF90EF90DF90CF90D3
:101B80000895789484B5826084BD84B5816084BDF5
:101B900085B5826085BD85B5816085BDEEE6F0E0E6
:101BA000808181608083E1E8F0E010828081826042
:101BB0008083808181608083E0E8F0E080818160C3
:101BC0008083E1EBF0E0808184608083E0EBF0E0F3
:101BD000808181608083E1E9F0E0808182608083A0
:101BE000808181608083E0E9F0E080818160808392
:101BF000E1EAF0E08081826080838081816080837F
:101C0000E0EAF0E0808181608083E1E2F1E08081C0
:101C100082608083808181608083E0E2F1E0808166
:101C200081608083EAE7F0E0808184608083808146
:101C300082608083808181608083808180688083EE
:101C40001092C100089508950F931F93CF93DF93CF
:101C5000EC01798368838B01000F111F060F171F9A
:101C60001B830A832C834D8350E0FA01EC56FE4F10
:101C7000E491F0E0EE0FFF1FE652FE4F8591949144
:101C80009E878D87FA01E25BFE4F44914F87C80122
:101C9000ECD298878F83009741F0A80160E070E054
:101CA000DF91CF911F910F9178C5DF91CF911F9157
:101CB0000F910895CF93DF93EC0161E08D81DFD127
:101CC00060E08D81DF91CF9113C2CF92DF92EF92CE
:101CD000FF920F931F93CF93DF93CDB7DEB7299772
:101CE0000FB6F894DEBF0FBECDBF8C01DC01179696
:101CF0008D919C911897892B09F499C0FADEF8010F
:101D0000C184D284E384F4846C197D098E099F090F
:101D1000623371058105910588F3F894828193817E
:101D20009A838983A781B0857D01EFEFEE1AFE0AC1
:101D30008C918987D80114969C9114971D960D90CB
:101D4000BC91A02DF801878591FF2EC09C91982B06
:101D500098879C91809589238F838F818E8388E0DB
:101D60008D8358856F8149853D812E8189819A8136
:101D7000F7015C9347FD252F3A952C93262F39F0D8
:101D8000441F00C000006C93000000C0F2CF38E098
:101D900041916C930000019761F7F801B687A58720
:101DA00049873D832E8338C09C91982B98879C91BE
:101DB000809589238F838F818C8388E08B835885DE
:101DC0006F8149853B812C8189819A81F7015C93E0
:101DD00047FD252F00C000C02C9300C000C000C0EC
:101DE00000C000C06C930000262F3A9541F0441FBC
:101DF000000000C000C000C000C000C0E8CF38E054
:101E0000419100C06C9300C0019709F7F801B687B3
:101E1000A58749873B832C839A838983789469DEDD
:101E2000D80119966D937D938D939C931C97299659
:101E30000FB6F894DEBF0FBECDBFDF91CF911F91DB
:101E40000F91FF90EF90DF90CF9008950F931F9325
:101E5000DC018D919C9111976817790740F51696D2
:101E60008C911697882361F0489FA0011124452F7B
:101E7000289F90011124232F089F80011124012FF6
:101E8000CB01880F991F860F971F1796ED91FC9134
:101E90001897E80FF91F14968C91DF01129680FFB6
:101EA00003C02083418302C0408321830C931F9190
:101EB0000F910895CF92DF92EF92FF920F931F93AD
:101EC000CF93DF93FC01808191816817790778F5C2
:101ED000CA01AA27BB27182FC32ED42EE52EFF2414
:101EE000DC2D022FC681CC2361F08C9FC001112410
:101EF000192FCC9E60011124DD2D2C9F90011124FF
:101F0000032FCB01880F991F860F971FA781B085DC
:101F1000A80FB91F8481FD01329680FF04C0DC93B5
:101F200011961C9303C01C931196DC930083DF91E0
:101F3000CF911F910F91FF90EF90DF90CF90089578
:101F4000962F50E060E070E0592B682BCB01BA016E
:101F50000895FC01808191810895FF920F931F9352
:101F6000CF93DF93EC01FF24F394F60E2E81F2164B
:101F700069F10F8118852150A9F06F3F51F430E0CD
:101F800040E050E06FEF7FEF80E090E02FD1B901AB
:101F90000BC08F2D90E0982F88270197622F70E05B
:101FA000DCD002C060E070E0F8018A819B81AF0163
:101FB000401B510B4817590740F44081469FC00110
:101FC000479F900D11249193F0CFFE82DF91CF9126
:101FD0001F910F91FF90089590E0FC013197E2313D
:101FE000F10508F04BC0EE58FF4F1CC180918000F6
:101FF0008F7703C0809180008F7D8093800008954B
:1020000080918000877FF9CF84B58F7702C084B537
:102010008F7D84BD08958091B0008F7703C080913B
:10202000B0008F7D8093B0000895809190008F77ED
:1020300007C0809190008F7D03C080919000877FC2
:102040008093900008958091A0008F7707C08091C1
:10205000A0008F7D03C08091A000877F8093A000A7
:102060000895809120018F7707C0809120018F7D96
:1020700003C080912001877F809320010895CF9332
:10208000DF9390E0FC01E25BFE4F2491FC01EC56F3
:10209000FE4F8491882349F190E0880F991FFC013D
:1020A000EC50FE4FA591B49186529E4FFC01C59114
:1020B000D4919FB7611108C0F8948C912095822328
:1020C0008C93888182230AC0623051F4F8948C91F9
:1020D000322F309583238C938881822B888304C090
:1020E000F8948C91822B8C939FBFDF91CF910895B0
:1020F0000F931F93CF93DF931F92CDB7DEB7282F97
:1021000030E0F901E85FFE4F8491F901E25BFE4F98
:102110001491F901EC56FE4F04910023C1F088237D
:1021200019F0698359DF6981E02FF0E0EE0FFF1F9E
:10213000E652FE4FA591B4919FB7F8948C9161112E
:1021400003C01095812301C0812B8C939FBF0F90FA
:10215000DF91CF911F910F910895AA1BBB1B51E1F5
:1021600007C0AA1FBB1FA617B70710F0A61BB70B07
:10217000881F991F5A95A9F780959095BC01CD01AC
:10218000089597FB072E16F4009406D077FD08D02B
:10219000E4DF07FC05D03EF4909581959F4F0895AC
:1021A000709561957F4F0895A1E21A2EAA1BBB1B63
:1021B000FD010DC0AA1FBB1FEE1FFF1FA217B30713
:1021C000E407F50720F0A21BB30BE40BF50B661F29
:1021D000771F881F991F1A9469F7609570958095ED
:1021E00090959B01AC01BD01CF010895052E97FB91
:1021F00016F400940FD057FD05D0D6DF07FC02D0AF
:1022000046F408C050954095309521953F4F4F4F6B
:102210005F4F089590958095709561957F4F8F4F92
:102220009F4F0895EE0FFF1F0590F491E02D199434
:102230000DD0A59F900DB49F900DA49F800D911D72
:10224000112408950790F691E02D1994A29FB001F2
:10225000B39FC001A39F700D811D1124911DB29FDA
:10226000700D811D1124911D0895CF93DF9382304D
:10227000910510F482E090E0E091C904F091CA0465
:1022800020E030E0A0E0B0E0309739F140815181AA
:1022900048175907B8F04817590771F4828193819C
:1022A000109729F013969C938E9312972CC09093BD
:1022B000CA048093C90427C02115310531F04217A3
:1022C000530718F0A901DB0101C0EF019A01BD011C
:1022D000DF010280F381E02DD7CF21153105F9F020
:1022E000281B390B2430310580F48A819B816115CC
:1022F000710521F0FB019383828304C09093CA048B
:102300008093C904FE01329644C0FE01E20FF31F20
:102310008193919322503109398328833AC02091C7
:10232000C7043091C804232B41F42091020230915C
:1023300003023093C8042093C70420910002309117
:1023400001022115310541F42DB73EB74091040239
:1023500050910502241B350BE091C704F091C8048D
:10236000E217F307A0F42E1B3F0B2817390778F06C
:10237000AC014E5F5F4F2417350748F04E0F5F1FCB
:102380005093C8044093C7048193919302C0E0E046
:10239000F0E0CF01DF91CF910895CF93DF930097C5
:1023A00009F487C0FC01329713821282C091C904DC
:1023B000D091CA04209781F420813181280F391FE0
:1023C0008091C7049091C8048217930779F5F09320
:1023D000C804E093C7046DC0DE0120E030E0AE1712
:1023E000BF0750F412964D915C9113979D014115D2
:1023F000510509F1DA01F3CFB383A2834081518102
:10240000840F951F8A179B0771F48D919C911197EA
:10241000840F951F02969183808312968D919C91D3
:102420001397938382832115310529F4F093CA040D
:10243000E093C9043EC0D9011396FC93EE93129722
:102440004D915D91A40FB51FEA17FB0779F48081C8
:102450009181840F951F0296D90111969C938E93BA
:102460008281938113969C938E931297E0E0F0E023
:102470008A819B81009719F0FE01EC01F9CFCE0112
:10248000029628813981820F931F2091C7043091D1
:10249000C8042817390769F4309729F41092CA0440
:1024A0001092C90402C013821282D093C804C09350
:1024B000C704DF91CF9108958F929F92AF92BF9200
:1024C000CF92DF92EF92FF92CF93DF93EC0168817E
:1024D00079818A819B81611571058105910521F4BE
:1024E00064E279ED8BE597E02DE133EF41E050E0D8
:1024F0007DDE49015A019B01AC01A7EAB1E498DEF7
:102500006B017C01ACEEB4EFA501940179D1C60E4C
:10251000D71EE81EF91EF7FE06C081E0C81AD108D2
:10252000E10880E8F80AC882D982EA82FB82C70102
:10253000B6019F77DF91CF91FF90EF90DF90CF9022
:10254000BF90AF909F908F900895B6CF86E092E0B5
:10255000B3CF6093060270930702809308029093B2
:10256000090208956F927F928F929F92AF92BF92CD
:10257000CF92DF92EF92FF920F931F93CF93DF934F
:10258000EC01CB01209779F4DF91CF911F910F914E
:10259000FF90EF90DF90CF90BF90AF909F908F9083
:1025A0007F906F9062CEFE01E60FF71F9E012250D2
:1025B0003109E217F30708F4A8C0D9010D911C9165
:1025C000119706171707B0F00530110508F49BC0E6
:1025D000A801445051094617570708F494C0025007
:1025E0001109061B170B019311936D937C93CF0177
:1025F000D4DE89C05B01A01AB10A4E01800E911E83
:10260000A091C904B091CA04612C712C60E070E003
:10261000109709F449C0A815B905C9F5ED90FC90CB
:102620001197670142E0C40ED11CCA14DB0478F193
:1026300047018A189B08640142E0C40ED11C12961F
:10264000BC9012971396AC91B5E0CB16D10440F034
:10265000B282A38391828082D9018D939C9309C019
:102660000E5F1F4F0E0D1F1DF90111830083EB2D0F
:10267000FA2F6115710531F0DB011396FC93EE938F
:10268000129741C0F093CA04E093C9043CC06D9115
:102690007C9111976616770608F43B01BD011296EE
:1026A0000D90BC91A02DB4CF6091C7047091C80467
:1026B00068157905E9F468167906D0F440910002AE
:1026C000509101024115510541F44DB75EB760913B
:1026D000040270910502461B570BE417F507A8F496
:1026E000F093C804E093C704F901918380830BC081
:1026F000BCDD7C01009749F0A801BE0145D0CE01A8
:102700004CDEC70104C0CE0102C080E090E0DF9142
:10271000CF911F910F91FF90EF90DF90CF90BF90DE
:10272000AF909F908F907F906F9008951F93FC01C2
:1027300099278827BC01E89411911032E9F31930E8
:1027400010F01E30C8F31B3249F01D3241F468947A
:1027500005C03CD0610F711D811D911D1191105359
:102760001A30B8F33EF490958095709561957F4F3F
:102770008F4F9F4F1F91089591113DC0803219F0E6
:1027800089508550D0F70895FB01DC0102C001900B
:102790000D9241505040D8F70895DC0101C06D936F
:1027A00041505040E0F70895FC018191861721F0D7
:1027B0008823D9F7992708953197CF010895FB0110
:1027C000DC0101900D920020E1F70895592F482F68
:1027D000372F262F660F771F881F991F660F771FC9
:1027E000881F991F620F731F841F951F660F771F25
:1027F000881F991F0895992788270895B7FF18CD36
:1028000017DD821B930B089512E0C2E1D2E000E0D5
:1028100005C022970109FE010BBF14DDC431D107A9
:0A28200080E00807B1F7F894FFCF3D
:10282A000000CB04200001000000010101010A633D
:10283A006F6C6F7220706172616D73206172653A9C
:10284A0020006D61737465720053657475700000C1
:10285A000000004108B1099607AF07A10720080D3B
:10286A000A006E616E00696E66006F7666002E0061
:00000001FF
