:1000000000800020BD010000511100001D11000002
:100010001D1100001D1100001D1100001D11000028
:100020001D1100001D1100001D11000051110000E4
:10003000511100001D110000511100000D110000B0
:100040005111000051110000511100005111000028
:100050005111000051110000511100005111000018
:100060005111000051110000511100005111000008
:1000700051110000511100005111000051110000F8
:1000800051110000511100005111000051110000E8
:1000900051110000511100005111000051110000D8
:1000A00051110000511100005111000051110000C8
:1000B00051110000511100005111000051110000B8
:1000C00051110000511100005111000051110000A8
:1000D0005111000051110000511100005111000098
:1000E0005111000051110000511100005111000088
:1000F000511100001527000051110000912C000043
:10010000511100003D31000051110000511100005B
:100110005111000051110000511100005111000057
:100120005111000051110000511100005111000047
:100130005111000051110000511100005111000037
:100140005111000051110000511100005111000027
:100150005111000051110000511100005111000017
:10016000511100002915000051110000511100002B
:1001700051110000511100005111000051110000F7
:1001800051110000511100005111000051110000E7
:1001900051110000511100005111000051110000D7
:1001A00051110000511100005111000051110000C7
:1001B000511100005111000051110000564B4CF23A
:1001C000205210B51A804DF628121A8000BF00BFC9
:1001D00000F0C2FF514B4FF010621A60504A9A6013
:1001E000504ADA60A3F53043203B1A6812F480725B
:1001F00004D14D490A604FF4A8521A604B4B1A784B
:10020000110703D51A7842F008021A70484B2A22C7
:100210001A700023474A48499818884204D247492F
:10022000595899500433F5E7454A464B9A424FF0E6
:10023000000302D242F8043BF7E74349434A5958C6
:1002400099500433B3F5DE7FF7D1414B802103F899
:10025000011B40498B42F9D13F4B1A603F4B0A22A8
:100260001A70A3F5805324225A70A0221A709A792A
:100270009207FCD59A79D406FCD4394B9A7902F0CE
:100280000C02082AF9D105221A7143225A719A796F
:100290009006FCD5324B9A795106FBD5314A4FF086
:1002A000817111600521516020221A702C4B9B79BD
:1002B00003F00C030C2BF9D12B4B2C4A1A602C4B5E
:1002C0002C4A1A6000225A60072243F8042C2A4A5A
:1002D000C3F80C2D62B601F00FF8134B1B68DA0758
:1002E00005D5264800F086FF254B264A1A60264B86
:1002F0001B785B0609D5224C224A2368934204D11D
:100300001E4800F077FF0023236003F0F5F800F0AB
:1003100029FF00F058FEFEE70E2005403080044023
:10032000823F04000100002B14D0034002D007409C
:1003300000E007406087FF1F5090FF1F704A0000D9
:100340005090FF1FB095FF1F000000000082FF1FAC
:1003500000E400E05FE400E008ED00E0005006404B
:10036000004006404480044004800440C010050062
:1003700014E000E03F1901000000202060EAB456BC
:100380001CE00340A5C3945A00F00740FFFFFFFFA5
:10039000FFFFFFFFFFFFFFFFFFFFFFFFFFFFFFFF6D
:1003A000FFFFFFFFFFFFFFFFFFFFFFFFFFFFFFFF5D
:1003B000FFFFFFFFFFFFFFFFFFFFFFFFFFFFFFFF4D
:1003C000FFFFFFFFFFFFFFFFFFFFFFFFFFFFFFFF3D
:1003D000FFFFFFFFFFFFFFFFFFFFFFFFFFFFFFFF2D
:1003E000FFFFFFFFFFFFFFFFFFFFFFFFFFFFFFFF1D
:1003F000FFFFFFFFFFFFFFFFFFFFFFFFFFFFFFFF0D
:10040000FFFFFFFFFFFFFFFFFFFFFFFFFEFFFFFFFD
:1004100010B5054C237833B9044B13B10448AFF33E
:1004200000800123237010BD5090FF1F00000000CA
:10043000684A000008B5064B1BB106480649AFF3F1
:1004400000800648036813B1054B03B1984708BD07
:1004500000000000684A00005490FF1F5090FF1FEA
:100460000000000038B5044608460D4603F0A8FE1B
:10047000236802465B6820462946984738BD38B550
:100480000446FFF7EFFF0546204600F0C3FB284473
:1004900038BD38B5044600F005FC0546204600F09E
:1004A000B9FB284438BD2DE9F34105460F46904677
:1004B0001E4600242868844208DAA1B20096A86883
:1004C0003A46434602F094FF0134F3E702B0BDE838
:1004D000F081FFFF10B50B4CA06802F0EFFEA068A2
:1004E00002F0E0FEA068FF2102F0CBFF06480749BA
:1004F000FFF7C5FF064B01221A60064B1A68064B30
:100500001A6010BDD090FF1F8C93FF1F7C46000027
:100510003C92FF1FA492FF1F8092FF1F014B98681F
:1005200002F0CCBED090FF1F2DE9FF41364D0746AB
:100530000026A846354C86B92C21384600F0F1FC3F
:1005400039460346C8F800000222684600F0ECFC79
:10055000684600F033FD206014E055F8042C2C218F
:100560000132384600F0CFFC55F8042C28600346D1
:1005700039466846013200F0D7FC684600F01EFD9F
:1005800044F826006846013600F001FC052E05F10E
:100590000405CFD125686168A268E3681C4F1D4E31
:1005A0001D4C1E4839604FF0010C3260236080F80A
:1005B00000C02DB91A48C9B2D2B2DBB2FFF773FF3F
:1005C0006B1E072B05D8164A4FF4B67000FB0320AC
:1005D0000FE0092D07D1134B01221A70124B1A6834
:1005E000124B1A600AE00A2D08D10E4B0C4800226B
:1005F0001A70397832782378FFF755FF0C4B0122B7
:100600001A7004B0BDE8F0817890FF1FB890FF1F0A
:100610007892FF1F6092FF1F7090FF1F9090FF1F46
:10062000D090FF1F7490FF1FA492FF1F6492FF1FC2
:100630005C92FF1F2DE9F0433E4D85B00746002632
:10064000A8463D4C86B92C21384600F06AFC394654
:100650000346C8F800000222684600F065FC6846C0
:1006600000F0ACFC206014E055F8042C2C21013281
:10067000384600F048FC55F8042C286003463946FB
:100680006846013200F050FC684600F097FC44F8E0
:1006900026006846013600F07AFB062E05F10405B7
:1006A000CFD1264BA7686269E668256924492548A9
:1006B0001A60D4F80090D4F804800097019602954F
:1006C000FFF7DDFE39461F48FFF7E3FE31461D48C0
:1006D000FFF7DFFE1B482946FFF7DBFEB9F1010FEC
:1006E00022D1B8F1010F1FD1002303EB43011648BB
:1006F0000A5801444D68AA4203DB04330C2BF4D1A1
:1007000012E012495DF803001144C0F3074481F878
:10071000254081F85700C0F30724002081F83E40AF
:1007200081F870000132E6E7094B00221A7005B02B
:10073000BDE8F0837890FF1FB890FF1F6C90FF1FFB
:10074000824600008C93FF1F9490FF1FD090FF1FE4
:100750006787FF1FF8B50D4B4FF4B677054607FBCB
:10076000003700241E464FF4B67303FB05639868F8
:1007700002F085FE0138844205DA3B1993F87000D7
:1007800010B10134EFE70120F8BD00BFD090FF1F8A
:10079000354B2DE9F74F4FF4B67808FB0038824609
:1007A000C14645460027D8F8080002F068FE874297
:1007B0004FDA2E4AD9F8A410147895F82520C1F301
:1007C0000743D61A002EB8BF7642B442C1F30720C1
:1007D000C9B204DA9342B4BF1A19C4EB030295F804
:1007E0003E301E1A002EB8BF7642B44204DA984258
:1007F000B4BF0319C4EB000395F85760701A0028C2
:10080000B8BF4042844204DAB142B4BF0E19C4EB0F
:1008100001065FFA82FBDCB2F6B221463246584648
:1008200002F028FEC9F8A4000096B9B25A46234641
:10083000D8F8080002F0DCFD0D4B1A680D4B1A6069
:100840000D4B1A680D4B01371A6009F10409013587
:10085000A9E75046FFF77EFF10B1094B01221A703D
:1008600003B0BDE8F08F00BFD090FF1F6487FF1F6B
:100870006C90FF1F3C92FF1FA492FF1F8092FF1FEE
:100880006787FF1F204B2DE9F7434FF4B67404FB35
:1008900000348046A0340025994654F8043F666E23
:1008A000C3F30742C3F3072EDBB286EAE677A7EB72
:1008B000E677FF3BFF3AAEF1FF0EFF217A4307FBDD
:1008C0000EFE5F4397FBF1F7FE2E0F444FF4B67315
:1008D000D8BF013692FBF1F29EFBF1FE03FB0893B9
:1008E000FFB2CCBF616666668E440A440097986882
:1008F000A9B2D2B25FFA8EF3013502F079FD192D5B
:10090000CBD103B0BDE8F083D090FF1F084A094B5C
:1009100010B553F820101468611A074C54F82040A1
:10092000A14223BF126843F820200120002010BDFF
:10093000A492FF1F8092FF1F3C92FF1F2DE9F043FE
:1009400085B001F0CFF9002841DD794B79491A785B
:100950006846782300F0C6F96946774800F09AFAAD
:10096000684600F014FA744800F0FDFA7248542109
:1009700000F0D7FA30B97048742100F0D2FA01289B
:1009800000F0B4806C48432100F0CBFA30B96A48DB
:10099000632100F0C6FA012800F0B38066485021B8
:1009A00000F0BFFA044630B96348702100F0B9FA8C
:1009B000012800F0B1806048232100F0B2FA30B97C
:1009C0005C485E49FFF74EFD5A4800F023F95C4B46
:1009D0001B78002B52D05B4D5B4F2A683B68D31AC3
:1009E0003B2B4BD92A681423B2FBF3F94FF4A063D5
:1009F000B9FBF3F203FB12990024544EB06802F0E5
:100A00003EFD844235DAB668304602F038FD2302F6
:100A100093FBF0F000EB0903DBB2542B1FFA84F8D0
:100A200008D803EB4300A3EB8303591EC0B2C9B23D
:100A3000002215E0A92B09D95633DBB203EB4301A1
:100A4000A3EB83035A1E0020C9B208E0553BDBB27A
:100A5000A3EB8300013803EB4302C0B20021D2B202
:100A600002F008FD41460246304602F0E2FC013445
:100A7000C3E7B06802F022FC2B683B60344B354D75
:100A80001B7823B10020FFF741FF002847D1324BEC
:100A90001B7823B10020FFF7F5FE01232B70012006
:100AA000FFF734FFD0B12D4C2068411D00F065F9EF
:100AB000182803DD19280AD01A2307E0234B4230F7
:100AC0006FF0FE0243F82020236801332360244B9B
:100AD00014225A601B4B1A68224B5A602B7823B39E
:100AE000FFF71CFD1B4B00221A701EE012496846DE
:100AF00000F0C5F96846FFF79DFD684600F047F92C
:100B000040E70D49684600F0BAF96846FFF70CFD6A
:100B1000684600F03CF941E7104B1C604BE70123AD
:100B200000202B70FFF734FEB1E705B0BDE8F0837D
:100B30006587FF1F8C93FF1F6892FF1F954600007B
:100B40007490FF1FA492FF1F6492FF1FD090FF1F9D
:100B50006487FF1F5C92FF1F6687FF1F7C92FF1F49
:100B60003C92FF1F8092FF1F38B500212448254C7E
:100B700000F04DF92449254A214802F0A9FC192228
:100B8000022384E80C00102000F014FB2188227955
:100B90000546032302F072FBA56025682346214623
:100BA0000020A84203F1010301F104014FF000020B
:100BB00011DADA7283F8882083F8242083F83D2044
:100BC00083F8562083F86F20C1F8A020FF22C1F8D7
:100BD00004210130E5E70E4B0920FF215860D86061
:100BE000152018619861D9721920D97583F82310DE
:100BF0001A601A721A75D86183F8202038BD00BFB8
:100C00006892FF1FD090FF1F8F0D00006087FF1FAD
:100C10009490FF1F07B5064B1B88ADF8043003689E
:100C200001A95B680222984703B05DF804FB00BF8E
:100C30009C46000070B505468AB022B90368C9B267
:100C40001B6898472CE0012A08BF0A2221B93022EC
:100C50008DF82520212413E02124B1FBF2F002FBC2
:100C60001011C9B209290AAE94BF30313731264478
:100C7000C9B206F8241C014610B1013CE4B2ECE70D
:100C800033B1013CE4B20AAB23442D2203F8242CF7
:100C90002B6801A95B6828462144C4F122029847C9
:100CA0000AB070BD0029BABF49422D2300230A2291
:100CB000FFF7C0BF0A4B70B51D6804461E46236887
:100CC0002046DB689847002808DA01F0DFF833682F
:100CD000A2685B1B9342F2D34FF0FF3070BD00BFA0
:100CE000A492FF1FF8B504460D46002116461F4684
:100CF00000F08DF8A268BA420FD22846FFF7DAFF5B
:100D0000011E02DA01232B7307E006D0B14204D0A2
:100D10002046C9B200F0E9F8EFE72046F8BDFFFF32
:100D20000C4A0D48136811460C4A002B08BF1346A5
:100D300093FBF0F200FB12330948424344F2A71040
:100D400000FB03200028BCBF00F1004000F1FF3091
:100D500008607047A092FF1F1DF3010024D95B07B4
:100D6000ECF4FFFF10B5044630B1FFF7D9FFB0FB3C
:100D7000F4F303FB140010BD10BD884210B5044607
:100D800004DA081AFFF7EEFF204410BD10BD10B5BD
:100D90000446006802F0EAFB204610BD38B5044660
:100DA0000D460068013102F033FF10B184E82100E4
:100DB000012038BD43688B4210B5044606D2FFF7C8
:100DC000EDFF20B1A3680BB922681370012010BD9C
:100DD000F8B504460F46154622B9036803B11A70E8
:100DE00000230BE01146FFF7E5FF064640B92068F7
:100DF00010B102F0BBFB266000236360A36004E037
:100E0000A5602068394603F07DF92046F8BD38B565
:100E10000023044603604360836003730D4639B1C9
:100E2000084603F0CDF9294602462046FFF7D0FFD9
:100E3000204638BD38B5054600680C4660B16A6882
:100E40008B689A4206D3096803F05CF9A368AB602B
:100E500000230AE002F08AFB23682B6063686B6062
:100E6000A368AB60002323606360A36038BD814248
:100E70000B4603D009689A68FFF7AABF704710B500
:100E8000002304460360436083600373FFF7EFFFB2
:100E9000204610BD884210B5044601D0FFF7CAFFB6
:100EA000204610BD38B505460C4641B1084603F052
:100EB00087F9214602462846FFF78AFF00E0A9602D
:100EC000284638BD70B504460E4685685AB11544AB
:100ED0002946FFF76FFF30B12068A36831461844F8
:100EE00003F010F9A560204670BD13B500238DF8FE
:100EF0000410012201A904468DF80530FFF7E2FF36
:100F0000204602B010BD83689A4210B506D204682C
:100F1000A01803F07DF808B1001B10BD4FF0FF30A2
:100F200010BD0022FFF7EFBF9A42F8B504460D4608
:100F300002D911461A460B460020A060AE68206018
:100F4000B242606020730CD8B34238BF1E462B6893
:100F50009F5D9855296820461144FFF7A3FF2B6831
:100F60009F552046F8BD2DE9F0410668044616B3AA
:100F7000876807B3B046454608F10108287802F0B3
:100F8000E3FA0028F7D1013F3744387802F0DCFA61
:100F900048B901377A1BB542A26008D930462946C4
:100FA00000F01AF803E0AF42F3D3013FEDE7226807
:100FB000A3680021D1542046BDE8F081006808B143
:100FC00002F08CBA704708B5FFF784FAFFF7B6FC59
:100FD00000F05CFFFAE7FFFF844641EA000313F0EC
:100FE00003036DD1403A41D351F8043B40F8043B30
:100FF00051F8043B40F8043B51F8043B40F8043BF3
:1010000051F8043B40F8043B51F8043B40F8043BE2
:1010100051F8043B40F8043B51F8043B40F8043BD2
:1010200051F8043B40F8043B51F8043B40F8043BC2
:1010300051F8043B40F8043B51F8043B40F8043BB2
:1010400051F8043B40F8043B51F8043B40F8043BA2
:1010500051F8043B40F8043B51F8043B40F8043B92
:1010600051F8043B40F8043B403ABDD2303211D332
:1010700051F8043B40F8043B51F8043B40F8043B72
:1010800051F8043B40F8043B51F8043B40F8043B62
:10109000103AEDD20C3205D351F8043B40F8043B32
:1010A000043AF9D2043208D0D2071CBF11F8013B30
:1010B00000F8013B01D30B8803806046704700BFF6
:1010C000082A13D38B078DD010F003038AD0C3F105
:1010D0000403D21ADB071CBF11F8013B00F8013BE7
:1010E00080D331F8023B20F8023B7BE7043AD9D3A6
:1010F000013A11F8013B00F8013BF9D20B7803707B
:101100004B7843708B78837060467047024B1A6847
:1011100001321A60704700BFA492FF1F08B50B4C44
:101120002368580301D500F0FFF92368590501D55C
:1011300001F0F0FA23681A0501D501F0A9FD236832
:10114000DB04ECD501F0FAFFE9E700BF348004408E
:1011500008B5FFF7E3FFFFFF014B10221A8070472D
:10116000002005407047FFFF024A136818441060D2
:10117000184670476887FF1FEFF313839BB9EFF39F
:10118000108098B9EFF3058323B10F2B04D9084AD7
:10119000985C01E04FF48070EFF311833BB1834220
:1011A00038BF184670474FF0FF30704718467047F9
:1011B000F0E300E002F0D2B910B50023B0FBF2F486
:1011C00002FB1400092894BF30303730C0B2C85435
:1011D00020460CB10133F1E7CA18547022469A42F6
:1011E00006DA885CCC5C8C54C8540132013BF6E7CB
:1011F000084610BD044B054900221A600A60044AE3
:10120000106010221A60704714D0034004D00340CD
:1012100000D00340212810B518D80D4A52F83030BC
:1012200093F880423CB1012211B183F8802010BDB7
:1012300083F8002110BD02EBC00043681A6811B1A9
:1012400042F0030201E022F002021A6010BD00BF6A
:10125000A0460000212816D80B4A02EBC003012942
:101260005B6852F8302004D182F880124FF4A272E9
:1012700008E0002082F8800211B94FF4807201E08A
:1012800040F203121A607047A046000072B60C4B81
:101290000C491A680C4B1B68096862B6490102D5F3
:1012A000322A88BF0133C2F58C32482102F23F1244
:1012B000B2FBF1F24FF47A7000FB0320704700BFDD
:1012C00018E000E004ED00E0A492FF1F38B50446EA
:1012D000FFF7DCFF054624B938BD013C0AD005F50F
:1012E0007A75FFF7D3FF401BB0F57A7FF5D200F097
:1012F000CDFDF6E738BDFFFF1F4B4FF4000210B5E0
:101300001A604FF080721A604FF000721A604FF04E
:1013100080621A604FF000621A60184B184A194C2C
:10132000002048F6FF71186059602823136093600D
:1013300013619361136293621363936309222260C2
:1013400004F58054043420606160A360236144F894
:10135000042C04F5FE2420600B4801600B490B604F
:101360008B600B4B1A6000F037FFFA20FFF7AEFFDF
:10137000BDE8104000F0D6BB08E100E00480034067
:101380000C8003400080034008800B400C800B4021
:1013900000800B40F0B50C4B0C4C1A7842F0020563
:1013A00004EBC50682F00102706009481A700678E5
:1013B000002E0CBF8827C82786F0010647EA0141A6
:1013C000067044F83510F0BD1093FF1F0080FF1F1A
:1013D0008893FF1F431E032B10B510D872B6094A1D
:1013E00052F8230048B1416842F82310064A0188A8
:1013F00032F81340611A22F8131062B610BD0020B3
:1014000010BD00BF0093FF1F9895FF1F01380328F0
:101410000AD872B6054B53F82030002013B10130C2
:101420005B68FBE762B67047002070475493FF1F6C
:1014300010B572B60123174A1A4412F8012C12078C
:101440001CD59900144A52F831402CB902EB4313D1
:1014500008305860114B09E041F0010152F8314069
:1014600064B902EBC103083058600D4B42F83130CB
:101470000C4B1A78013A1A7062B610BD0133052B75
:10148000D9D162B6074B00221A70BDE8104000F0B7
:10149000C5BB00BFD84800000080FF1F8800400087
:1014A000C80040007E93FF1F431E032B30B532D887
:1014B000194A400140F01000104472B6174CE25C2B
:1014C000032A09D8DFE802F01602180508300222C4
:1014D00013E00830042210E01148124A50F823406B
:1014E00014B940F8231002E052F82300416042F89A
:1014F00023100FE0032200E00522E25410F0080F51
:1015000001F108030A8843600CBF8823C82343EA1B
:101510000243036062B630BD0080FF1FBC92FF1F14
:101520005493FF1F6493FF1F2DE9F84FAB4F3C7896
:10153000E4B214F0040F3D4619D0A94B1B78A3B1B7
:10154000A84A117801F0FF0321B1013BDBB213700F
:1015500003B900BEA44A117801F0FF0329B1013B91
:10156000DBB213700BB900F06DFC04233B7004F088
:10157000080303F0FF02002B00F067829B4B9C4C9A
:101580001A78D2B215094FEA920840F0E48104EBD0
:10159000C803596854F83830C3F38303013B0C2B5C
:1015A00000F2D681DFE813F095019501D401D40152
:1015B000D401D401D401D401B001D401D401D401A7
:1015C0000D008C4D0A684B688B486B6001218B4B7A
:1015D00044F838302A60DFF85082017092B240F24D
:1015E000816000238242C8F800302361A36117D8CC
:1015F000B2F5D06F80F01E81B2F5817F00F0CF8010
:1016000006D8802A00F0BA80822A00F0BB8031E13F
:1016100040F202339A4200F0D180B2F5A06F1CE094
:1016200042F22100824200F051810ED8B2F5086FDB
:1016300000F09E80B2F5106F40F01C81684B6C4E3C
:10164000AA781A7006F180090AE042F221218A4242
:1016500000F0088142F221339A4200F00F8109E143
:10166000336A1B0603D5706A083800F0D7FA0836CB
:101670004E45F5D10026B146DFF8B0A156F80A0074
:1016800028B1D0F804B000F0C9FA5846F8E74AF893
:1016900006005B4BDFF898A1F05056F80A0028B11D
:1016A000D0F804B000F0BAFA5846F8E7554B4AF8BB
:1016B0000600F050544B23F81900544B19F803203E
:1016C000023A032A08D8DFE802F0020402040022EA
:1016D00000E0012203F8092009F10109B9F1040F22
:1016E00006F10406C8D14A4B00221A7001269A4618
:1016F000484A494B3244334412F8012C9B0012F003
:10170000080F1A704FEA860925D000F069FA38B13F
:1017100004EB461308305860404B44F8393006E07B
:101720009AF8003044F8390001338AF8003000F0AC
:1017300057FA49F0010338B104EBC3020830506096
:101740002E4A44F8332006E044F833009AF800307B
:1017500001338AF8003049F00202013649F00309EA
:101760000023052E44F8323044F83930C0D186E0E9
:101770001B4B2B4C1B7823700B4683E0284C2370AB
:1017800063707EE0AA88042A74D8254C92002370E6
:101790006370244B9B5C9E0773D5217071E0AA880F
:1017A00002F07F02042A65DC6B88002B62D1910075
:1017B0001C4A0A44117821F0020159E0AA8802F07B
:1017C0007F02042A56DC6B88002B53D19100154A06
:1017D0000A44117841F002014AE000BF802007402E
:1017E0008793FF1F1193FF1F9C93FF1F90200740BB
:1017F0000080FF1F7493FF1F8893FF1FC8004000E5
:10180000AC92FF1F6493FF1F9895FF1FBC92FF1FB0
:101810007E93FF1FD848000030C8011088004000A8
:101820007F93FF1FC0200740A892FF1F0093FF1F58
:101830005493FF1F6A88A9889F4B53F8084CA3F163
:101840000C00BCB133F80C6C964209D133F80A6C29
:101850008E4205D1120A032A0CBF2378038911E0B6
:101860000C33EAE7954A1168954A1160A978954AC0
:10187000117004E0944B0F221A7027E000231C46DD
:1018800000E00223EE88B34238BF1E46402E34BF2C
:101890003546402520462946FFF77CFD761B2C4423
:1018A00003D1402D12D1354603E0402E34BF3546DA
:1018B000402520462946FFF76DFD761B2C4401D1BB
:1018C000402D03D1814AC8F8004016800122804B88
:1018D0003DE0804B1A8842F221039A4210D1002346
:1018E0007D4AC85C98540133072BF9D11368862BC5
:1018F00002D17A4B0F221A7000200146FFF74AFDF1
:10190000774B44F8383023E0764E3568B5B1DFF8D0
:10191000BC81B8F80090B9F1400F34BF4C46402468
:1019200028462146FFF736FDC4EB09039BB2A8F811
:1019300000300BB9402C00D12B193360654B1A884D
:10194000B2F5A06F04D100225A709A78664B1A70D3
:1019500001225F4B6CE004EBC806013D736802F0A6
:101960000802A3F10800EDB202F0FF01002A36D010
:1019700000F054F95D485E4B50F82520EAB15168FB
:1019800040F8251002F108017160595D03290BD858
:10199000DFE801F002040608032104E0022102E06E
:1019A000052100E00421595516F0080F12880CBFDC
:1019B0008823C82343EA024342E05A5D032A07D83A
:1019C000DFE802F040400204002206E0012204E0C9
:1019D00016F0080F0CBF022203225A5532E054F8C9
:1019E0003820120C23F8082C22B3DFF834E123F856
:1019F000061C43F8041C5EF825303E4913B94EF826
:101A0000250002E051F8253058603B4B41F8250095
:101A100033F815100A4423F8152000F0E1F810B14E
:101A20000830706006E0354B44F838001A7801320F
:101A30001A7007E02A4B324A16F0080F08BF134607
:101A400044F8383008233B7070E5E0071FD5204983
:101A50002B482C4C02230B702B4B1A702B4B18600D
:101A600098602B48D8601A619A615C60164B0D2013
:101A700018702848FF2303702B700274264A1370D5
:101A8000264B9F221A7001230B70BDE8F88F2106A8
:101A900004D50D4B0D221A7080232B70A20705D59B
:101AA0001C4B1A78D2B21A7002232B70E30644BF83
:101AB00010232B70BDE8F88FE8480000A492FF1FA8
:101AC000A895FF1FAC93FF1FC02007407C93FF1F0A
:101AD000942007407493FF1FA095FF1F1193FF1FD1
:101AE000C8004000A892FF1F982007405493FF1F92
:101AF000BC92FF1FAC92FF1F9895FF1F7E93FF1FA4
:101B000088004000C092FF1F1093FF1F0080FF1F3E
:101B10001493FF1F882007408C2007408420074033
:101B20000093FF1F08B501F071FB00221A4B002142
:101B3000D15098180832882A4160F7D1174A1068A6
:101B400040F48020106002F528326832C3F3072089
:101B50001070C3F307401B0E10751376FF2302F8B5
:101B60001C3C02F8143C02F88C3C012302F8083CAF
:101B700082F8641002F8183C094B70226FF450711F
:101B80001A700B444FF400721A6003F1C04303F55E
:101B9000C82310221A7008BD0080FF1F3480044043
:101BA00049E400E000F09EB800F05AB800F07EB8BA
:101BB00000F01AB9084600F00BB90846114600F0CB
:101BC0009FB87047044B00221A714FF47A711A7350
:101BD000024A99601A6070478C93FF1FB847000053
:101BE00072B60C4A1168B1FA81F30B2B02D962B6B6
:101BF000002070474FF00040D84021EA00011160FA
:101C000062B6054948225343C8180022CA504260B0
:101C1000704700BF6C87FF1F0084FF1F0C4B4822DA
:101C2000C31AB3FBF2F30B2B11D80A4A127822B174
:101C3000094A12780AB1FFF7FBBB72B6074A4FF0A8
:101C4000004121FA03F311681943116062B670472D
:101C50000084FF1F7E93FF1F8793FF1F6C87FF1F6A
:101C600010B5104C23686BB120684288531C0244A5
:101C7000147A0288934212D3FFF7D0FF094B002257
:101C80001A600DE0084B1B7813B94FF0FF3010BD00
:101C90000320FFF79FFB20600028E5D1F5E7438094
:101CA000204610BDA893FF1F8793FF1F10B50B4C54
:101CB000236813B123686BB902E0094B1B7813B991
:101CC0004FF0FF3010BD0320FFF784FB2060002899
:101CD000F0D1F5E75A881344187A10BDA893FF1F76
:101CE0008793FF1F044B9888044B1B681BB11A880D
:101CF0005B88D31A184470479895FF1FA893FF1F5D
:101D00002DE9F8432D4E012307460C463370002C75
:101D10004FD02B4D2B68A9462BBB48F60148294BC9
:101D20001B7803F0FF020BB9327015E00420FFF7B7
:101D30006DFB072808D801233370FFF751FFC9F85E
:101D4000000080B91D4B1870B8F101081E4B01D07E
:101D50001A782AB101221A704FF0FF30BDE8F883DB
:101D600000F094F8DBE72968174A488800231370CD
:101D7000C0F14002944238BF224600F1080C1044E2
:101D80008C444880A41A934204D0F85C0CF80300F9
:101D90000133F8E71F444B883F2B06D940230B80C3
:101DA0000420FFF781FB00232B60084B05221A70EB
:101DB000ADE734702046BDE8F88300BF9D93FF1F58
:101DC000A093FF1F8793FF1FA493FF1F9C93FF1FE8
:101DD00007B502AB012103F8010D1846FFF790FF8C
:101DE00003B05DF804FBFFFF2DE9F041114B1B78B8
:101DF000F3B1114E114B3468114D01271F709846F5
:101E00004CB1002763882F70042023802146FFF700
:101E10004BFB376009E0FFF7E3FE014620B10420E9
:101E20002C70FFF741FB00E02F70002388F8003092
:101E3000BDE8F0818793FF1FA093FF1F9D93FF1FB5
:101E40009C93FF1F38B50E4B1B7803F0FF05ABB911
:101E50000C4C216831B14B880B800420FFF724FB28
:101E6000256038BDFFF7BCFE014620B10420BDE867
:101E70003840FFF719BB044B01221A7038BD00BF70
:101E80009D93FF1FA093FF1F9C93FF1F10B50E4C47
:101E90002378BBB901232370FFF724FF08B1FFF7B4
:101EA00090FE00F0C1FB08B100F083F800F07AFE6C
:101EB00008B100F000F901F0DDF808B100F07DF99B
:101EC0000023237010BD00BFAD93FF1F08B503684A
:101ED000C9B21B68984708BD08B50368C9B21B683A
:101EE000984708BD08B50368C9B21B68984708BD84
:101EF00008B50368C9B21B68984708BD034800EBE2
:101F00005100B0FBF1F000F0C3B900BF00449508E8
:101F100010B5064800EB51001446B0FBF1F000F09C
:101F2000B7F92046BDE8104000F0F8B90044950824
:101F300000F01EBA084600F04FBA08B5084600F097
:101F400067FA003018BF012008BD08B5084600F048
:101F500081FA003018BF012008BD00F065BB00F019
:101F60009DBB00F071BB00F043BB00F0AFBB00F0C5
:101F700049BB08B5084600F093FA012008BD08B532
:101F8000084600F08DFA012008BD10B50846144639
:101F9000114600F0CFFA204610BD38B508460D4670
:101FA00002F00EF904462146284600F0C3FA204606
:101FB00038BD7047044B00221A714FF47A711A73BE
:101FC000024A99601A607047B093FF1FD84700001B
:101FD00008B50368C9B21B68984708BD08B503680F
:101FE000C9B21B68984708BD08B50368C9B21B6829
:101FF000984708BD08B50368C9B21B68984708BD73
:10200000034800EB5100B0FBF1F000F007BC00BF4B
:102010000044950810B5064800EB51001446B0FB8B
:10202000F1F000F0FBFB2046BDE8104000F03CBCA6
:102030000044950800F062BC084600F093BC08B567
:10204000084600F0ABFC003018BF012008BD08B501
:10205000084600F0C5FC003018BF012008BD00F0A4
:10206000A1BD00F0D9BD00F0ADBD00F07FBD00F016
:10207000EBBD00F085BD08B5084600F0CFFC01209F
:1020800008BD08B5084600F0C9FC012008BD10B520
:1020900008461446114600F00BFD204610BD38B529
:1020A00008460D4602F08CF804462146284600F00A
:1020B000FFFC204638BD7047044B00221A714FF4D4
:1020C0007A711A73024A99601A607047C093FF1FB1
:1020D0003048000008B50368C9B21B68984708BDBE
:1020E00008B50368C9B21B68984708BD08B50368FE
:1020F000C9B21B68984708BD08B50368C9B21B6818
:10210000984708BD034800EB5100B0FBF1F000F028
:1021100043BE00BF00A24A0410B5064800EB5100C0
:102120001446B0FBF1F000F037FE2046BDE8104049
:1021300000F074BE00A24A0400F09ABE084600F007
:10214000CBBE08B5084600F0E3FE003018BF012002
:1021500008BD08B5084600F0FDFE003018BF01209C
:1021600008BD00F087BF00F0BFBF00F093BF00F0D4
:1021700065BF00F0D1BF00F06BBF08B5084600F0A6
:1021800007FF012008BD08B5084600F001FF012047
:1021900008BD10B508461446114600F043FF20461E
:1021A00010BD38B508460D4602F00AF8044621462F
:1021B000284600F037FF204638BD7047044B002208
:1021C0001A714FF47A711A73024A99601A60704753
:1021D000D093FF1F8848000010B5204B20482149AC
:1021E00060221A70E1225A701F4B204A1C78204B43
:1021F000082C01D1012402E00A2C03D11924046027
:10220000132005E00C2C0CBF15243D240460122083
:10221000086014601860174B17491B78174A03B100
:1022200001230B601360164B164A1978164B0129CF
:1022300001D880210BE0042901D8842107E0082976
:1022400001D8852103E0102994BF862187211160E0
:1022500019600E4B01221A7010BD00BF00400740EC
:1022600008B003400CB003407087FF1F08B00B405C
:102270000CB00B40E193FF1F20B0034020B00B4097
:102280007187FF1F24B0034024B00B40E093FF1F71
:10229000194B1A6842F480621A60184A00231370BE
:1022A000174A1370174A1370174A1370174A13709E
:1022B000174B40F213321A604FF451725A60154BAB
:1022C000C0F344321A70C0F347125A70022104223C
:1022D00000F01F0098729A70D9745A7588221A7487
:1022E0003C22DA700C4B40226FF44A711A700B4496
:1022F0004FF400521A607047348004406A94FF1F04
:10230000E993FF1F7094FF1F6B94FF1FE893FF1F5B
:1023100040A0044000A006402DE400E0134A93785A
:1023200000F0030103F0EC030B43410748BF43F007
:102330001003937000F00F03042B0C4903D18B7929
:1023400043F040038B715379C20603F0EF03074A51
:1023500048BF43F0100353719379810603F0EF03F4
:1023600048BF43F010039371704700BF00A00640C0
:1023700008B5114B1B685B0500D408BD0F4B1A78DC
:1023800002F0FF0312B1FFF781FDF7E70C4A4FF4AB
:10239000005111600B4A0C49D37040F203120A60DD
:1023A0004A600A4A13700A4A13700A4B1B680BB141
:1023B00001221A7008BD00BF34800440E893FF1F5B
:1023C00084E100E000A0064040A004406A94FF1FA2
:1023D000E993FF1FE493FF1F38B50446094B1B78B0
:1023E00003F0FF05002BF9D120460121FEF732FF53
:1023F00020462946FEF70EFF034B53F83420034BCB
:102400001A6038BDE893FF1FA04600006C94FF1FC0
:102410000D4A38B5146814F480624FF0000410D0EF
:1024200021280A4D0AD80A4A012152F830302B607F
:10243000FEF710FF2B681C70012038BD2C60204671
:1024400038BD104638BD00BF34800440E493FF1F00
:10245000A04600000E4B1B6813F4806316D01228B0
:102460000C4B03D140F202310B4A04E0142809D18D
:102470000A4A40F2023111605A7B42F001025A735B
:10248000012070475A7B02F0FE025A730020704709
:102490003480044000A006400CA0044014C0044056
:1024A000F8B51D4B1B685A05064633D51B4B1B68F8
:1024B0000BB101221A701A4B1C780134402C1F46B4
:1024C00028BF0024174D2B78A34218D1FEF754FEE5
:1024D00040280FDC144A13791B06F3D52B781349D7
:1024E0000133402B28BF0023C95CDBB2C9B2D171D4
:1024F0002B70E7E7FF28E5DDFFF7C8FCE2E70B4BB1
:10250000F6B21E550A4B01221A70074BE4B2BC22E8
:102510003C70DA70F8BD00BF348004406C94FF1F3B
:102520007094FF1F6B94FF1F00A00640EA93FF1FEB
:10253000E893FF1F274B1B685A052DE9F047074614
:102540008A4644D5244B1B680BB101221A703D46C4
:1025500007EB0A039D4237D2DFF890801F4E98F8B0
:10256000004096F800900134402C28BF00245FFA08
:1025700089F9A1451DD11A4BBC22DA70FEF7FCFD8A
:1025800040280FDC164A13791B060FD533781549FE
:102590000133402B28BF0023C95CDBB2C9B2D17123
:1025A000337003E0FF2801DDFFF770FC33784B4503
:1025B000E4D00C4B15F8012B1A550B4B0122E4B259
:1025C0001A7088F80040C3E7054BBC22DA70BDE8FA
:1025D000F08700BF348004406C94FF1F6B94FF1F92
:1025E00000A00640EA93FF1FE893FF1F7094FF1FAF
:1025F00008B5034B1B7813B1FFF748FCF9E708BD9A
:10260000E893FF1F064A074B1B781078DBB2C0B275
:1026100083422CBF3F3000F1FF30C01A704700BF2B
:102620006B94FF1F7094FF1F054B1878054B1B78A8
:10263000C0B2DBB2984238BF4030C01A704700BF0A
:102640006A94FF1FE993FF1F10B5104B10491A78C9
:102650000B78D2B2DBB29A4214D00133402B28BFA0
:1026600000230C48DCB2C05C0C700B490968C0B296
:1026700051B19A4238BF4032D31A1A2B04DC0023DE
:102680000B7010BD4FF0FF3010BD00BF6A94FF1FEC
:10269000E993FF1F2A94FF1FE493FF1F084B1A784A
:1026A000084B1B78DBB29A4207D00133402B28BF7E
:1026B0000023054AD05CC0B270474FF0FF3070472E
:1026C0006A94FF1FE993FF1F2A94FF1F0C4B1B689E
:1026D0005B0514D50B4BDA7802F0CB02DA7040229E
:1026E0005A74DA7842F03402DA70074B1A78074BE2
:1026F000D2B21A70064B1B680BB100221A707047D9
:102700003480044000A00640E993FF1F6A94FF1F35
:10271000E493FF1F30B5374B1A7912F0300F31D0E8
:1027200072B69A7D02F0FF0022B9DA7940225A741B
:1027300062B627E062B6304A304913780978DBB2D6
:10274000C9B214462B4AD5795A1C402A28BF002208
:102750008A42EDB202D02A4B9D541346421E12F01B
:10276000FF00EFD1DAB22270264A126852B18B42D2
:1027700036BFC1F14001C1EB03035B18272BC4BF77
:10278000012313701B4BD978C9B20C0620D51B79D5
:1027900018061DD51C4B1D4A1D781378EDB2DBB20F
:1027A0001046AB420CD0134A0133402B1479184C1D
:1027B00028BF0023E45CE4B2D471127D072AF0D96B
:1027C000DBB203700B4B1A79120644BF7C22DA701D
:1027D0004B060ED5074B1A7912F0400F194608D058
:1027E0000C4B00221A700C4B1B6803B11A703C236F
:1027F000CB7030BD00A006406A94FF1FE993FF1F15
:102800002A94FF1FE493FF1F7094FF1F6B94FF1F18
:10281000EA93FF1FE893FF1F6C94FF1F194B1A6880
:1028200042F400621A60184A00231370174A1370AA
:10283000174A1370174A1370174A1370174B40F258
:1028400013321A604FF451725A60154BC0F3443280
:102850001A70C0F347125A7000F01F0004220221C0
:1028600098729A70D9745A7588221A743C22DA7058
:102870000C4B40221A70A3F22B334FF400421A6023
:10288000704700BF34800440E294FF1F7994FF1F1B
:10289000E894FF1FE394FF1F7894FF1F0CB00440DF
:1028A00000B006402FE400E0134A937800F00301E3
:1028B00003F0EC030B43410748BF43F01003937050
:1028C00000F00F03042B0C4903D18B7943F0400334
:1028D0008B715379C20603F0EF03074A48BF43F0F8
:1028E000100353719379810603F0EF0348BF43F05F
:1028F00010039371704700BF00B0064008B5114B3C
:102900001B681B0500D408BD0F4B1A7802F0FF03AB
:1029100012B1FFF7BBFAF7E70C4A4FF40041116020
:102920000B4A0C49D37040F203120A604A600A4A0B
:1029300013700A4A13700A4B1B680BB101221A70FC
:1029400008BD00BF348004407894FF1F84E100E09C
:1029500000B006400CB00440E294FF1F7994FF1FC2
:102960007494FF1F38B50446094B1B7803F0FF052C
:10297000002BF9D120460121FEF76CFC20462946A8
:10298000FEF748FC034B53F83420034B1A6038BD64
:102990007894FF1FA0460000E494FF1F0D4A38B54D
:1029A000146814F400624FF0000410D021280A4D7E
:1029B0000AD80A4A012152F830302B60FEF74AFC4F
:1029C0002B681C70012038BD2C60204638BD104695
:1029D00038BD00BF348004407494FF1FA04600003F
:1029E0000B4B1B6813F4006310D01728094B09D157
:1029F000094A40F2023111605A7B42F001025A73D7
:102A0000012070475A7B02F0FE025A730020704783
:102A10003480044000B0064008B00440F8B51D4BB7
:102A20001B681A05064633D51B4B1B680BB10122E8
:102A30001A701A4B1C780134282C1F4628BF00241A
:102A4000174D2B78A34218D1FEF796FB40280FDCD8
:102A5000144A13791B06F3D52B7813490133282B1D
:102A600028BF0023C95CDBB2C9B2D1712B70E7E784
:102A7000FF28E5DDFFF70AFAE2E70B4BF6B21E5539
:102A80000A4B01221A70074BE4B2BC223C70DA7088
:102A9000F8BD00BF34800440E494FF1FE894FF1F9A
:102AA000E394FF1F00B006407A94FF1F7894FF1F45
:102AB000274B1B681A052DE9F04707468A4644D57F
:102AC000244B1B680BB101221A703D4607EB0A0329
:102AD0009D4237D2DFF890801F4E98F8004096F85C
:102AE00000900134282C28BF00245FFA89F9A14501
:102AF0001DD11A4BBC22DA70FEF73EFB40280FDCDA
:102B0000164A13791B060FD5337815490133282B44
:102B100028BF0023C95CDBB2C9B2D171337003E0B6
:102B2000FF2801DDFFF7B2F933784B45E4D00C4BB9
:102B300015F8012B1A550B4B0122E4B21A7088F8D4
:102B40000040C3E7054BBC22DA70BDE8F08700BF48
:102B500034800440E494FF1FE394FF1F00B006405C
:102B60007A94FF1F7894FF1FE894FF1F08B5034B6A
:102B70001B7813B1FFF78AF9F9E708BD7894FF1FB6
:102B8000064A074B1B781078DBB2C0B283422CBFD9
:102B9000273000F1FF30C01A704700BFE394FF1FD9
:102BA000E894FF1F054B1878054B1B78C0B2DBB2C9
:102BB000984238BF4030C01A704700BFE294FF1FF0
:102BC0007994FF1F10B5104B10491A780B78D2B2C8
:102BD000DBB29A4214D00133402B28BF00230C48AB
:102BE000DCB2C05C0C700B490968C0B251B19A42AA
:102BF00038BF4032D31A1A2B04DC00230B7010BDEF
:102C00004FF0FF3010BD00BFE294FF1F7994FF1F0B
:102C1000A294FF1F7494FF1F084B1A78084B1B786F
:102C2000DBB29A4207D00133402B28BF0023054A6C
:102C3000D05CC0B270474FF0FF307047E294FF1F86
:102C40007994FF1FA294FF1F0C4B1B681B0514D522
:102C50000B4BDA7802F0CB02DA7040225A74DA7841
:102C600042F03402DA70074B1A78074BD2B21A706E
:102C7000064B1B680BB100221A7070473480044069
:102C800000B006407994FF1FE294FF1F7494FF1F69
:102C900030B5374B1A7912F0300F31D072B69A7DB9
:102CA00002F0FF0022B9DA7940225A7462B627E0B6
:102CB00062B6304A304913780978DBB2C9B214469B
:102CC0002B4AD5795A1C402A28BF00228A42EDB2ED
:102CD00002D02A4B9D541346421E12F0FF00EFD142
:102CE000DAB22270264A126852B18B4236BFC1F165
:102CF0004001C1EB03035B18272BC4BF01231370F2
:102D00001B4BD978C9B20C0620D51B7918061DD5E6
:102D10001C4B1D4A1D781378EDB2DBB21046AB4256
:102D20000CD0134A0133282B1479184C28BF0023E8
:102D3000E45CE4B2D471127D072AF0D9DBB20370EF
:102D40000B4B1A79120644BF7C22DA704B060ED563
:102D5000074B1A7912F0400F194608D00C4B00228D
:102D60001A700C4B1B6803B11A703C23CB7030BD3A
:102D700000B00640E294FF1F7994FF1FA294FF1F4A
:102D80007494FF1FE894FF1FE394FF1F7A94FF1FC2
:102D90007894FF1FE494FF1F174B1A6842F4805287
:102DA0001A60164A00231370154A1370154A1370DF
:102DB000154A1370154A1370154A40F21331116009
:102DC0004FF451715160134AC0F344311170C0F394
:102DD000471100F01F0051709072937013742C23F0
:102DE000D3700D4B40226FF44B711A700B444FF4AB
:102DF00000321A60704700BF348004405A95FF1FAC
:102E0000F194FF1F6095FF1F5B95FF1FF094FF1F5C
:102E100008C0044000C0064031E400E0134A937843
:102E200000F0030103F0EC030B43410748BF43F0FC
:102E30001003937000F00F03042B0C4903D18B791E
:102E400043F040038B715379C20603F0EF03074A46
:102E500048BF43F0100353719379810603F0EF03E9
:102E600048BF43F010039371704700BF00C0064095
:102E700008B5114B1B68DB0400D408BD0F4B1A7852
:102E800002F0FF0312B1FFF701F8F7E70C4A4FF425
:102E9000003111600B4A0C49D37040F203120A60F2
:102EA0004A600A4A13700A4A13700A4B1B680BB136
:102EB00001221A7008BD00BF34800440F094FF1F47
:102EC00084E100E000C0064008C004405A95FF1F9E
:102ED000F194FF1FEC94FF1F38B50446094B1B7893
:102EE00003F0FF05002BF9D120460121FEF7B2F9CE
:102EF00020462946FEF78EF9034B53F83420034B46
:102F00001A6038BDF094FF1FA04600005C95FF1FBB
:102F10000D4A38B5146814F480524FF0000410D0F4
:102F200021280A4D0AD80A4A012152F830302B6074
:102F3000FEF790F92B681C70012038BD2C602046EC
:102F400038BD104638BD00BF34800440EC94FF1FEC
:102F5000A04600000B4B1B6813F4805310D00E28C2
:102F6000094B09D1094A40F2023111605A7B42F003
:102F700001025A73012070475A7B02F0FE025A7315
:102F8000002070473480044000C0064004C0044064
:102F9000F8B51D4B1B68DA04064633D51B4B1B687E
:102FA0000BB101221A701A4B1C780134282C1F46D1
:102FB00028BF0024174D2B78A34218D1FEF7DCF868
:102FC00040280FDC144A13791B06F3D52B781349DC
:102FD0000133282B28BF0023C95CDBB2C9B2D171F1
:102FE0002B70E7E7FF28E5DDFEF750FFE2E70B4B2C
:102FF000F6B21E550A4B01221A70074BE4B2AC22FE
:103000003C70DA70F8BD00BF348004405C95FF1F4F
:103010006095FF1F5B95FF1F00C00640F294FF1FE5
:10302000F094FF1F38B504464518AC4204D014F89C
:10303000010BFFF7ADFFF8E738BDFFFF08B5034B05
:103040001B7813B1FEF722FFF9E708BDF094FF1FCC
:10305000064A074B1B781078DBB2C0B283422CBF04
:10306000273000F1FF30C01A704700BF5B95FF1F8B
:103070006095FF1F054B1878054B1B78C0B2DBB27B
:10308000984238BF4030C01A704700BF5A95FF1FA2
:10309000F194FF1F10B5104B10491A780B78D2B27B
:1030A000DBB29A4214D00133402B28BF00230C48D6
:1030B000DCB2C05C0C700B490968C0B251B19A42D5
:1030C00038BF4032D31A1A2B04DC00230B7010BD1A
:1030D0004FF0FF3010BD00BF5A95FF1FF194FF1F46
:1030E0001A95FF1FEC94FF1F084B1A78084B1B78AA
:1030F000DBB29A4207D00133402B28BF0023054A98
:10310000D05CC0B270474FF0FF3070475A95FF1F38
:10311000F194FF1F1A95FF1F054B1A78054BD2B289
:103120001A70054B1B680BB100221A70704700BF64
:10313000F194FF1F5A95FF1FEC94FF1F10B5294B08
:103140001A79920620D5284AD8791378274901336D
:10315000402B097828BF00238B42C0B203D02449FA
:10316000C854D9B21170234A116869B1224A127841
:10317000D2B2934236BFC2F14002C2EB03039B18A6
:10318000272BC4BF01230B70164AD178C9B20C0695
:1031900016D51379180613D5184B17481C780378E1
:1031A000DBB29C4202D16C23D37009E00133282B9F
:1031B00028BF0023124CE45CDBB2E4B2D47103708C
:1031C0004B060ED5074B1A7912F0400F194608D05E
:1031D0000C4B00221A700C4B1B6803B11A702C2385
:1031E000CB7010BD00C006405A95FF1FF194FF1F21
:1031F0001A95FF1FEC94FF1F5B95FF1F6095FF1F43
:10320000F294FF1FF094FF1F5C95FF1F1FB572B66D
:10321000154B70221A70154A412111700F2102F8C6
:10322000011C80221A701A781206FCD5104B1868FF
:1032300062B6104B984298BF0A2301AC98BF58431E
:1032400021460A22FDF7B8FF0023E15C0A4A29B1B2
:1032500002EB430001330A2B4180F6D101335B00BE
:10326000137004B010BD00BF000002400700024010
:10327000080002407F969800FA87FF1F38B501804A
:1032800001EB41018DB2044645800371427128462D
:1032900000F064F9A06018B100212A4600F06AFC31
:1032A000204638BD10B5044601214079FDF7D2FF14
:1032B00060790021BDE81040FDF7ACBFF8B5836828
:1032C0000446002B00F08A80FDF7E0FFE368C01A97
:1032D0003128F9D972B6424B6179A26853F83100AE
:1032E000404B6788196841F0807119603E4B19683E
:1032F00041F001011960237913F0020F3B4B174491
:10330000196837D05A31BA422BD212F801CB0825AE
:103310008026D3F800E0C1EB0E0EBEF1590FF8D9AC
:1033200032494FF0010E16EA0C0F096880F880E070
:1033300007D0D3F800E0C1EB0E0EBEF1380FF8D97C
:1033400006E0D3F800E0C1EB0E0EBEF11B0FF8D97A
:103350004FF0010E013D80F800E126FA0EF6D8D1BB
:10336000D1E71A68521A592AFBD962B6FDF78EFFC7
:10337000E060F8BDB431BA422BD212F801CB082577
:103380008026D3F800E0C1EB0E0EBEF1B30FF8D9E2
:1033900016494FF0010E16EA0C0F096880F880E01C
:1033A00007D0D3F800E0C1EB0E0EBEF1550FF8D9EF
:1033B00006E0D3F800E0C1EB0E0EBEF1230FF8D902
:1033C0004FF0010E013D80F800E126FA0EF6D8D14B
:1033D000D1E71A68521AB32AFBD9C6E7F8BD00BF75
:1033E000A0460000FCED00E0001000E0041000E04A
:1033F00070B504889DF810508C4219D9847944B175
:1034000012FB04F213FB04F315FB04F5120A1B0A6A
:103410002D0A8668007901EB4101741810F0010F44
:1034200004F1020015BF735472546270637005702A
:1034300070BD03888B42F0B51BD98379C2F307476F
:10344000C2F30725D2B22BB15F435D435A433F0A13
:103450002D0A120A8668037901EB4101741813F0F2
:10346000010F04F1020315BF75547754677065703E
:103470001A70F0BD42EA012242EA0040704700881B
:1034800070474A1C8379D2B29A4270B51FD0013B73
:1034900013F0FF0384680CD0FF2904D14FF6FF71AD
:1034A00091FBF3F106E01102013991FBF3F189B2CE
:1034B00000E0194623461D1B4688ADB2AE4205D931
:1034C0001D784D432D1203F8015BF4E7827170BD46
:1034D00003460846194600F005B800BF00210A223D
:1034E00000F028BF10B40C461346014622460220C5
:1034F0005DF8044B00F02ABF70B50F4E0F4D761BE0
:10350000B61007D0043D0024013455F8043F984715
:10351000A642F9D10A4E0B4D761B01F08FFAB61078
:1035200008D0043D0024013455F8043F9847A642D2
:10353000F9D170BD70BD00BF484A0000484A000084
:10354000644A0000484A0000034B1B681844407856
:1035500000F00800704700BF4C90FF1F024B01466F
:10356000186800F00BB800BF388CFF1F024B0146F3
:10357000186800F0B5BF00BF388CFF1F2DE9F04F71
:1035800001F10B05162D83B0064627D935F0070546
:1035900027D4A94225D8304600F036FBB5F5FC7F8C
:1035A00026D2C14F4FEAD50C07EBCC03DC689C4216
:1035B00000F0D2816368E268A16823F0030323442A
:1035C00030465D68CA6045F0010591605D6000F0BD
:1035D0001DFB0834204603B0BDE8F08F1025A9423A
:1035E000D9D900240C232046336003B0BDE8F08F06
:1035F0005FEA552C00F08A80BCF1040F00F2608174
:103600004FEA951C0CF1380C4FEA4C01A64F07EB22
:103610008101CC68A14205D10CE0002B7ADAE46884
:10362000A14207D0626822F00302531B0F2BF4DD86
:103630000CF1FF3C0CF1010C9B4B3C6903F1080EB3
:10364000744500F07E81616821F003014A1B0F2A56
:1036500000F36481002AC3F814E0C3F810E06ADACA
:10366000B1F5007F80F03A81C90803EBC1004FEA51
:10367000A1085A688168A1604FF0010909FA08F8A9
:1036800048EA0202E0605A608460CC604FEAAC0312
:103690000120984090425BD8024206D12CF0030CE6
:1036A000400002420CF1040CFAD007EBCC0844466F
:1036B000E146E3689C4207D145E1002A80F2568149
:1036C000DB689C4200F03F81596821F003014A1BEE
:1036D0000F2AF2DD1C46D3F80CC054F8088F591994
:1036E00045F0010942F00105C3F804903046C8F8DE
:1036F0000CC0CCF8088079613961C1F80CE0C1F8E0
:1037000008E04D608A5000F081FA63E77E214FF0B7
:103710003F0C7BE72244E3685068A16840F0010554
:10372000CB6030469960556000F070FA083420464E
:1037300003B0BDE8F08F214430464B6843F00103ED
:103740004B6000F063FA0834204603B0BDE8F08F08
:10375000BC68636823F00309A94504D3C5EB0903DA
:103760000F2B00F39180514B514A196813680133B4
:1037700005EB010A04EB090B00F061810AF5805AA0
:103780000AF10F0A2AF47F6A2AF00F0A30465146DE
:10379000019200F02BFCB0F1FF3F8046019A00F04F
:1037A0000081834500F2FA80DFF810C1DCF80030B8
:1037B000C3455344CCF8003000F04A8112683C49BC
:1037C00001321BBFCBEB080B5B44C1F80080CCF887
:1037D000003018F0070300F01381C3F10802C3F5AD
:1037E000805390440833C244CAF30B0ACAEB030A5D
:1037F00051463046CDF804C000F0F8FB431CDDF81C
:1038000004C000F03581C8EB0002524442F00102CE
:10381000DCF80030C7F808805344BC42C8F80420E4
:10382000CCF80030DFF894A015D0B9F10F0F40F2BA
:10383000EA806168A9F10C0222F0070201F0010E92
:10384000A118052042EA0E0E0F2AC4F804E04860D1
:10385000886000F21181174ABC6811688B4288BFEA
:103860001360154A11688B4288BF1360626822F0AA
:1038700003029542C5EB020301D80F2B04DC30464E
:1038800000F0C4F90024A5E6621943F0010345F0F5
:10389000010565603046BA60536000F0B7F908343E
:1038A000204603B0BDE8F08F3C8CFF1F6C95FF1FD6
:1038B0004890FF1F6895FF1F6495FF1F7095FF1FBD
:1038C000BCF1140F61D9BCF1540F00F28F804FEAA4
:1038D000153C0CF16E0C4FEA4C0197E64B0A042B99
:1038E00058D9142B00F2AE8003F15B02500007EBB5
:1038F0008000DFF8BC818368834200F08A805A68C8
:1039000022F00302914202D29B689842F7D1D96813
:103910007A68E160A3608C60DC60B7E6611942F010
:10392000010745F001056560304659611961C1F82C
:103930000CE0C1F808E04F608A50083400F066F9E6
:1039400048E65A68A2E609F1010919F0030F04F1EB
:1039500008047FF4AEAE2DE004F108036469A342CD
:1039600008BF0CF1020C3FF467AE23E619441C4675
:103970004868DB6854F8082F40F001054D60304678
:10398000D3609A6000F042F924E60CF15B0C4FEA38
:103990004C013BE68A0938325000A8E7BC423FF4AC
:1039A00003AFBC68626822F0030262E7D8F80080C7
:1039B00098457BD11CF0030FA8F108030CF1FF3CE4
:1039C000F4D17B6823EA00037B60400098423FF615
:1039D000BFAE00283FF4BCAE0342CC467FF465AED8
:1039E000400003420CF1040CFAD05EE6BCF5AA7F5D
:1039F0001AD84FEAD53C0CF1770C4FEA4C0105E69A
:103A00004FF48053EFE60123C8F804304446002207
:103A10002FE791100120D8F8042000FA01F10A43A1
:103A2000C8F80420194674E740F254539C451BD84B
:103A30004FEA954C0CF17C0C4FEA4C01E6E50AF19B
:103A4000100AA3E6542B1FD80A0B6E3250004EE723
:103A5000CBF30B0100297FF4B1AE0AEB0901BA6880
:103A600041F001015160F6E6FC214FF07E0CCDE5FE
:103A700001224FF0000ACBE604F10801304600F0C5
:103A80002FFDDAF80030E6E6B3F5AA7F03D8CA0BBB
:103A9000773250002BE740F25452934203D88A0CFD
:103AA0007C32500023E7FC207E2220E77B688CE7F5
:103AB0003C8CFF1F8842F0B410D98C18A0420DD264
:103AC0008518531E42B121462A4611F8014D02F8CD
:103AD000014D013B5C1CF8D1F0BC70470F2A3FD967
:103AE00040EA01039B073FD1A2F110073F0900EB19
:103AF000071610360C46034625681D6065685D6034
:103B0000A5689D60E568DD601033B34204F11004E0
:103B1000F2D17B1C02F00F0C1B01BCF1030F194406
:103B2000034423D90E461D466446043C56F8047BE4
:103B300045F8047B032CF8D8ACF1040424F003040A
:103B4000043402F0030223442144002AC4D01A445E
:103B500011F8014B03F8014B9342F9D1F0BC7047C7
:103B60000346002AF3D1B7E70346F0E76246002A8E
:103B7000EDD1B1E7F0B4840743D0541E002A3ED003
:103B8000CDB2034603E0621E002C38D0144603F881
:103B9000015B9A07F7D1032C2AD9CDB245EA052556
:103BA0000F2C45EA054515D9A4F110073F0903F18B
:103BB000100606EB07161A46156055609560D5602D
:103BC0001032B242F8D104F00F040137032C03EB9A
:103BD00007130DD91E462246043A032A46F8045B11
:103BE000FAD8221F22F003020432134404F0030423
:103BF0002CB1C9B21C4403F8011BA342FBD1F0BC99
:103C0000704714460346C6E7704700BF704700BFC1
:103C1000024B0A460146186800F002B8388CFF1FB4
:103C20002DE9F04F0C4683B090468146002900F004
:103C3000E280FFF7E9FF08F10B0654F8043C162E6A
:103C400023F00305A4F108074BD810210E46B04518
:103C50004CD88D4278DADFF890B3DBF808E07819B9
:103C6000864500F0CE80426822F0010C8444DCF8E6
:103C700004C01CF0010F7AD000221046DB0700F1CF
:103C8000928054F8083CC3EB070ADAF8043023F0BA
:103C900003032B4488B3704500F0ED8002EB030E64
:103CA0008E452ADBC36882685746D3609A6057F80E
:103CB000081FDAF80C30CB602A1F242A996000F222
:103CC0002681132A40F2B3802368CAF8083063685B
:103CD000CAF80C301B2A00F2308108340AF11003B4
:103CE000A6E026F00706002E3146B0DA0C230020AD
:103CF000C9F8003003B0BDE8F08F8B4253DB574664
:103D0000DAF80C1057F8080F2A1F242AC1608860BF
:103D100000F20981132A40F204812168CAF80810D0
:103D20006168CAF80C101B2A00F21C8108340AF1E1
:103D300010022168116061685160A16891601D46A0
:103D4000DAF804303C465746AA1B0F2A03F0010359
:103D500019D82B433D447B606B6843F001036B60D3
:103D60004846FFF753FF204603B0BDE8F08F22F02E
:103D7000030202EB050C8C4580DBC2688168654656
:103D8000CA609160E0E7B91942F001001E430A449D
:103D90007E604860536843F0010308315360484631
:103DA00000F09EFBDCE741464846FFF7E7FB804614
:103DB000D0B154F8043C23F001023A44A0F10801C8
:103DC000914200F09E802A1F242A50D8132A23D81B
:103DD00003462246116819605168596092689A60DA
:103DE0002146484600F07CFB4846FFF70FFF40465F
:103DF00003B0BDE8F08F114603B0BDE8F04FFFF708
:103E0000BDBBDEF8042022F00302501906F1100CAD
:103E1000604519DA704631E72368036063684360E0
:103E20001B2A63D800F1080304F10802D2E73B46DD
:103E300022681A6062685A60A2689A603C467546B9
:103E4000DAF8043057467FE73744831B43F0010319
:103E5000CBF808707B6054F8043C03F001031E4368
:103E6000484644F8046CFFF7D1FE20467CE7214623
:103E7000FFF720FEB4E702EB030C06F110029445B5
:103E8000FFF63BAF5746DAF80C3057F8081F2A1FE9
:103E9000242ACB60996000F28780132A78D923689E
:103EA000CAF808306368CAF80C301B2A00F2858013
:103EB00008340AF1100322681A6062685A60A26826
:103EC0009A600AEB0603C6EB0C0242F00102CBF843
:103ED00008305A60DAF8043003F001031E43484604
:103EE000CAF80460FFF792FE38463DE7A368836096
:103EF000E368C360242A2CD000F1100304F11002FF
:103F000068E750F8042C22F0030215441CE7214610
:103F1000384675463C46FFF7CDFD5746DAF8043083
:103F200012E73A4605E7214638461D463C46FFF76C
:103F3000C1FD5746DAF8043006E7A368CAF8103026
:103F4000E368CAF81430242A18D010340AF1180390
:103F50006EE7236903616369436104F1180200F1AC
:103F6000180337E7A168CAF81010E168CAF81410FE
:103F7000242A0FD010340AF11802DAE62369CAF8AD
:103F800018306369CAF81C3018340AF120034FE76F
:103F90003B4690E72269CAF818206269CAF81C20DB
:103FA00018340AF12002C4E621463846CDF804C090
:103FB000FFF780FDDDF804C083E7A368CAF810307E
:103FC000E368CAF81430242A03D010340AF1180325
:103FD00071E72369CAF818306369CAF81C301834CD
:103FE0000AF1200367E700BF3C8CFF1F38B5074C80
:103FF0000023054608462360FDF7B6F8431C00D0B1
:1040000038BD2368002BFBD02B6038BDAC95FF1F5B
:10401000C9B2F0B4002947D085070FD00278002A32
:104020003FD091423ED0431C05E013F8012B002AFB
:1040300037D0914236D09A071846F6D1036841EA44
:10404000012747EA074783EA0702A2F10135A3F1F6
:10405000013425EA020224EA0303134313F0803FEC
:1040600011D1021D104652F8043B83EA0704A4F163
:104070000136A3F1013526EA040425EA03032343AC
:1040800013F0803FEED00378002B39D0994209D04D
:10409000431C01E0914205D0184613F8012B002A79
:1040A000F8D11046F0BC704784070BD00378002B82
:1040B000F8D0431C03E002780133002AF2D09907BC
:1040C0001846F8D10368A3F1013222EA030313F082
:1040D000803F0AD1031D184653F8042BA2F1013189
:1040E00021EA020212F0803FF5D00378002BD9D0EC
:1040F000431C184601330278002AFAD1F0BC7047FD
:104100001846CFE780EA0102844612F0030F4FD130
:1041100011F0030F32D14DF8044D11F0040F51F896
:10412000043B0BD0A3F101329A4312F0803F04BF4D
:104130004CF8043B51F8043B16D100BF51F8044B36
:10414000A3F101329A4312F0803FA4F101320BD166
:104150004CF8043BA24312F0803F04BF51F8043BEB
:104160004CF8044BEAD023460CF8013B13F0FF0F48
:104170004FEA3323F8D15DF8044B704711F0010F7B
:1041800006D011F8012B0CF8012B002A08BF70474C
:1041900011F0020FBFD031F8022B12F0FF0F16BF43
:1041A0002CF8022B8CF8002012F47F4FB3D170470B
:1041B00011F8012B0CF8012B002AF9D1704700BF30
:1041C00020F0030110F00300C0F1000051F8043B9F
:1041D00000F1040C4FEACC0C6FF000021CBF22FA75
:1041E0000CF213434FF0010C4CEA0C2C4CEA0C4C33
:1041F000A3EB0C0222EA030212EACC1204BF51F82C
:10420000043B0430F4D013F0FF0F1FBF013013F450
:104210007F4F013013F47F0F18BF0130704700BF8C
:104220002DE9F00F424C82B0D4F800C001900E4648
:1042300000E02646344614F8015B0CEB050040789C
:1042400000F0080000F0FF0A0028F2D12D2D5BD00D
:104250002B2D04BF7578B41C33F010003CD0994668
:10426000BAF1000F0CBF6FF0004B4FF0004BBBFBDF
:10427000F9F8002709FB18BB38460CE0303DAB428B
:1042800019DD7E1C05D0404523D820D009FB005005
:10429000012714F8015B0CEB0506767816F0040F85
:1042A000ECD116F0030606D0012E14BF5726372690
:1042B000AD1BAB42E5DC7B1C15D0BAF1000F21D160
:1042C0000AB1EFB9116002B0BDE8F00F70475D456B
:1042D000DCDD4FF0FF37DCE7302D1AD0002BBED1EC
:1042E0000A239946BCE70199BAF1000F4FF0220367
:1042F0000CBF6FF000404FF000400B60002AE2D08E
:10430000611EDFE74042DBE7B41C75784FF0010A1D
:10431000A2E7207800F0DF00582803D0002B9ED1C0
:1043200008239CE7102365789946023498E700BF7C
:104330004C90FF1F30B4044C0D46134601462A46EC
:10434000206830BCFFF76CBF388CFF1FF0B5274CDE
:104350002668D6F8484185B00746002C41D06568EC
:104360001F2D1EDD224818B94FF0FF3005B0F0BDFB
:104370004FF4C870039102920193FFF7EFF803998D
:10438000029A019B04460028EED0D6F848512560D9
:10439000002060600546C6F84841C4F88801C4F8AA
:1043A0008C013FB9AB1C00200135656044F8231037
:1043B00005B0F0BD04EB85004FF0010CC0F888207B
:1043C000D4F888610CFA05F21643022FC4F888610C
:1043D000C0F80831E6D1D4F88C311A43C4F88C21E6
:1043E000E0E706F5A674C6F84841B8E7344900008E
:1043F0005D350000024B13B1024800F005B870476C
:10440000000000001544000001460020024603465B
:10441000FFF79CBF38B5094D094C641BA41018BFA9
:1044200005EB840505D0013C55F8043D9847002C68
:10443000F9D1BDE8384000F015BB00BF0000000016
:1044400000000000F8B5234D0F460446FFF7DCFBE3
:10445000AB685E6826F00306F11B01F6EF7121F4EC
:104460007F6121F00F01A1F58057B7F5805F07DB71
:1044700020460021FFF7BAFDAB683344984204D0D0
:104480002046FFF7C3FB0020F8BD20467942FFF726
:10449000ADFD01300DD0104BAA681968F61B46F02F
:1044A00001062046C91B56601960FFF7AFFB0120CB
:1044B000F8BD20460021FFF799FDAB68C21A0F2A0C
:1044C000DEDD064D04492D6842F00102401B5A60B2
:1044D0000860D5E73C8CFF1F7095FF1F4890FF1FB9
:1044E0002DE9F0410D460646002955D0FFF78CFB1B
:1044F00055F8041CDFF874C121F00103A5F108048C
:10450000E218DCF808005768904227F0030769D0EA
:1045100011F00101576032D00021D0194068C00766
:1045200006D43B44906800294ED0D268C2609060A7
:1045300043F001026260E350E1B9B3F5007F2DD38F
:104540005A0A042A6AD89809383041000CEB810CC9
:104550004649DCF80820624566D0516821F0030125
:104560008B4202D292689445F7D1D368E360A2608F
:104570009C60D4603046BDE8F041FFF747BB55F87A
:10458000085C641B0CF10808A06840452B4443D02C
:10459000E568C560A860C0E7BDE8F081DB080CEB0A
:1045A000C3020125DCF804009168A1609B1005FAA4
:1045B00003F31843E260CCF8040094603046CC600A
:1045C000BDE8F041FFF722BB294DA842ADD143F031
:1045D0000102CCF81440CCF81040E060A0606260AA
:1045E000E350C7E71F44CB0707D455F8083CE41A4B
:1045F0001F44A268E368D3609A601E4B1B6847F0B3
:1046000001029F426260CCF80840B3D31A4B304697
:104610001968FFF717FFADE701217EE7142A0CD8D0
:1046200002F15B00410091E74B688010012505FA1B
:1046300000F003434B60134698E7542A03D8180B45
:104640006E30410082E7B2F5AA7F03D8D80B7730ED
:1046500041007BE740F254518A4203D8980C7C30E9
:10466000410073E7FC217E2070E700BF3C8CFF1FF8
:10467000448CFF1F4490FF1F6C95FF1F536574759A
:104680007000636F6C6F7220706172616D73206176
:1046900072653A20006D6173746572000D0AFFFF48
:1046A0004008FE4340A004404408FE4344A00440A8
:1046B0000018FE4300C004403000FE433090044028
:1046C0003400FE43349004401C18FE431CC00440D8
:1046D0001018FE4310C004400818FE4308C00440F0
:1046E0000C18FE430CC004400C10FE430CB00440F8
:1046F0001010FE4310B004401810FE4318B00440E0
:104700001C10FE431CB004401410FE4314B00440BF
:104710000418FE4304C004400010FE4300B00440EF
:104720000008FE4300A004400408FE4304A0044027
:104730000C08FE430CA004400808FE4308A00440F7
:104740001418FE4314C004401818FE4318C0044057
:104750000410FE4304B004400810FE4308B00440B7
:104760001400FE43149004404C08FE434CA0044047
:104770000420FE4304D004402410FE4324B004402F
:104780002010FE4320B004402810FE4328B004400F
:104790002C10FE432CB004400020FE4300D0044007
:1047A0004808FE4348A004401000FE431090044017
:1047B0000000000000000000B51B0000BB1B000053
:1047C000A51B0000A91B0000AD1B0000B11B0000D1
:1047D0000000000000000000731F00008B1F00009D
:1047E0005B1F0000631F00005F1F0000671F0000C9
:1047F000FD1E0000111F0000311F0000351F0000CA
:104800003B1F00004B1F00006B1F00006F1F0000CC
:10481000CD1E0000D91E0000E51E0000F11E0000A4
:104820009B1F00007F1F0000000000000000000030
:10483000772000008F2000005F200000672000002C
:10484000632000006B200000012000001520000004
:1048500035200000392000003F2000004F200000DC
:104860006F20000073200000D11F0000DD1F00003A
:10487000E91F0000F51F00009F20000083200000BA
:1048800000000000000000007B21000093210000D8
:10489000632100006B210000672100006F210000F0
:1048A0000521000019210000392100003D210000F0
:1048B00043210000532100007321000077210000F4
:1048C000D5200000E1200000ED200000F9200000CC
:1048D000A321000087210000001519150001000028
:1048E0007287FF1F12000000000200009C87FF1F5C
:1048F0004300000000030000F687FF1F00000000D7
:10490000010309048487FF1F00000000020309045B
:10491000E087FF1F0000000003030904FA87FF1F60
:104920000000000000000000000000000000000087
:10493000430000001088FF1F00202020202020209E
:10494000202028282828282020202020202020203F
:10495000202020202020202020881010101010104F
:10496000101010101010101010040404040404049B
:104970000404041010101010101041414141414135
:104980000101010101010101010101010101010117
:104990000101010110101010101042424242424227
:1049A00002020202020202020202020202020202E7
:1049B000020202021010101020000000000000008F
:1049C00000000000000000000000000000000000E7
:1049D00000000000000000000000000000000000D7
:1049E00000000000000000000000000000000000C7
:1049F00000000000000000000000000000000000B7
:104A000000000000000000000000000000000000A6
:104A10000000000000000000000000000000000096
:104A20000000000000000000000000000000000086
:104A3000000000000000000000000000F8B500BF0A
:104A4000F8BC08BC9E467047F543000035040000E2
:104A5000690B0000C51B0000B51F0000B920000055
:044A6000BD21000074
:044A6400F8B500BFE2
:084A680068EAFF7F0100000075
:104A700000000000010A0101B095FF1FFFFFFFFFCA
:104A80000A041201000202000040C0168304000163
:104A90000102030118035400650065006E007300F5
:104AA00079006400750069006E006F000902430020
:104AB000020100C0320904000001020201000524C5
:104AC000001001052401010104240206052406004A
:104AD000010705820310004009040100020A0000DA
:104AE00000070503024000000705840240000000A3
:104AF0001603550053004200200053006500720069
:104B0000690061006C00040309040C03000000004C
:104B10000000000000000000000000000000000095
:104B200000000000FC8AFF1F648BFF1FCC8BFF1F5F
:104B30000000000000000000000000000000000075
:104B40000000000000000000000000000000000065
:104B500000000000304900000000000000000000DC
:104B60000000000000000000000000000000000045
:104B70000000000000000000000000000000000035
:104B80000000000000000000000000000000000025
:104B90000000000000000000000000000000000015
:104BA0000000000000000000000000000000000005
:104BB00000000000000000000000000000000000F5
:104BC00000000000000000000100000000000000E4
:104BD0000E33CDAB34126DE6ECDE05000B000000A9
:104BE00000000000000000000000000000000000C5
:104BF00000000000000000000000000000000000B5
:104C000000000000000000000000000000000000A4
:104C10000000000000000000000000000000000094
:104F400000000000000000001088FF1F00000000AB
:104F5000000000003C8CFF1F3C8CFF1F448CFF1F97
:104F6000448CFF1F4C8CFF1F4C8CFF1F548CFF1F69
:104F7000548CFF1F5C8CFF1F5C8CFF1F648CFF1F19
:104F8000648CFF1F6C8CFF1F6C8CFF1F748CFF1FC9
:104F9000748CFF1F7C8CFF1F7C8CFF1F848CFF1F79
:104FA000848CFF1F8C8CFF1F8C8CFF1F948CFF1F29
:104FB000948CFF1F9C8CFF1F9C8CFF1FA48CFF1FD9
:104FC000A48CFF1FAC8CFF1FAC8CFF1FB48CFF1F89
:104FD000B48CFF1FBC8CFF1FBC8CFF1FC48CFF1F39
:104FE000C48CFF1FCC8CFF1FCC8CFF1FD48CFF1FE9
:104FF000D48CFF1FDC8CFF1FDC8CFF1FE48CFF1F99
:10500000E48CFF1FEC8CFF1FEC8CFF1FF48CFF1F48
:10501000F48CFF1FFC8CFF1FFC8CFF1F048DFF1FF7
:10502000048DFF1F0C8DFF1F0C8DFF1F148DFF1FA4
:10503000148DFF1F1C8DFF1F1C8DFF1F248DFF1F54
:10504000248DFF1F2C8DFF1F2C8DFF1F348DFF1F04
:10505000348DFF1F3C8DFF1F3C8DFF1F448DFF1FB4
:10506000448DFF1F4C8DFF1F4C8DFF1F548DFF1F64
:10507000548DFF1F5C8DFF1F5C8DFF1F648DFF1F14
:10508000648DFF1F6C8DFF1F6C8DFF1F748DFF1FC4
:10509000748DFF1F7C8DFF1F7C8DFF1F848DFF1F74
:1050A000848DFF1F8C8DFF1F8C8DFF1F948DFF1F24
:1050B000948DFF1F9C8DFF1F9C8DFF1FA48DFF1FD4
:1050C000A48DFF1FAC8DFF1FAC8DFF1FB48DFF1F84
:1050D000B48DFF1FBC8DFF1FBC8DFF1FC48DFF1F34
:1050E000C48DFF1FCC8DFF1FCC8DFF1FD48DFF1FE4
:1050F000D48DFF1FDC8DFF1FDC8DFF1FE48DFF1F94
:10510000E48DFF1FEC8DFF1FEC8DFF1FF48DFF1F43
:10511000F48DFF1FFC8DFF1FFC8DFF1F048EFF1FF2
:10512000048EFF1F0C8EFF1F0C8EFF1F148EFF1F9F
:10513000148EFF1F1C8EFF1F1C8EFF1F248EFF1F4F
:10514000248EFF1F2C8EFF1F2C8EFF1F348EFF1FFF
:10515000348EFF1F3C8EFF1F3C8EFF1F448EFF1FAF
:10516000448EFF1F4C8EFF1F4C8EFF1F548EFF1F5F
:10517000548EFF1F5C8EFF1F5C8EFF1F648EFF1F0F
:10518000648EFF1F6C8EFF1F6C8EFF1F748EFF1FBF
:10519000748EFF1F7C8EFF1F7C8EFF1F848EFF1F6F
:1051A000848EFF1F8C8EFF1F8C8EFF1F948EFF1F1F
:1051B000948EFF1F9C8EFF1F9C8EFF1FA48EFF1FCF
:1051C000A48EFF1FAC8EFF1FAC8EFF1FB48EFF1F7F
:1051D000B48EFF1FBC8EFF1FBC8EFF1FC48EFF1F2F
:1051E000C48EFF1FCC8EFF1FCC8EFF1FD48EFF1FDF
:1051F000D48EFF1FDC8EFF1FDC8EFF1FE48EFF1F8F
:10520000E48EFF1FEC8EFF1FEC8EFF1FF48EFF1F3E
:10521000F48EFF1FFC8EFF1FFC8EFF1F048FFF1FED
:10522000048FFF1F0C8FFF1F0C8FFF1F148FFF1F9A
:10523000148FFF1F1C8FFF1F1C8FFF1F248FFF1F4A
:10524000248FFF1F2C8FFF1F2C8FFF1F348FFF1FFA
:10525000348FFF1F3C8FFF1F3C8FFF1F448FFF1FAA
:10526000448FFF1F4C8FFF1F4C8FFF1F548FFF1F5A
:10527000548FFF1F5C8FFF1F5C8FFF1F648FFF1F0A
:10528000648FFF1F6C8FFF1F6C8FFF1F748FFF1FBA
:10529000748FFF1F7C8FFF1F7C8FFF1F848FFF1F6A
:1052A000848FFF1F8C8FFF1F8C8FFF1F948FFF1F1A
:1052B000948FFF1F9C8FFF1F9C8FFF1FA48FFF1FCA
:1052C000A48FFF1FAC8FFF1FAC8FFF1FB48FFF1F7A
:1052D000B48FFF1FBC8FFF1FBC8FFF1FC48FFF1F2A
:1052E000C48FFF1FCC8FFF1FCC8FFF1FD48FFF1FDA
:1052F000D48FFF1FDC8FFF1FDC8FFF1FE48FFF1F8A
:10530000E48FFF1FEC8FFF1FEC8FFF1FF48FFF1F39
:10531000F48FFF1FFC8FFF1FFC8FFF1F0490FF1FE8
:105320000490FF1F0C90FF1F0C90FF1F1490FF1F95
:105330001490FF1F1C90FF1F1C90FF1F2490FF1F45
:105340002490FF1F2C90FF1F2C90FF1F3490FF1FF5
:105350003490FF1F00000200FFFFFFFF38490000EC
:00000001FF
