:100000005EC0000083C0000081C000007FC000000F
:100010007DC000007BC0000079C0000077C00000F8
:1000200075C0000073C0000071C000006FC0000008
:100030006DC000006BC0000069C0000067C0000018
:10004000F5C6000063C000006DC500009DC500003E
:100050005DC000005BC0000059C0000057C0000038
:1000600055C0000053C0000000000008000201005D
:100070000003040700000000000000000102040863
:100080001020408001020408102001020408102002
:10009000040404040404040402020202020203032E
:1000A0000303030300000000250028002B000000CC
:1000B0000000240027002A002003F2053803112441
:1000C0001FBECFEFD8E0DEBFCDBF12E0A0E0B1E0B1
:1000D000E0E8FCE102C005900D92A036B107D9F727
:1000E00024E0A0E6B2E001C01D92AF33B207E1F711
:1000F00010E0CCEBD0E004C02297FE010E94F80B88
:10010000C83BD107C9F787D60C94340E79CF0F932B
:100110001F93CF93DF93EC01798368835B834A83DA
:1001200080E190E082D68C016881798123E04A8168
:1001300057D71D830C831886DF91CF911F910F91A4
:100140000895CF92DF92EF92FF920F931F93CF9378
:10015000DF937C01162FD42EC22EC0E0D0E0F70131
:1001600080819181C817D9077CF40C2D2D2D412F4A
:10017000BE01F701848195810E94F208F701848114
:1001800095816FD72196EBCFDF91CF911F910F9182
:10019000FF90EF90DF90CF90089580936602609378
:1001A00067024093680280936F02609370024093ED
:1001B000710208958091C9029091CA02CC97FCF017
:1001C0008091C5029091C602CC97CCF48091AF0289
:1001D0008823A9F08091AC02811111C040E060E059
:1001E0008FEFDBDF1092AF021092AD0281E08093BF
:1001F000AC021092AB0266E385E993E07FD5809173
:10020000C5029091C602CC97F4F08091C9029091FA
:10021000CA02CC97C4F48091AF028823A1F08091E8
:10022000AD02811110C040E06FEFB7DF1092AF0256
:1002300081E08093AD021092AC021092AB0265E3B4
:1002400085E993E05BD58091C5029091C602CC9779
:10025000FCF48091C9029091CA02CC97CCF48091B1
:10026000AF028823A9F08091AB02811111C040E058
:1002700060EA8FEF92DF1092AF021092AD021092FF
:10028000AC0281E08093AB0264E385E993E036C57C
:1002900008958091BD029091BE02A091BF02B091DD
:1002A000C00286349105A105B10530F18091B502F7
:1002B0009091B602A091B702B091B8028634910530
:1002C000A105B105C8F48091AF028823A9F08091FF
:1002D000A902811111C040E060E08FEF5EDF109253
:1002E000AF021092AA0281E08093A9021092A802A4
:1002F00063E385E993E002D58091B5029091B6025F
:10030000A091B702B091B80286349105A105B1055C
:1003100028F18091BD029091BE02A091BF02B091E0
:10032000C00286349105A105B105C0F48091AF02E9
:100330008823A1F08091AA02811110C040E06FEFE4
:100340002CDF1092AF0281E08093AA021092A902E2
:100350001092A80262E385E993E0D0D48091B502BF
:100360009091B602A091B702B091B802863491057F
:10037000A105B10530F58091BD029091BE02A0911A
:10038000BF02B091C00286349105A105B105C8F441
:100390008091AF028823A9F08091A802811111C039
:1003A00040E060EA8FEFF9DE1092AF021092AA02ED
:1003B0001092A90281E08093A80261E385E993E0AD
:1003C0009DC40895CF93DF93EB01CC0FDD1FCC0FBD
:1003D000DD1FFE01E057FD4FAA2797FDA095BA2F1C
:1003E00080839183A283B3836BD5C858DD4F688324
:1003F00079838A839B83DF91CF910895CF93DF9395
:1004000026E040E051EE60E070E085E993E02AD319
:10041000C0E6D2E08C819D8124D68C819D8116D648
:100420006FEF8C819D8154D720E04FEF60E0CE01CB
:1004300088DE8C819D8115D6299682E0C237D80747
:1004400049F760ED77E080E090E069D54FEF6FEF1E
:100450008FEFA3DE60E070E088EB9BE0B3DF61E04C
:1004600070E088E893E1AEDF62E070E084EF91E055
:10047000A9DF67E071E085E993E0DF91CF9133C4B4
:100480000F931F93CF93DF93EC011AD5AE01440F66
:10049000551F440F551FEA01C858DD4F08811981C7
:1004A0002A813B81601B710B820B930BFA01E05791
:1004B000FD4F00811181228133816017710782070E
:1004C000930738F0FDD4688379838A839B8381E026
:1004D00001C080E0DF91CF911F910F9108952F927D
:1004E0003F925F926F927F928F929F92AF92BF9254
:1004F000CF92DF92EF92FF920F931F93CF93DF93F0
:10050000E12CF12C29E0289FE001299FD00D112436
:10051000C05ADD4F3E0186E0680E711C4E01A7E017
:100520008A0E911C5E01B8E0AB0EB11C55245394A9
:100530008C819D81C9D6E816F9060CF06FC0B70111
:100540008C819D8183D6482F50E0272F30E0062FE5
:1005500010E0E0910601F0E0D301CC90D12CC6016F
:10056000841B950B97FF03C0919581959109E8171E
:10057000F9074CF44C155D051CF44E0F5F1F04C0C9
:100580004E1B5F0B01C0A601D4012C90312CC10180
:10059000821B930B97FF03C0919581959109E817F2
:1005A000F9074CF4221533051CF42E0F3F1F04C02D
:1005B0002E1B3F0B01C09101D5018C9190E0BC0135
:1005C000601B710B77FF03C0719561957109E61788
:1005D000F7074CF4081719071CF40E0F1F1F04C06F
:1005E0000E1B1F0B01C08C014C155D0561F422151B
:1005F000330549F40817190731F48091AF028111CE
:1006000002C05092AF02B7018C819D81EBD58C81E5
:100610009D8127D5BFEFEB1AFB0A8ACFDF91CF91DF
:100620001F910F91FF90EF90DF90CF90BF90AF9010
:100630009F908F907F906F905F903F902F90089544
:1006400065E973E08BEC92E0A8D66FE171E082E798
:1006500092E0CBD349E050E068E070E080E692E0C1
:1006600056DD42E050E068E070E089E692E04FCD70
:1006700082E792E053C3CF92DF92EF92FF92CF9343
:10068000DF9385E993E00ED1181619060CF0E1C04E
:100690008BEC92E01FD7882309F4DBC082E090E066
:1006A000EFDE882371F08BEC92E0A8D790E0909376
:1006B000C2028093C10221E0892B09F020E020933F
:1006C000B0028BEC92E09FD790E09093CA028093A7
:1006D000C9028BEC92E09CD7C82FD0E0D093C60221
:1006E000C093C5026091CB027091CC028091CD0283
:1006F0009091CE0244E6C42ED12CE12CF12CA7011E
:1007000096010E94B80B6093BD027093BE02809365
:10071000BF029093C0026091CF027091D00280918D
:10072000D1029091D202A70196010E94B80B60936A
:10073000B5027093B6028093B7029093B80280918D
:10074000B002882389F18091AF02882369F1109269
:10075000B0022091C9023091CA028091C7029091E3
:10076000C8022817390741F48091C3029091C4024E
:10077000C817D90709F46DC080E090E081DE8823B6
:1007800009F467C017DD8091C9029091CA02909365
:10079000C8028093C7028091C5029091C6029093CF
:1007A000C4028093C30255C08BEC92E027D7882304
:1007B00009F44FC08091AF02882309F44AC04091E8
:1007C000BD025091BE026091BF027091C002809143
:1007D000B9029091BA02A091BB02B091BC02481735
:1007E00059076A077B07A9F04091B5025091B602FC
:1007F0006091B7027091B8028091B1029091B202FB
:10080000A091B302B091B402481759076A077B0759
:10081000D1F58091BD029091BE02A091BF02B0912E
:10082000C0028093B9029093BA02A093BB02B09326
:10083000BC028091B5029091B602A091B702B0912E
:10084000B8028093B1029093B202A093B302B09326
:10085000B4028091AF0281110AC080910601882301
:1008600031F080E090E03BDE81E090E038DE809186
:10087000AF02882381F08091AE0281110CC081E02B
:100880008093AE0208C081E090E0FADD882309F48D
:10089000C0CFFFDCBECFDF91CF91FF90EF90DF9014
:1008A000CF900895FC01818D228D90E0805C9F4F58
:1008B000821B91098F7399270895FC01918D828D78
:1008C000981731F0828DE80FF11D858D90E0089525
:1008D0008FEF9FEF0895FC01918D828D981761F045
:1008E000828DDF01A80FB11D5D968C91928D9F5F67
:1008F0009F73928F90E008958FEF9FEF089589EE98
:1009000095E0892B41F080E090E0892B21F061D1C6
:1009100081110C9400000895FC01848DDF01A80F63
:10092000B11DA35ABF4F2C91848D90E001968F7317
:100930009927848FA689B7892C93A089B1898C9136
:1009400080648C93938D848D981306C00288F389FC
:10095000E02D80818F7D80830895CF93DF93EC011C
:10096000888D8823C1F0EA89FB89808185FD05C0D7
:10097000A889B9898C9186FD0EC00FB607FCF5CF0A
:10098000808185FFF2CFA889B9898C9185FFEDCF51
:10099000CE01C2DFE8CFDF91CF910895CF92DF92F1
:1009A000FF920F931F93CF93DF931F92CDB7DEB7C4
:1009B0006C0181E0D60158968C9358975B969C9178
:1009C0005B975C968C915C97981307C05096ED915D
:1009D000FC915197808185FD2DC0F601038D10E0BB
:1009E0000F5F1F4F0F731127F02EF601848DF81241
:1009F00010C00FB607FCF9CFD6015096ED91FC91CF
:100A00005197808185FFF1CFC601698385DF6981B8
:100A1000ECCF838DE80FF11DE35AFF4F6083D601C1
:100A20005B960C935B975296ED91FC915397808166
:100A300080620CC0D6015696ED91FC915797608369
:100A40005096ED91FC91519780818064808381E084
:100A500090E00F90DF91CF911F910F91FF90DF9069
:100A6000CF900895BF92CF92DF92EF92FF92CF93F3
:100A7000DF93EC016A017B01B22EE889F98982E0FB
:100A80008083411581EE58076105710599F060E09A
:100A900079E08DE390E0A70196016AD621503109F3
:100AA000410951095695479537952795211580E1BC
:100AB000380790F0E889F989108260E874E88EE1DF
:100AC00090E0A701960154D62150310941095109FE
:100AD0005695479537952795EC85FD853083EE85AE
:100AE000FF852083188EEC89FD89B082EA89FB8915
:100AF000808180618083EA89FB898081886080832E
:100B0000EA89FB89808180688083EA89FB8980810A
:100B10008F7D8083DF91CF91FF90EF90DF90CF901A
:100B2000BF9008951F920F920FB60F9211242F932A
:100B30008F939F93EF93FF93E091A503F091A6030A
:100B40008081E091AB03F091AC0382FD12C09081F3
:100B50008091AE038F5F8F732091AF03821751F0A6
:100B6000E091AE03F0E0EB56FC4F958F8093AE031F
:100B700001C08081FF91EF919F918F912F910F90F4
:100B80000FBE0F901F9018951F920F920FB60F92E5
:100B900011242F933F934F935F936F937F938F9382
:100BA0009F93AF93BF93EF93FF9385E993E0B4DEF8
:100BB000FF91EF91BF91AF919F918F917F916F9135
:100BC0005F914F913F912F910F900FBE0F901F900B
:100BD000189585E993E066DE21E0892B09F420E091
:100BE000822F0895109298031092970388EE93E055
:100BF000A0E0B0E08093990390939A03A0939B03A5
:100C0000B0939C0381E191E09093960380939503C8
:100C100085EC90E09093A2038093A10384EC90E094
:100C20009093A4038093A30380EC90E09093A60399
:100C30008093A50381EC90E09093A8038093A70391
:100C400082EC90E09093AA038093A90386EC90E055
:100C50009093AC038093AB031092AE031092AF035A
:100C60001092B0031092B1030895CF92DF92EF92E9
:100C7000FF920F931F93CF93DF937C016A01EB01E7
:100C800000E010E00C151D0571F06991D701ED91A0
:100C9000FC910190F081E02DC7010995892B19F095
:100CA0000F5F1F4FEFCFC801DF91CF911F910F91C1
:100CB000FF90EF90DF90CF9008956115710581F05E
:100CC000DB010D900020E9F7AD0141505109461BB1
:100CD000570BDC01ED91FC910280F381E02D09942A
:100CE00080E090E00895E9CFDC01ED91FC91019066
:100CF000F081E02D09946DE171E0DFCF0F931F9338
:100D0000CF93DF93EC01F0DF8C01CE01F4DF800F95
:100D1000911FDF91CF911F910F910895FC01808168
:100D2000918102C6CF93DF93EC018881998100976E
:100D300009F0FAD5198218821D821C821B821A8240
:100D4000DF91CF9108950F931F93CF93DF93EC0121
:100D50008B016F5F7F4F8881998175D6009731F045
:100D6000998388831B830A8381E001C080E0DF913F
:100D7000CF911F910F910895CF93DF93EC0188815C
:100D80009981892B29F08A819B818617970758F4CE
:100D9000CE01D9DF882341F08C819D81892B19F404
:100DA000E881F981108281E0DF91CF910895EF927F
:100DB000FF920F931F93CF93DF93EC017B018A0186
:100DC000BA01DADF811103C0CE01ACDF06C01D839A
:100DD0000C83B7018881998109D7CE01DF91CF912A
:100DE0001F910F91FF90EF900895FC0111821082E6
:100DF00013821282158214826115710551F0FB0174
:100E000001900020E9F7AF0141505109461B570BF3
:100E1000CECF08950895A8D0FDDFF0DACFE7D4E073
:100E20002ADC2097E9F36BDDFBCFE6C41F920F921B
:100E30000FB60F9211242F933F938F939F93AF93ED
:100E4000BF938091330490913404A0913504B09104
:100E500036043091320423E0230F2D3720F401961D
:100E6000A11DB11D05C026E8230F0296A11DB11DCD
:100E7000209332048093330490933404A093350478
:100E8000B09336048091370490913804A0913904CE
:100E9000B0913A040196A11DB11D8093370490933F
:100EA0003804A0933904B0933A04BF91AF919F9155
:100EB0008F913F912F910F900FBE0F901F9018951B
:100EC0002FB7F89460913304709134048091350405
:100ED000909136042FBF08953FB7F894809137045E
:100EE00090913804A0913904B0913A0426B5A89B9A
:100EF00005C02F3F19F00196A11DB11D3FBF662708
:100F0000782F892F9A2F620F711D811D911D42E04C
:100F1000660F771F881F991F4A95D1F70895CF92C2
:100F2000DF92EF92FF92CF93DF936B017C01D4DFCE
:100F3000EB01C114D104E104F10479F050D0CCDF0D
:100F40006C1B7D0B683E7340A0F381E0C81AD1088A
:100F5000E108F108C851DC4FECCFDF91CF91FF9051
:100F6000EF90DF90CF900895789484B5826084BD2F
:100F700084B5816084BD85B5826085BD85B581609D
:100F800085BDEEE6F0E0808181608083E1E8F0E0FD
:100F90001082808182608083808181608083E0E82C
:100FA000F0E0808181608083E1EBF0E0808184600B
:100FB0008083E0EBF0E0808181608083EAE7F0E00D
:100FC0008081846080838081826080838081816071
:100FD00080838081806880831092C1000895089585
:100FE0000F931F93CF93DF93EC01798368838B0179
:100FF000000F111F060F171F1B830A832C834D83BD
:1010000050E0FA01E057FF4FE491F0E0EE0FFF1FD0
:10101000EC55FF4F859194919E878D87FA01E45896
:10102000FF4F44914F87C801E7D398878F8300977C
:1010300041F0A80160E070E0DF91CF911F910F9126
:10104000CEC5DF91CF911F910F910895CF93DF937C
:10105000EC0161E08D810AD360E08D81DF91CF9159
:101060003EC3CF92DF92EF92FF920F931F93CF93E5
:10107000DF93CDB7DEB729970FB6F894DEBF0FBE6A
:10108000CDBF8C01DC0117968D919C911897892B0F
:1010900009F499C021DFF801C184D284E384F48487
:1010A0006C197D098E099F096233710581059105CF
:1010B00088F3F894828193819A838983A781B0858C
:1010C0007D01EFEFEE1AFE0A8C918987D801149604
:1010D0009C9114971D960D90BC91A02DF8018785C9
:1010E00091FF2EC09C91982B98879C918095892385
:1010F0008F838F818E8388E08D8358856F814985AA
:101100003D812E8189819A81F7015C9347FD252FCE
:101110003A952C93262F39F0441F00C000006C93A1
:10112000000000C0F2CF38E041916C9300000197BD
:1011300061F7F801B687A58749873D832E8338C0BC
:101140009C91982B98879C91809589238F838F8180
:101150008C8388E08B8358856F8149853B812C8106
:1011600089819A81F7015C9347FD252F00C000C05B
:101170002C9300C000C000C000C000C06C930000F1
:10118000262F3A9541F0441F000000C000C000C067
:1011900000C000C0E8CF38E0419100C06C9300C0AF
:1011A000019709F7F801B687A58749873B832C8308
:1011B0009A838983789490DED80119966D937D93F4
:1011C0008D939C931C9729960FB6F894DEBF0FBEA3
:1011D000CDBFDF91CF911F910F91FF90EF90DF90E6
:1011E000CF9008950F931F93DC018D919C911197DF
:1011F0006817790740F516968C911697882361F049
:10120000489FA0011124452F289F90011124232FCE
:10121000089F80011124012FCB01880F991F860F91
:10122000971F1796ED91FC911897E80FF91F1496E8
:101230008C91DF01129680FF03C02083418302C09E
:10124000408321830C931F910F9108950F931F9357
:10125000DC018D919C9111976817790778F5CB0186
:10126000880F991F860F971F1796ED91FC9118977D
:10127000E80FF91F428150E060E070E014968C9115
:10128000218180FF0AC0808190E0A0E0B0E0BA2F09
:10129000A92F982F8827A22B08C0808190E0A0E07A
:1012A000B0E0DC0199278827922B8C019D01042B4B
:1012B000152B262B372BC901B80103C060E070E065
:1012C000CB011F910F910895FC01808191810895B8
:1012D000FF920F931F93CF93DF93EC01FF24F394BE
:1012E000F60E2E81F21669F10F8118852150A9F0B2
:1012F0006F3F51F430E040E050E06FEF7FEF80E06F
:1013000090E058D2B9010BC08F2D90E0982F88271C
:101310000197622F70E018D202C060E070E0F8011F
:101320008A819B81AF01401B510B4817590740F43C
:101330004081469FC001479F900D11249193F0CFAB
:10134000FE82DF91CF911F910F91FF90089528E0C9
:10135000FC011192119211921192CF012150C1F70B
:101360000895FC01E753FF4F1082E758F1091082FE
:101370003396108231961082339610823196108205
:101380003397108231961082E258FF4F28EC208369
:101390003196108231961082DACFFC0171A360A3DE
:1013A000E0CF6F927F929F92AF92BF92CF92DF92E7
:1013B000EF92FF920F931F93CF93DF93EC018C0179
:1013C000065B1F4FD8011C92C2DFFE01EA5BFF4F94
:1013D000B08040E081E03E01B8EC6B0E711CAA24A5
:1013E000A3949E012A533F4F7E01E7ECEE0EF11CC1
:1013F0004B1508F061C0FE01E40FF11D92A195307C
:1014000021F178F451E0540F9230C1F0943009F09A
:1014100050C0452FFE01E50FF11D92A1F701908309
:1014200049C0903809F443C0933809F042C091E0B4
:10143000940FFE01B9E19B2E940E0FC0452FFE01C3
:10144000E50FF11D92A1D90106C04F5FFE01E40F27
:10145000F11D92A1D3019C932DC041E0490FBE0123
:10146000640F711DDB019296DC9042E0490FBE01D2
:10147000640F711DDB0192964C9150E060E070E0CA
:10148000762F652F542F44276D299D5F6E01C90E5D
:10149000D11CD6019296DC904D29419351936193D2
:1014A00071939911DACF492FF801A08203C04D5FE3
:1014B00001C080E04F5F9CCFDF91CF911F910F91D2
:1014C000FF90EF90DF90CF90BF90AF909F907F9074
:1014D0006F900895AF92BF92CF92DF92EF92FF92FA
:1014E0000F931F93CF93DF93EC0188A199A1DC01A7
:1014F000ED91FC910480F581E02D0995FE01E75303
:10150000FF4F6F01892B09F466C088A199A1DC0106
:10151000ED91FC910680F781E02D09955E01B3E421
:10152000AB0EB11CF50180838E010E5B1F4FD801FD
:101530009C919923C1F17E01B5E4EB0EF11CF701FA
:1015400090813196911104C08083813240F125C091
:101550002081FE01E85BFF4FDE01291740F0A90F53
:10156000B11D91968C939081980F908318C0A95BC0
:10157000BF4F8C9390819095908389130EC0CE01BC
:1015800010DF882321F081E0F601808306C06EE23F
:1015900071E0CE0181559F4F29D3D8011C92F701EC
:1015A00080818F5F8083D5018C91FE01EC5BFF4FC2
:1015B0008A3A81F490819A3A69F4D8019C91911108
:1015C00009C091E09C93DE01AB5BBF4F1C92C85BEE
:1015D000DF4F18828083F6018081882319F0108202
:1015E00081E001C080E0DF91CF911F910F91FF90CA
:1015F000EF90DF90CF90BF90AF9008958A539F4FA8
:10160000FC018081089589539F4FFC0180810895DA
:1016100088539F4FFC0180810895833081F028F426
:10162000813099F08230A1F008958730A9F0883098
:10163000B9F08430D1F4809180008F7D03C0809117
:1016400080008F7780938000089584B58F7702C0E3
:1016500084B58F7D84BD08958091B0008F7703C0DD
:101660008091B0008F7D8093B0000895CF93DF9379
:1016700090E0FC01E458FF4F2491FC01E057FF4F3C
:101680008491882349F190E0880F991FFC01E2556D
:10169000FF4FA591B4918C559F4FFC01C591D491FA
:1016A0009FB7611108C0F8948C91209582238C9388
:1016B000888182230AC0623051F4F8948C91322FD1
:1016C000309583238C938881822B888304C0F8947F
:1016D0008C91822B8C939FBFDF91CF9108950F93B4
:1016E0001F93CF93DF931F92CDB7DEB7282F30E043
:1016F000F901E859FF4F8491F901E458FF4F149123
:10170000F901E057FF4F04910023C1F0882319F03D
:10171000698383DF6981E02FF0E0EE0FFF1FEC5556
:10172000FF4FA591B4919FB7F8948C91611103C0BC
:101730001095812301C0812B8C939FBF0F90DF9167
:10174000CF911F910F910895AA1BBB1B51E107C0B8
:10175000AA1FBB1FA617B70710F0A61BB70B881F41
:10176000991F5A95A9F780959095BC01CD010895D0
:10177000A1E21A2EAA1BBB1BFD010DC0AA1FBB1F95
:10178000EE1FFF1FA217B307E407F50720F0A21B07
:10179000B30BE40BF50B661F771F881F991F1A9474
:1017A00069F760957095809590959B01AC01BD019E
:1017B000CF010895052E97FB16F400940FD057FD26
:1017C00005D0D6DF07FC02D046F408C050954095FE
:1017D000309521953F4F4F4F5F4F089590958095DD
:1017E000709561957F4F8F4F9F4F0895EE0FFF1FAC
:1017F0000590F491E02D0994CF93DF938230910509
:1018000010F482E090E0E0913D04F0913E0420E08D
:1018100030E0A0E0B0E0309739F1408151814817C5
:101820005907B8F04817590771F4828193811097CE
:1018300029F013969C938E9312972CC090933E049C
:1018400080933D0427C02115310531F0421753071D
:1018500018F0A901DB0101C0EF019A01BD01DF0110
:101860000280F381E02DD7CF21153105F9F0281B37
:10187000390B2430310580F48A819B816115710513
:1018800021F0FB019383828304C090933E048093F4
:101890003D04FE01329644C0FE01E20FF31F819326
:1018A000919322503109398328833AC020913B0417
:1018B00030913C04232B41F420910201309103012B
:1018C00030933C0420933B042091000130910101AE
:1018D0002115310541F42DB73EB7409104015091D7
:1018E0000501241B350BE0913B04F0913C04E21709
:1018F000F307A0F42E1B3F0B2817390778F0AC0133
:101900004E5F5F4F2417350748F04E0F5F1F50930F
:101910003C0440933B048193919302C0E0E0F0E0EB
:10192000CF01DF91CF910895CF93DF93009709F412
:1019300087C0FC01329713821282C0913D04D0917E
:101940003E04209781F420813181280F391F809136
:101950003B0490913C048217930779F5F0933C0483
:10196000E0933B046DC0DE0120E030E0AE17BF071E
:1019700050F412964D915C9113979D0141155105BC
:1019800009F1DA01F3CFB383A28340815181840F3F
:10199000951F8A179B0771F48D919C911197840F65
:1019A000951F02969183808312968D919C91139737
:1019B000938382832115310529F4F0933E04E0934B
:1019C0003D043EC0D9011396FC93EE9312974D91BE
:1019D0005D91A40FB51FEA17FB0779F4808191810F
:1019E000840F951F0296D90111969C938E93828144
:1019F000938113969C938E931297E0E0F0E08A8196
:101A00009B81009719F0FE01EC01F9CFCE010296FF
:101A100028813981820F931F20913B0430913C042F
:101A20002817390769F4309729F410923E04109270
:101A30003D0402C013821282D0933C04C0933B0445
:101A4000DF91CF910895A0E0B0E0E8E2FDE0D9C0D9
:101A5000EC01CB01209711F4CFDEB4C0FE01E60FFC
:101A6000F71F9E0122503109E217F30708F4A8C0BE
:101A7000D9010D911C91119706171707B0F0053089
:101A8000110508F49BC0A801445051094617570797
:101A900008F494C002501109061B170B019311930F
:101AA0006D937C93CF0140DF89C05B01A01AB10A1E
:101AB0004E01800E911EA0913D04B0913E04612C18
:101AC000712C60E070E0109709F449C0A815B905C1
:101AD000C9F5ED90FC901197670142E0C40ED11C4E
:101AE000CA14DB0478F147018A189B08640142E0BC
:101AF000C40ED11C1296BC9012971396AC91B5E00F
:101B0000CB16D10440F0B282A38391828082D901A6
:101B10008D939C9309C00E5F1F4F0E0D1F1DF90181
:101B200011830083EB2DFA2F6115710531F0DB0174
:101B30001396FC93EE93129741C0F0933E04E0930A
:101B40003D043CC06D917C9111976616770608F4B0
:101B50003B01BD0112960D90BC91A02DB4CF6091B8
:101B60003B0470913C0468157905E9F46816790620
:101B7000D0F440910001509101014115510541F40B
:101B80004DB75EB76091040170910501461B570B7C
:101B9000E417F507A8F4F0933C04E0933B04F90143
:101BA000918380830BC028DE7C01009749F0A80157
:101BB000BE010CD0CE01B8DEC70104C0CE0102C008
:101BC00080E090E0CDB7DEB7EEE037C0FB01DC018E
:101BD00002C001900D9241505040D8F70895DC01A9
:101BE00001C06D9341505040E0F70895FB01DC01C6
:101BF00001900D920020E1F708952F923F924F92AD
:101C00005F926F927F928F929F92AF92BF92CF928C
:101C1000DF92EF92FF920F931F93CF93DF93CDB795
:101C2000DEB7CA1BDB0B0FB6F894DEBF0FBECDBF0D
:101C300009942A88398848885F846E847D848C84DE
:101C40009B84AA84B984C884DF80EE80FD800C81E7
:101C50001B81AA81B981CE0FD11D0FB6F894DEBFCA
:101C60000FBECDBFED01089510E0CCEBD0E003C076
:101C7000FE01BEDD2296CE3BD107D1F7F894FFCF0F
:101C800000003F04200001536574757000000000DF
:101C900000CE04350652046B045D04AD040D0A0049
:101CA0006E616E00696E66006F7666002E004552AA
:101CB000524F523A20436F756C64206E6F742070DF
:101CC00061727365002C0025642C25642C25642C1E
:101CD000256C752C256C752C256C752C256C752C3C
:101CE000256C752C256C752C256C752C256C750058
:101CF00025642C25642C2564005B002C20005D00ED
:101D00002D2D2D205374617274205061636B6574A6
:101D1000202D2D2D005369676E616C205175616C0B
:101D20006974793A2000417474656E74696F6E3A13
:101D300020004D656469746174696F6E3A200045D6
:101D4000454720504F5745523A0044656C74613AFC
:101D5000200054686574613A20004C6F7720416C14
:101D60007068613A20004869676820416C7068615A
:101D70003A20004C6F7720426574613A2000486930
:101D8000676820426574613A20004C6F7720476194
:101D90006D6D613A20004D69642047616D6D613A57
:101DA0002000436865636B73756D2043616C6375D8
:101DB0006C617465643A2000436865636B73756D8C
:101DC0002045787065637465643A20002D2D2D20C0
:101DD000456E64205061636B6574202D2D2D0000CD
:00000001FF
