:100000005EC0000084C0000082C0000080C000000C
:100010007EC000007CC000007AC0000078C00000F4
:1000200076C0000074C0000072C0000070C0000004
:100030006EC000006CC000006AC0000068C0000014
:100040000C94A70A64C0000087C60000B7C6000071
:100050005EC000005CC000005AC0000058C0000034
:1000600056C0000054C0000000000008000201005B
:100070000003040700000000000000000102040863
:100080001020408001020408102001020408102002
:10009000040404040404040402020202020203032E
:1000A0000303030300000000250028002B000000CC
:1000B0000000240027002A00D3030C0706041124A3
:1000C0001FBECFEFD8E0DEBFCDBF11E0A0E0B1E0B2
:1000D000E0E0F3E202C005900D92A836B107D9F72F
:1000E00022E0A8E6B1E001C01D92AE38B207E1F708
:1000F00010E0CCEBD0E004C02297FE010E947C0E01
:10010000C83BD107C9F70E949C0A0C94741178CFA0
:10011000CF92DF92EF92FF920F931F93CF93DF93D3
:100120007C01162FD42EC22EC0E0D0E0F7018081D2
:100130009181C817D9075CF40C2D2D2D412FBE01DC
:10014000F701848195810E94830C2196EFCFDF9186
:10015000CF911F910F91FF90EF90DF90CF90089576
:1001600080916C0190916D010C94C20BAF92BF9283
:10017000CF92DF92EF92FF920F931F93CF93DF9373
:1001800000D000D000D0CDB7DEB76C010EEC11E08E
:100190008AEDA82E81E0B82EE12CF12CE114F104B7
:1001A000C9F46CE2C6010E94EF099093D1018093DB
:1001B000D0019C0142E050E0B601CE0101960E94C0
:1001C000F209CE0101960E94910A7093DB016093BF
:1001D000DA011DC0F801408151814F5F5F4F6CE231
:1001E000C6010E94D409F801938382834081518122
:1001F0004F5F5F4F9C01B601CE0101960E94F2094C
:10020000CE0101960E94910AF50171836083CE01AF
:100210000196DFD7FFEFEF1AFF0A0E5F1F4F82E054
:10022000A80EB11CE5E0EE16F10409F0B7CF00917D
:10023000DA011091DB018091DC019091DD01909356
:10024000CA018093C9018091DE019091DF019093F2
:10025000C8018093C7018091E0019091E1019093E2
:10026000C6018093C5018091E2019091E3019093D2
:10027000BC018093BB014AE050E0B80184EE91E0FC
:1002800005D76091C9017091CA014AE050E084EE3F
:1002900091E0FCD66091C7017091C8014AE050E03E
:1002A00084EE91E0F3D66091C5017091C6014AE0F9
:1002B00050E084EE91E0EAD66091BB017091BC0100
:1002C0004AE050E084EE91E0E1D681E08093CE01F7
:1002D0000115110549F42091C5014091C7016091B4
:1002E000C90188E691E014DF9801215031092830D6
:1002F000310578F449E0429FC001439F900D1124DD
:100300002091C5014091C7016091C90188599E4F54
:100310001EC00930110571F481E08093CD010E9467
:10032000F10A6093B7017093B8018093B90190937B
:10033000BA010EC00A30110559F41092CD01209176
:10034000C5014091C7016091C90188E691E0E0DEF6
:1003500081E08093CF0126960FB6F894DEBF0FBEE2
:10036000CDBFDF91CF911F910F91FF90EF90DF9064
:10037000CF90BF90AF900895AF92BF92CF92DF928F
:10038000EF92FF920F931F93CF93DF9300D000D093
:1003900000D0CDB7DEB76C010EEC11E09AEDA92EBE
:1003A00091E0B92EE12CF12CE114F104C9F46CE2D6
:1003B000C6010E94EF099093D1018093D0019C0166
:1003C00042E050E0B601CE0101960E94F209CE0152
:1003D00001960E94910A7093DB016093DA011BC0C1
:1003E000F801408151814F5F5F4F6CE2C601DCD75D
:1003F000F80193838283408151814F5F5F4F9C015D
:10040000B601CE010196EED7CE0101960E94910A67
:10041000F50171836083CE010196DBD6FFEFEF1A01
:10042000FF0A0E5F1F4F82E0A80EB11CE5E0EE163A
:10043000F10409F0B9CF0091DA011091DB0180914C
:10044000DC019091DD019093C4018093C301809100
:10045000DE019091DF019093C2018093C1018091F0
:10046000E0019091E1019093C0018093BF018091E0
:10047000E2019091E3019093BE018093BD016DE094
:1004800071E084EE91E054D54AE050E0B80184EE8A
:1004900091E0FCD56091C3017091C4014AE050E045
:1004A00084EE91E0F3D56091C1017091C2014AE000
:1004B00050E084EE91E0EAD56091BF017091C001F7
:1004C0004AE050E084EE91E0E1D56091BD01709189
:1004D000BE014AE050E084EE91E0D8D52091C301FE
:1004E0009091C1018091BF010115110539F420934C
:1004F0006E0190936F01809370010DC0015011093E
:1005000039E0309FF001319FF00D1124E859FE4F82
:1005100026839783808781E090E09093BC0180934D
:10052000BB0126960FB6F894DEBF0FBECDBFDF919C
:10053000CF911F910F91FF90EF90DF90CF90BF90E0
:10054000AF900895CF93DF93E901CC0FDD1FCC0F5F
:10055000DD1FFE01E956FE4F608371838283938322
:100560000E94F10AFE01E958FE4F60837183828385
:100570009383DF91CF9108950F931F93CF93DF93D0
:10058000EC010E94F10AAE01440F551F440F551FA4
:10059000EA01C958DE4F088119812A813B81601B1D
:1005A000710B820B930BFA01E956FE4F008111810A
:1005B00022813381601771078207930740F00E9400
:1005C000F10A688379838A839B8381E001C080E09C
:1005D000DF91CF911F910F9108953F924F925F92BB
:1005E0006F927F928F929F92AF92BF92CF92DF9243
:1005F000EF92FF920F931F93CF93DF93E12CF12C97
:1006000029E0289FE001299FD00D1124C859DE4F11
:100610002E0186E0480E511C3E01A7E06A0E711CB7
:100620004E01B8E08B0E911C332433948C819D8154
:100630000E94440DE816F9060CF085C0B7018C81C4
:100640009D810E94060DC82ED12CA72EB12C062FFD
:1006500010E0E0910A01F0E0D2014C9150E0CA01B3
:100660008C199D0997FF03C0919581959109E81711
:10067000F9074CF4C416D5061CF4CE0EDF1E04C0D8
:10068000CE1ADF0A01C06A01D3012C9130E0C90102
:100690008A199B0997FF03C0919581959109E817E5
:1006A000F9074CF4A216B3061CF4AE0EBF1E04C02C
:1006B000AE1ABF0A01C05901D4018C9190E0BC016F
:1006C000601B710B77FF03C0719561957109E61787
:1006D000F7074CF4081719071CF40E0F1F1F04C06E
:1006E0000E1B1F0B01C08C01C416D50661F4A216A7
:1006F000B30649F40817190731F41092BC0110929F
:10070000BB013092CC018091CB01882329F081E09C
:1007100090E032DF811139C02A2D4C2DB7018C8138
:100720009D810E94830C6091BD017091BE0188275C
:1007300077FD8095982F20E030E0A90103DFBFEF1F
:10074000EB1AFB0A73CF2091BD013091BE01442703
:1007500037FD4095542F60E070E0CB011FD521E0BC
:1007600030E040E050E0DF91CF911F910F91FF907A
:10077000EF90DF90CF90BF90AF909F908F907F9041
:100780006F905F904F903F90DDCE2FEF30E040E0D4
:1007900050E062E370E080E090E000D58C819D81C4
:1007A0000E94480DB9CFEF92FF920F931F93CF9302
:1007B000DF9369E571E081E791E072D548E6E42EC8
:1007C00041E0F42E82E290E0F701918380830AE613
:1007D00011E082E090E0F8019183808380E190E075
:1007E000B5D6EC01F7016081718123E0F801408109
:1007F00088D7D0936D01C0936C0110927001DF9186
:10080000CF911F910F91FF90EF90089581E791E0B4
:10081000E0C48F929F92AF92BF92CF92DF92EF92FD
:10082000FF920F931F93CF93DF9300D000D000D09F
:10083000CDB7DEB784EE91E04FD11816190694F5C6
:100840006EE171E084EE91E073D340910C0164EEAF
:1008500071E0CE0101965CD4BE016F5F7F4F81E7EE
:1008600091E033D5CE010196B4D481E791E0FDD576
:1008700064E581E791E0B3D5892B39F464E781E73A
:1008800091E0ADD5019709F4A0C063E481E791E060
:10089000A6D5892B39F463E681E791E0A0D50197CD
:1008A00009F49FC08091CD01882309F477C099D6BF
:1008B0000091B7011091B8012091B9013091BA01AE
:1008C000601B710B820B930B6C33710581059105D5
:1008D00008F464C086D624E130E040E050E00E9495
:1008E000320ECA01B90120E035E040E050E00E943C
:1008F000320ED62EE62EEE0CE60E8E2D8195F12CC4
:1009000000E010E0CC24C394CE0C5EEFB52EB80E00
:100910006DEFA62EA80E72E0972E9E0C88248A9466
:10092000880E80916C0190916D010E94440D081712
:10093000190730F59F2D9D0D953530F440E0682D59
:100940006F0D8F2D8E0D0DC09A3A30F04A2D4F0D40
:10095000692D6F0D80E005C04C2D4F0D60E08B2D93
:100960008F0D0E94FD0C9B01AC01B80180916C01C0
:1009700090916D01FCD70F5F1F4F80E8F80ED1CF2B
:1009800080916C0190916D01FDD62BD66093B701DB
:100990007093B8018093B9019093BA0180910A01D4
:1009A000882359F08091BB019091BC01019729F4F3
:1009B00080E090E0E1DD811120C08091CF018823AB
:1009C00029F1CEDB1092CF0121C061E771E0CE01A9
:1009D000019690D4CE010196CFDCCE010196F9D3D9
:1009E00054CF61E771E0CE01019684D4CE01019627
:1009F000BDDBCE010196EDD355CF1092CC0181E045
:100A00008093CF0180E090E0E8DDD7CF26960FB647
:100A1000F894DEBF0FBECDBFDF91CF911F910F9134
:100A2000FF90EF90DF90CF90BF90AF909F908F900E
:100A30000895CF9368EE73E080E090E001D6C1E0C6
:100A400084EE91E049D01816190684F06EE271E048
:100A500084EE91E062D284EE91E067D2C0930B0104
:100A60006CE271E080E090E0EBD5EACFCF910895A1
:100A7000CF93DF9326E040E051EE60E070E084EE3B
:100A800091E00AD165E371E084EE91E051D2C8E6CD
:100A9000D1E08C819D8176D68C819D8168D66FEF67
:100AA0008C819D81F5D761E471E084EE91E040D2C4
:100AB000C0DF20E030E0A90161E070E080E090E07C
:100AC00041DD21E030E040E050E061E070E080E0B6
:100AD00090E0DF91CF9136CDFC01818D228D90E0A9
:100AE000805C9F4F821B91098F7399270895FC01A9
:100AF000918D828D981731F0828DE80FF11D858DD3
:100B000090E008958FEF9FEF0895FC01918D828D05
:100B1000981761F0828DDF01A80FB11D5D968C9151
:100B2000928D9F5F9F73928F90E008958FEF9FEF5C
:100B3000089583E097E0892B41F080E090E0892BD5
:100B400021F061D181110C9400000895FC01848D85
:100B5000DF01A80FB11DA35ABF4F2C91848D90E0E7
:100B600001968F739927848FA689B7892C93A089C2
:100B7000B1898C9180648C93938D848D981306C079
:100B80000288F389E02D80818F7D80830895CF9343
:100B9000DF93EC01888D8823C1F0EA89FB8980818D
:100BA00085FD05C0A889B9898C9186FD0EC00FB658
:100BB00007FCF5CF808185FFF2CFA889B9898C9198
:100BC00085FFEDCFCE01C2DFE8CFDF91CF91089551
:100BD000CF92DF92FF920F931F93CF93DF931F92D9
:100BE000CDB7DEB76C0181E0D60158968C9358974B
:100BF0005B969C915B975C968C915C97981307C071
:100C00005096ED91FC915197808185FD2DC0F601A4
:100C1000038D10E00F5F1F4F0F731127F02EF601A9
:100C2000848DF81210C00FB607FCF9CFD60150968C
:100C3000ED91FC915197808185FFF1CFC6016983C9
:100C400085DF6981ECCF838DE80FF11DE35AFF4FFB
:100C50006083D6015B960C935B975296ED91FC9165
:100C60005397808180620CC0D6015696ED91FC911D
:100C7000579760835096ED91FC91519780818064E5
:100C8000808381E090E00F90DF91CF911F910F91D1
:100C9000FF90DF90CF900895BF92CF92DF92EF92B6
:100CA000FF92CF93DF93EC016A017B01B22EE889BA
:100CB000F98982E08083411581EE5807610571054D
:100CC00099F060E079E08DE390E0A7019601CAD742
:100CD0002150310941095109569547953795279576
:100CE000211580E1380790F0E889F989108260E8E1
:100CF00074E88EE190E0A7019601B4D72150310944
:100D0000410951095695479537952795EC85FD85FD
:100D10003083EE85FF852083188EEC89FD89B082B3
:100D2000EA89FB89808180618083EA89FB898081EF
:100D300088608083EA89FB89808180688083EA8972
:100D4000FB8980818F7D8083DF91CF91FF90EF9031
:100D5000DF90CF90BF9008951F920F920FB60F9221
:100D600011242F938F939F93EF93FF93E091F401BE
:100D7000F091F5018081E091FA01F091FB0182FD93
:100D800012C090818091FD018F5F8F732091FE01D1
:100D9000821751F0E091FD01F0E0EC51FE4F958F8C
:100DA0008093FD0101C08081FF91EF919F918F9110
:100DB0002F910F900FBE0F901F9018951F920F92BA
:100DC0000FB60F9211242F933F934F935F936F931E
:100DD0007F938F939F93AF93BF93EF93FF9384EE93
:100DE00091E0B4DEFF91EF91BF91AF919F918F9110
:100DF0007F916F915F914F913F912F910F900FBE17
:100E00000F901F90189584EE91E066DE21E0892B0B
:100E100009F420E0822F08951092E7011092E60174
:100E200088EE93E0A0E0B0E08093E8019093E901C0
:100E3000A093EA01B093EB018BE491E09093E5017C
:100E40008093E40185EC90E09093F1018093F001B0
:100E500084EC90E09093F3018093F20180EC90E0B9
:100E60009093F5018093F40181EC90E09093F70169
:100E70008093F60182EC90E09093F9018093F80161
:100E800086EC90E09093FB018093FA011092FD01B3
:100E90001092FE011092FF01109200020895CF926D
:100EA000DF92EF92FF920F931F93CF93DF937C011A
:100EB0006A01EB0100E010E00C151D0571F069916D
:100EC000D701ED91FC910190F081E02DC7010995CA
:100ED000892B19F00F5F1F4FEFCFC801DF91CF9122
:100EE0001F910F91FF90EF90DF90CF9008956115C3
:100EF000710581F0DB010D900020E9F7AD01415053
:100F00005109461B570BDC01ED91FC910280F381E6
:100F1000E02D099480E090E00895E9CFDC01ED91A7
:100F2000FC910190F081E02D099467E571E0DFCF3D
:100F30000F931F93CF93DF93EC01D9DF8C01CE0188
:100F4000F4DF800F911FDF91CF911F910F910895D2
:100F50008F929F92AF92BF92CF92DF92EF92FF92C9
:100F60000F931F93CF93DF93CDB7DEB7A1970FB643
:100F7000F894DEBF0FBECDBF7C01C42EE52FCB01A0
:100F8000D22E19A221E02D1510F02AE0D22E8E01CA
:100F90000F5D1F4F8D2C912CA12CB12C6C2D7E2F11
:100FA000A50194015FD68C2DD29E80191124015089
:100FB00011098A3014F4805D01C0895CF8018083D6
:100FC000211531054105510521F0C22EE32FCA013B
:100FD000E5CFB801C7018BDFA1960FB6F894DEBF4D
:100FE0000FBECDBFDF91CF911F910F91FF90EF907A
:100FF000DF90CF90BF90AF909F908F900895CF9249
:10100000DF92EF92FF920F931F93CF93DF93EC0148
:101010006A017B012115310579F4E881F98101909C
:10102000F081E02D642FDF91CF911F910F91FF9000
:10103000EF90DF90CF9009942A303105D9F477FFF3
:1010400018C06DE26BDF8C0144275527BA014C199B
:101050005D096E097F092AE0CE017ADF800F911FBA
:10106000DF91CF911F910F91FF90EF90DF90CF9084
:1010700008952AE0B701A601CE01DF91CF911F911B
:101080000F91FF90EF90DF90CF9062CF0F931F935F
:10109000CF93DF93EC019A01AB01662757FD609572
:1010A000762FADDF8C01CE0140DF800F911FDF91E5
:1010B000CF911F910F9108950F931F93CF93DF93BB
:1010C000EC018FD2688779878A879B87E881F981CD
:1010D0000680F781E02DCE01099597FF14C081D2DB
:1010E000088519852A853B85601B710B820B930B44
:1010F0000C811D812E813F81601771078207930744
:1011000028F38FEF9FEFDF91CF911F910F910895FB
:10111000EF92FF920F931F93CF93DF93EC018B011C
:10112000E42E69E571E0BCD0C801C6DFFF24E7FC0E
:10113000F09497FD09C08E159F0531F0682FCE0100
:1011400021D1C801B9DFF5CFCE01DF91CF911F9139
:101150000F91FF90EF900895CF93DF9300D000D0D0
:10116000CDB7DEB79B01AC01611571058105910515
:1011700059F069833A834B835C8342D729813A8152
:101180004B815C8191D503C060E070E0CB010F9092
:101190000F900F900F90DF91CF910895CF92DF9233
:1011A000EF92FF926B017C0162177307840795072A
:1011B0005CF4CA01B9016C197D098E099F09CCDF65
:1011C0006C0D7D1D8E1D9F1DFF90EF90DF90CF90C9
:1011D0000895FC01808191813AC6CF93DF93EC01A1
:1011E00088819981009709F032D6198218821D8270
:1011F0001C821B821A82DF91CF9108950F931F9357
:10120000CF93DF93EC018B016F5F7F4F88819981D2
:1012100003D7009731F0998388831B830A8381E089
:1012200001C080E0DF91CF911F910F910895CF937E
:10123000DF93EC0188819981892B29F08A819B8138
:101240008617970758F4CE01D9DF882341F08C81A7
:101250009D81892B19F4E881F981108281E0DF9169
:10126000CF910895EF92FF920F931F93CF93DF9347
:10127000EC017B018A01BA01DADF811103C0CE01E2
:10128000ACDF06C01D830C83B70188819981D0D75C
:10129000CE01DF91CF911F910F91FF90EF900895B4
:1012A000FC01118210821382128215821482611550
:1012B000710551F0FB0101900020E9F7AF014150A9
:1012C0005109461B570BCECF0895CF93DF93EC0106
:1012D000FB018617970751F06081718161157105D7
:1012E00021F044815581BEDF01C077DFCE01DF915F
:1012F000CF910895FC01118210821382128215820F
:101300001482E3CFCF93DF93EC016115710559F09F
:10131000FB0101900020E9F7AF0141505109461B44
:10132000570BA0DF01C059DFCE01DF91CF910895A7
:10133000EF92FF920F931F93CF93DF93EC017B010A
:101340000C811D816115710511F480E014C04115F7
:10135000510581F0040F151FB80169DF8823A9F337
:10136000288139818C819D81B701820F931F60D7BD
:101370001D830C8381E0DF91CF911F910F91FF902E
:10138000EF900895CF93DF9300D0CDB7DEB7698398
:101390001A8241E050E0BE016F5F7F4FC9DF0F90BE
:1013A0000F90DF91CF910895CF93DF93FC0184815B
:1013B00095814817590770F4C081D181772767FD5F
:1013C0007095CE01840F951F28D7009719F08C1BBC
:1013D0009D0B02C08FEF9FEFDF91CF91089540E00A
:1013E00050E0E2CFBF92CF92DF92EF92FF920F9345
:1013F0001F93CF93DF936C017B01EA0189012417CE
:10140000350720F48D2FE901042F182F69E571E0CD
:10141000C60146DFD70114968D919C911597C81788
:10142000D907C0F48017910708F48C01D701ED911A
:10143000FC911197E00FF11FB08010826D917C91AB
:101440006C0F7D1FC6015EDFD701ED91FC91E00FAF
:10145000F11FB082C601DF91CF911F910F91FF90D4
:10146000EF90DF90CF90BF900895AF92BF92CF9250
:10147000DF92EF92FF920F931F93CF93DF937C0144
:10148000DC01CD90DC901197C114D10409F43EC069
:101490001496CD91DC9115972097C1F156018501E5
:1014A000BFEFAB1ABB0AF8018081992787FD9095A1
:1014B0009CD6892BA1F72197CC0DDD1D888199271A
:1014C00087FD909592D6892B89F4AE014F5F5F4FCF
:1014D000401B510BD70115965C934E931497C01681
:1014E000D10648F4B801C60188D605C0C017D10797
:1014F00060F32197E3CFD701ED91FC9111971496FA
:101500008D919C911597E80FF91F1082DF91CF9173
:101510001F910F91FF90EF90DF90CF90BF90AF9011
:101520000895FC0180819181009709F038C660E040
:1015300070E0CB0108950895A8D0FDDF99DAC9E9DC
:10154000D5E067D92097E9F3F4DAFBCFE8C31F921F
:101550000F920FB60F9211242F933F938F939F9367
:10156000AF93BF938091820290918302A0918402F5
:10157000B09185023091810223E0230F2D3720F4B2
:101580000196A11DB11D05C026E8230F0296A11DDD
:10159000B11D209381028093820290938302A093D5
:1015A0008402B09385028091860290918702A09177
:1015B0008802B09189020196A11DB11D8093860217
:1015C00090938702A0938802B0938902BF91AF9154
:1015D0009F918F913F912F910F900FBE0F901F9071
:1015E00018952FB7F89460918202709183028091D0
:1015F0008402909185022FBF08953FB7F89480919F
:10160000860290918702A0918802B091890226B546
:10161000A89B05C02F3F19F00196A11DB11D3FBF2A
:101620006627782F892F9A2F620F711D811D911DBA
:1016300042E0660F771F881F991F4A95D1F70895DA
:10164000CF92DF92EF92FF92CF93DF936B017C01F9
:10165000D4DFEB01C114D104E104F10479F050D0DE
:10166000CCDF6C1B7D0B683E7340A0F381E0C81A91
:10167000D108E108F108C851DC4FECCFDF91CF91E0
:10168000FF90EF90DF90CF900895789484B58260BA
:1016900084BD84B5816084BD85B5826085BD85B516
:1016A000816085BDEEE6F0E0808181608083E1E8C5
:1016B000F0E01082808182608083808181608083FD
:1016C000E0E8F0E0808181608083E1EBF0E0808100
:1016D00084608083E0EBF0E0808181608083EAE7D2
:1016E000F0E080818460808380818260808380815B
:1016F000816080838081806880831092C10008951A
:1017000008950F931F93CF93DF93EC017983688340
:101710008B01000F111F060F171F1B830A832C83D9
:101720004D8350E0FA01E057FF4FE491F0E0EE0FF7
:10173000FF1FEC55FF4F859194919E878D87FA018D
:10174000E458FF4F44914F87C801E9D298878F83AF
:10175000009741F0A80160E070E0DF91CF911F9108
:101760000F9154C5DF91CF911F910F910895CF93A1
:10177000DF93EC0161E08D81F3D160E08D81DF9139
:10178000CF9127C2CF92DF92EF92FF920F931F93D8
:10179000CF93DF93CDB7DEB729970FB6F894DEBFAE
:1017A0000FBECDBF8C01DC0117968D919C911897CF
:1017B000892B09F499C021DFF801C184D284E38424
:1017C000F4846C197D098E099F09623371058105C6
:1017D000910588F3F894828193819A838983A78104
:1017E000B0857D01EFEFEE1AFE0A8C918987D80152
:1017F00014969C9114971D960D90BC91A02DF80104
:10180000878591FF2EC09C91982B98879C918095FD
:1018100089238F838F818E8388E08D8358856F81A4
:1018200049853D812E8189819A81F7015C9347FD2D
:10183000252F3A952C93262F39F0441F00C0000025
:101840006C93000000C0F2CF38E041916C9300002F
:10185000019761F7F801B687A58749873D832E83F5
:1018600038C09C91982B98879C91809589238F8371
:101870008F818C8388E08B8358856F8149853B817C
:101880002C8189819A81F7015C9347FD252F00C047
:1018900000C02C9300C000C000C000C000C06C930A
:1018A0000000262F3A9541F0441F000000C000C000
:1018B00000C000C000C0E8CF38E0419100C06C9388
:1018C00000C0019709F7F801B687A58749873B83D0
:1018D0002C839A838983789490DED80119966D932E
:1018E0007D938D939C931C9729960FB6F894DEBF39
:1018F0000FBECDBFDF91CF911F910F91FF90EF9061
:10190000DF90CF9008950F931F93DC018D919C91F0
:1019100011976817790740F516968C9116978823CA
:1019200061F0489FA0011124452F289F90011124A8
:10193000232F089F80011124012FCB01880F991FAD
:10194000860F971F1796ED91FC911897E80FF91FD6
:1019500014968C91DF01129680FF03C0208341838F
:1019600002C0408321830C931F910F910895CF9261
:10197000DF92EF92FF920F931F93CF93DF93FC01BF
:10198000808191816817790778F5CA01AA27BB275A
:10199000182FC32ED42EE52EFF24DC2D022FC68156
:1019A000CC2361F08C9FC0011124192FCC9E6001C3
:1019B0001124DD2D2C9F90011124032FCB01880FC2
:1019C000991F860F971FA781B085A80FB91F848123
:1019D000FD01329680FF04C0DC9311961C9303C076
:1019E0001C931196DC930083DF91CF911F910F918F
:1019F000FF90EF90DF90CF900895962F50E060E039
:101A000070E0592B682BCB01BA0108950F931F93F7
:101A1000DC018D919C9111976817790778F5CB01BE
:101A2000880F991F860F971F1796ED91FC911897B5
:101A3000E80FF91F428150E060E070E014968C914D
:101A4000218180FF0AC0808190E0A0E0B0E0BA2F41
:101A5000A92F982F8827A22B08C0808190E0A0E0B2
:101A6000B0E0DC0199278827922B8C019D01042B83
:101A7000152B262B372BC901B80103C060E070E09D
:101A8000CB011F910F910895FC01808191810895F0
:101A9000FF920F931F93CF93DF93EC01FF24F394F6
:101AA000F60E2E81F21669F10F8118852150A9F0EA
:101AB0006F3F51F430E040E050E06FEF7FEF80E0A7
:101AC00090E0F2D0B9010BC08F2D90E0982F8827BD
:101AD0000197622F70E0B2D002C060E070E0F801C0
:101AE0008A819B81AF01401B510B4817590740F475
:101AF0004081469FC001479F900D11249193F0CFE4
:101B0000FE82DF91CF911F910F91FF900895833056
:101B100081F028F4813099F08230A1F00895873067
:101B2000A9F08830B9F08430D1F4809180008F7DA5
:101B300003C0809180008F7780938000089584B5E2
:101B40008F7702C084B58F7D84BD08958091B000E9
:101B50008F7703C08091B0008F7D8093B00008958F
:101B6000CF93DF9390E0FC01E458FF4F2491FC01F8
:101B7000E057FF4F8491882349F190E0880F991F27
:101B8000FC01E255FF4FA591B4918C559F4FFC018C
:101B9000C591D4919FB7611108C0F8948C9120959C
:101BA00082238C93888182230AC0623051F4F89496
:101BB0008C91322F309583238C938881822B88835C
:101BC00004C0F8948C91822B8C939FBFDF91CF91AE
:101BD00008950F931F93CF93DF931F92CDB7DEB776
:101BE000282F30E0F901E859FF4F8491F901E458BA
:101BF000FF4F1491F901E057FF4F04910023C1F00A
:101C0000882319F0698383DF6981E02FF0E0EE0F0C
:101C1000FF1FEC55FF4FA591B4919FB7F8948C919D
:101C2000611103C01095812301C0812B8C939FBF4C
:101C30000F90DF91CF911F910F910895AA1BBB1BAD
:101C400051E107C0AA1FBB1FA617B70710F0A61BBC
:101C5000B70B881F991F5A95A9F780959095BC01DD
:101C6000CD010895A1E21A2EAA1BBB1BFD010DC0D8
:101C7000AA1FBB1FEE1FFF1FA217B307E407F5073C
:101C800020F0A21BB30BE40BF50B661F771F881F18
:101C9000991F1A9469F760957095809590959B01AE
:101CA000AC01BD01CF010895052E97FB16F40094F9
:101CB0000FD057FD05D0D6DF07FC02D046F408C090
:101CC00050954095309521953F4F4F4F5F4F089568
:101CD00090958095709561957F4F8F4F9F4F089598
:101CE0000FD0A59F900DB49F900DA49F800D911DC6
:101CF00011240895EE0FFF1F0590F491E02D099433
:101D0000A29FB001B39FC001A39F700D811D11243C
:101D1000911DB29F700D811D1124911D0895CF93C7
:101D2000DF938230910510F482E090E0E0918C0224
:101D3000F0918D0220E030E0A0E0B0E0309739F182
:101D40004081518148175907B8F04817590771F475
:101D500082819381109729F013969C938E9312970A
:101D60002CC090938D0280938C0227C021153105E1
:101D700031F04217530718F0A901DB0101C0EF0150
:101D80009A01BD01DF010280F381E02DD7CF21153B
:101D90003105F9F0281B390B2430310580F48A8194
:101DA0009B816115710521F0FB019383828304C03F
:101DB00090938D0280938C02FE01329644C0FE0106
:101DC000E20FF31F819391932250310939832883C5
:101DD0003AC020918A0230918B02232B41F420914A
:101DE00002013091030130938B0220938A022091EB
:101DF0000001309101012115310541F42DB73EB7A5
:101E00004091040150910501241B350BE0918A0299
:101E1000F0918B02E217F307A0F42E1B3F0B28175B
:101E2000390778F0AC014E5F5F4F2417350748F053
:101E30004E0F5F1F50938B0240938A0281939193C0
:101E400002C0E0E0F0E0CF01DF91CF910895CF93A1
:101E5000DF93009709F487C0FC0132971382128246
:101E6000C0918C02D0918D02209781F42081318124
:101E7000280F391F80918A0290918B028217930755
:101E800079F5F0938B02E0938A026DC0DE0120E0C9
:101E900030E0AE17BF0750F412964D915C91139746
:101EA0009D014115510509F1DA01F3CFB383A283F6
:101EB00040815181840F951F8A179B0771F48D9182
:101EC0009C911197840F951F02969183808312969F
:101ED0008D919C911397938382832115310529F469
:101EE000F0938D02E0938C023EC0D9011396FC93CF
:101EF000EE9312974D915D91A40FB51FEA17FB0762
:101F000079F480819181840F951F0296D9011196F1
:101F10009C938E938281938113969C938E931297B8
:101F2000E0E0F0E08A819B81009719F0FE01EC016E
:101F3000F9CFCE01029628813981820F931F20911B
:101F40008A0230918B022817390769F4309729F4F7
:101F500010928D0210928C0202C013821282D093D2
:101F60008B02C0938A02DF91CF9108958F929F9246
:101F7000AF92BF92CF92DF92EF92FF92CF93DF9317
:101F8000EC01688179818A819B81611571058105E8
:101F9000910521F464E279ED8BE597E02DE133EFD3
:101FA00041E050E081DE49015A019B01AC01A7EA02
:101FB000B1E496DE6B017C01ACEEB4EFA5019401B7
:101FC00058D1C60ED71EE81EF91EF7FE06C081E0E6
:101FD000C81AD108E10880E8F80AC882D982EA82E2
:101FE000FB82C701B6019F77DF91CF91FF90EF9001
:101FF000DF90CF90BF90AF909F908F900895B6CF15
:1020000086E091E0B3CF609306017093070180935F
:102010000801909309010895A0E0B0E0E1E1F0E14A
:1020200030C1EC01CB01209711F479DEB4C0FE0180
:10203000E60FF71F9E0122503109E217F30708F45B
:10204000A8C0D9010D911C91119706171707B0F080
:102050000530110508F49BC0A801445051094617EA
:10206000570708F494C002501109061B170B01937F
:1020700011936D937C93CF01EADE89C05B01A01AB6
:10208000B10A4E01800E911EA0918C02B0918D027A
:10209000612C712C60E070E0109709F449C0A8151C
:1020A000B905C9F5ED90FC901197670142E0C40EA7
:1020B000D11CCA14DB0478F147018A189B0864011B
:1020C00042E0C40ED11C1296BC9012971396AC91AC
:1020D000B5E0CB16D10440F0B282A3839182808216
:1020E000D9018D939C9309C00E5F1F4F0E0D1F1DCC
:1020F000F90111830083EB2DFA2F6115710531F081
:10210000DB011396FC93EE93129741C0F0938D027E
:10211000E0938C023CC06D917C9111976616770616
:1021200008F43B01BD0112960D90BC91A02DB4CFD7
:1021300060918A0270918B0268157905E9F468163E
:102140007906D0F4409100015091010141155105EB
:1021500041F44DB75EB76091040170910501461BD3
:10216000570BE417F507A8F4F0938B02E0938A026B
:10217000F901918380830BC0D2DD7C01009749F087
:10218000A801BE013AD0CE0162DEC70104C0CE0173
:1021900002C080E090E0CDB7DEB7EEE08EC01F93C6
:1021A000FC0199278827BC01E89411911032E9F3CA
:1021B000193010F01E30C8F31B3249F01D3241F4C3
:1021C000689405C03CD0610F711D811D911D119156
:1021D00010531A30B8F33EF4909580957095619540
:1021E0007F4F8F4F9F4F1F91089591113DC08032B7
:1021F00019F089508550D0F70895FB01DC0102C029
:1022000001900D9241505040D8F70895DC0101C073
:102210006D9341505040E0F70895FC01819186177D
:1022200021F08823D9F7992708953197CF01089590
:10223000FB01DC0101900D920020E1F70895592F78
:10224000482F372F262F660F771F881F991F660F7D
:10225000771F881F991F620F731F841F951F660FBA
:10226000771F881F991F0895992788270895B7FF1A
:1022700037CD36DD821B930B08952F923F924F92FC
:102280005F926F927F928F929F92AF92BF92CF9206
:10229000DF92EF92FF920F931F93CF93DF93CDB70F
:1022A000DEB7CA1BDB0B0FB6F894DEBF0FBECDBF87
:1022B00009942A88398848885F846E847D848C8458
:1022C0009B84AA84B984C884DF80EE80FD800C8161
:1022D0001B81AA81B981CE0FD11D0FB6F894DEBF44
:1022E0000FBECDBFED01089510E0CCEBD0E003C0F0
:1022F000FE0102DD2296CE3BD107D1F7F894FFCF45
:1023000000008E0220000100000001010A53706CE1
:10231000697474656420537472696E6773005365E1
:102320007269616C205265636965766564006D61F0
:1023300073746572004265666F726520496E6974D8
:102340000041667465720000000000E8054F076CEC
:102350000585057705C7050D0A006E616E00696E7B
:0823600066006F7666002E0096
:00000001FF
