:100000005EC0000084C0000082C0000080C000000C
:100010007EC000007CC000007AC0000078C00000F4
:1000200076C0000074C0000072C0000070C0000004
:100030006EC000006CC000006AC0000068C0000014
:100040000C94BC0B64C0000095C70000C5C700003D
:100050005EC000005CC000005AC0000058C0000034
:1000600056C0000054C0000000000008000201005B
:100070000003040700000000000000000102040863
:100080001020408001020408102001020408102002
:10009000040404040404040402020202020203032E
:1000A0000303030300000000250028002B000000CC
:1000B0000000240027002A0084041A08E9041124FF
:1000C0001FBECFEFD8E0DEBFCDBF11E0A0E0B1E0B2
:1000D000EAE2F5E202C005900D92AC34B107D9F71F
:1000E00022E0ACE4B1E001C01D92AD38B207E1F707
:1000F00010E0CCEBD0E004C02297FE010E94910FEB
:10010000C83BD107C9F70E94B10B0C94891278CF74
:10011000CF92DF92EF92FF920F931F93CF93DF93D3
:100120007C01162FD42EC22EC0E0D0E0F7018081D2
:100130009181C817D9075CF40C2D2D2D412FBE01DC
:10014000F701848195810E94980D2196EFCFDF9170
:10015000CF911F910F91FF90EF90DF90CF90089576
:1001600080916801909169010C94D70CAF92BF9275
:10017000CF92DF92EF92FF920F931F93CF93DF9373
:1001800000D000D000D0CDB7DEB76C0103EC11E099
:1001900081EDA82E81E0B82EE12CF12CE114F104C0
:1001A000C9F46CE2C6010E94040B9093C6018093CF
:1001B000C5019C0142E050E0B601CE0101960E94CB
:1001C000070BCE0101960E94A60B7093D20160939B
:1001D000D1011DC0F801408151814F5F5F4F6CE23A
:1001E000C6010E94E90AF80193838283408151810C
:1001F0004F5F5F4F9C01B601CE0101960E94070B35
:10020000CE0101960E94A60BF50171836083CE0199
:1002100001960E94FE09FFEFEF1AFF0A0E5F1F4FC3
:1002200082E0A80EB11CE5E0EE16F10409F0B6CFAD
:100230000091D1011091D2016091D3018091D4013C
:1002400060938301809384014091D5018091D60110
:1002500040938101809382012091D7018091D80140
:1002600020937F018093800181E08093E20101155A
:10027000110519F484E691E04BDF98012150310912
:100280002830310578F449E0429FC001439F900D2A
:10029000112420917F0140918101609183018C594B
:1002A0009E4F1EC00930110571F481E08093DF017B
:1002B0000E94060C60937301709374018093750122
:1002C000909376010EC00A30110559F41092DF01A7
:1002D00020917F01409181016091830184E691E04A
:1002E00017DF81E08093DD0126960FB6F894DEBF1C
:1002F0000FBECDBFDF91CF911F910F91FF90EF9077
:10030000DF90CF90BF90AF900895AF92BF92CF9201
:10031000DF92EF92FF920F931F93CF93DF9300D062
:1003200000D000D0CDB7DEB76C0103EC11E021EDB9
:10033000A22E21E0B22EE12CF12CE114F104C9F43B
:100340006CE2C6010E94040B9093C6018093C50124
:100350009C0142E050E0B601CE0101960E94070BDD
:10036000CE0101960E94A60B7093D2016093D10139
:100370001DC0F801408151814F5F5F4F6CE2C601A3
:100380000E94E90AF80193838283408151814F5F83
:100390005F4F9C01B601CE0101960E94070BCE0172
:1003A00001960E94A60BF50171836083CE01019630
:1003B0000E94FE09FFEFEF1AFF0A0E5F1F4F82E057
:1003C000A80EB11CE6E0EE16F10409F0B6CF80915C
:1003D000D1019091D201E091D301F091D4016091CB
:1003E000D5012091D60160937D0120937E0150912B
:1003F000D7012091D80150937B0120937C0140913B
:10040000D9012091DA014093790120937A0120915A
:10041000DB013091DC013093780120937701109259
:10042000DE01009739F460936A0150936B014093A9
:100430006C011EC01E161F067CF493E0EE0FFF1F1A
:100440009A95E1F7EC5BFE4F65835683478381E025
:100450008093DE0114820CC0019729E0289FF001EF
:10046000299FF00D1124EC59FE4F66835783408776
:1004700010920C0126960FB6F894DEBF0FBECDBFCA
:10048000DF91CF911F910F91FF90EF90DF90CF9070
:10049000BF90AF90089580915001909158018913B9
:1004A00005C0882321F090916001891380E00895B0
:1004B000CF93DF93E901CC0FDD1FCC0FDD1FFE01D1
:1004C000EB57FE4F60837183828393830E94060CF7
:1004D000FE01EB55FE4F6083718382839383DF912E
:1004E000CF9108950F931F93CF93DF93EC010E9458
:1004F000060CAE01440F551F440F551FEA01CB55A2
:10050000DE4F088119812A813B81601B710B820BB0
:10051000930BFA01EB57FE4F008111812281338149
:10052000601771078207930740F00E94060C6883EA
:1005300079838A839B8381E001C080E0DF91CF9142
:100540001F910F9108953F924F925F926F927F9209
:100550008F929F92AF92BF92CF92DF92EF92FF92D3
:100560000F931F93CF93DF93E12CF12C29E0289F69
:10057000E001299FD00D1124CC59DE4F2E0186E0D9
:10058000480E511C3E01A7E06A0E711C4E01B8E0F6
:100590008B0E911C332433948C819D810E94590EC3
:1005A000E816F9060CF091C0B7018C819D810E947C
:1005B0001B0EC82ED12CA72EB12C062F10E0E091D7
:1005C0000A01F0E0D2014C9150E0CA018C199D095A
:1005D00097FF03C0919581959109E817F9074CF4AD
:1005E000C416D5061CF4CE0EDF1E04C0CE1ADF0AD8
:1005F00001C06A01D3012C9130E0C9018A199B091D
:1006000097FF03C0919581959109E817F9074CF47C
:10061000A216B3061CF4AE0EBF1E04C0AE1ABF0A6B
:1006200001C05901D4018C9190E0BC01601B710B99
:1006300077FF03C0719561957109E617F7074CF4D0
:10064000081719071CF40E0F1F1F04C00E1B1F0BE9
:1006500001C08C01C416D50651F4A216B30639F4B4
:100660000817190721F430920C013092E0018091B3
:10067000E101882329F081E090E034DF811117C087
:100680002A2D4C2DB7018C819D810E94980D60917F
:10069000770170917801882777FD8095982F20E069
:1006A00030E0A90105DFBFEFEB1AFB0A75CF2FEF92
:1006B00030E040E050E062E370E080E090E083D61C
:1006C0008C819D810E945D0EDBCFDF91CF911F91C8
:1006D0000F91FF90EF90DF90CF90BF90AF909F90E1
:1006E0008F907F906F905F904F903F9008952F92E2
:1006F0003F924F925F926F927F928F929F92AF92B2
:10070000BF92CF92DF92EF92FF920F931F93CF93FE
:10071000DF9300D000D0CDB7DEB7FCE4AF2EF1E020
:10072000BF2E23E531E03C832B8329E0289F700115
:10073000299FF00C1124C7018C599E4F7C01D501D3
:10074000CD90DC904B805C80B2E04B1A5108EB817D
:10075000FC813197FA83E9832B803C80F3E02F1AE8
:100760003108F50182819381C816D9060CF08CC03E
:10077000B601D70114968D919C9115970E941B0E7E
:10078000682E712C872E912C062F10E020910A01E3
:1007900030E0D201EC91F0E0CF018619970997FF84
:1007A00003C0919581959109281739074CF46E166D
:1007B0007F061CF4620E731E04C0621A730A01C025
:1007C0003F01A981BA814C9150E0CA018819990969
:1007D00097FF03C0919581959109281739074CF42B
:1007E000841695061CF4820E931E04C0821A930A86
:1007F00001C04A01AB81BC818C9190E0BC01601BBF
:10080000710B77FF03C07195619571092617370742
:100810004CF4081719071CF4020F131F04C0021B25
:10082000130B01C08C016E167F0659F484169506D1
:1008300041F40817190729F421E0F10120832093DE
:10084000E0018091E101882329F081E090E04ADE17
:10085000811132C0282D462DB601D70114968D91F5
:100860009C9115970E94980D609177017091780185
:10087000882777FD8095982F20E030E0A90118DEC9
:10088000BFEFCB1ADB0A6DCFF8E0AF0EB11C2B81A6
:100890003C81285F3F4F3C832B8334E6A31631E035
:1008A000B30609F04CCFF7DD8823B9F081E08093DF
:1008B0000C011092DE0111C02FEF30E040E050E05B
:1008C00062E370E080E090E07ED5D70114968D91D0
:1008D0009C9115970E945D0EBDCF0F900F900F90C9
:1008E0000F90DF91CF911F910F91FF90EF90DF90CC
:1008F000CF90BF90AF909F908F907F906F905F90C0
:100900004F903F902F900895CF92DF92EF92FF92F9
:100910000F931F93CF93DF936DE371E08DE691E02A
:10092000D4D5A4E6CA2EA1E0DA2EC2E2D0E0F601C8
:10093000D183C083B6E6EB2EB1E0FB2E82E090E0DF
:10094000F7019183808380E190E015D78C01F60157
:100950006081718123E0F7014081E8D7109369013C
:100960000093680110926C0110924D0110924C019D
:1009700084E190E090934F0180934E0110925001DA
:100980001092530185E190E09093550180935401BA
:100990008EE190E090935701809356011092580198
:1009A00010925B018FE190E090935D0180935C0178
:1009B000D0935F01C0935E011092600110926301B9
:1009C000DF91CF911F910F91FF90EF90DF90CF902B
:1009D00008958DE691E012C58F929F92AF92BF92DB
:1009E000CF92DF92EF92FF920F931F93CF93DF93FB
:1009F00000D000D000D0CDB7DEB783EE91E07AD141
:100A0000181619060CF056C040910D0163EE71E006
:100A1000CE01019692D4BE016F5F7F4F8DE691E0CB
:100A200069D5CE010196EAD48DE691E033D664E52E
:100A30008DE691E0E9D5892B39F464E78DE691E004
:100A4000E3D5019709F4D4C063E48DE691E0DCD5E9
:100A5000892B39F463E68DE691E0D6D5019709F448
:100A6000D3C063E58DE691E0CFD5892B19F563E717
:100A70008DE691E0C9D50197E9F40CE411E0F801A5
:100A8000608171814AE050E083EE91E00DD46EE028
:100A900071E083EE91E05AD3F801628173814AE0FC
:100AA00050E083EE91E007D4085F1F4FF1E0043679
:100AB0001F0729F78091DF01882309F478C0A6D6A3
:100AC00000917301109174012091750130917601AC
:100AD000601B710B820B930B6C33710581059105C3
:100AE00008F465C093D624E130E040E050E00E9475
:100AF000470FCA01B90120E035E040E050E00E9414
:100B0000470FD62EE62EEE0CE60E8E2D8195F12C9B
:100B100000E010E0CC24C394CE0C9EEFB92EB80EAA
:100B20002DEFA22EA80E32E0932E9E0C88248A94DC
:100B3000880E80916801909169010E94590E0817F2
:100B4000190738F59F2D9D0D953530F440E0682D3F
:100B50006F0D8F2D8E0D0DC09A3A30F04A2D4F0D2E
:100B6000692D6F0D80E005C04C2D4F0D60E08B2D81
:100B70008F0D0E94120E9B01AC01B801809168019B
:100B8000909169010E94CC0D0F5F1F4F80E8F80E15
:100B9000D0CF809168019091690109D737D66093D1
:100BA0007301709374018093750190937601809125
:100BB0000A018823A9F080910C01811111C080E005
:100BC00090E090DC882361F01092E00181E0809356
:100BD000DD018091DE01882319F180E090E087DD5E
:100BE0008091DD01882301F1BBDA1092DD011CC088
:100BF0006DE671E0CE01019692D4CE01019685DBBF
:100C0000CE010196FBD320CF6DE671E0CE010196B7
:100C100086D4CE010196AADACE010196EFD321CF78
:100C200080E090E090DCDCCF26960FB6F894DEBF33
:100C30000FBECDBFDF91CF911F910F91FF90EF902D
:100C4000DF90CF90BF90AF909F908F900895CF93FB
:100C500068EE73E080E090E008D6C1E083EE91E0BA
:100C600049D01816190684F062E171E083EE91E034
:100C700062D283EE91E067D2C0930B016CE271E027
:100C800080E090E0F2D5EACFCF910895CF93DF9343
:100C900026E040E051EE60E070E083EE91E00AD1A2
:100CA00069E171E083EE91E051D2C4E6D1E08C813C
:100CB0009D817DD68C819D816FD66FEF8C819D81CA
:100CC000FCD765E271E083EE91E040D2C0DF20E026
:100CD00030E0A90161E070E080E090E0E9DB21E034
:100CE00030E040E050E061E070E080E090E0DF91D3
:100CF000CF91DECBFC01818D228D90E0805C9F4FF7
:100D0000821B91098F7399270895FC01918D828D23
:100D1000981731F0828DE80FF11D858D90E00895D0
:100D20008FEF9FEF0895FC01918D828D981761F0F0
:100D3000828DDF01A80FB11D5D968C91928D9F5F12
:100D40009F73928F90E008958FEF9FEF089581E158
:100D500098E0892B41F080E090E0892B21F061D16F
:100D600081110C9400000895FC01848DDF01A80F0F
:100D7000B11DA35ABF4F2C91848D90E001968F73C3
:100D80009927848FA689B7892C93A089B1898C91E2
:100D900080648C93938D848D981306C00288F389A8
:100DA000E02D80818F7D80830895CF93DF93EC01C8
:100DB000888D8823C1F0EA89FB89808185FD05C083
:100DC000A889B9898C9186FD0EC00FB607FCF5CFB6
:100DD000808185FFF2CFA889B9898C9185FFEDCFFD
:100DE000CE01C2DFE8CFDF91CF910895CF92DF929D
:100DF000FF920F931F93CF93DF931F92CDB7DEB770
:100E00006C0181E0D60158968C9358975B969C9123
:100E10005B975C968C915C97981307C05096ED9108
:100E2000FC915197808185FD2DC0F601038D10E066
:100E30000F5F1F4F0F731127F02EF601848DF812EC
:100E400010C00FB607FCF9CFD6015096ED91FC917A
:100E50005197808185FFF1CFC601698385DF698164
:100E6000ECCF838DE80FF11DE35AFF4F6083D6016D
:100E70005B960C935B975296ED91FC915397808112
:100E800080620CC0D6015696ED91FC915797608315
:100E90005096ED91FC91519780818064808381E030
:100EA00090E00F90DF91CF911F910F91FF90DF9015
:100EB000CF900895BF92CF92DF92EF92FF92CF939F
:100EC000DF93EC016A017B01B22EE889F98982E0A7
:100ED0008083411581EE58076105710599F060E046
:100EE00079E08DE390E0A7019601D1D72150310937
:100EF000410951095695479537952795211580E168
:100F0000380790F0E889F989108260E874E88EE18A
:100F100090E0A7019601BBD7215031094109510941
:100F20005695479537952795EC85FD853083EE8559
:100F3000FF852083188EEC89FD89B082EA89FB89C0
:100F4000808180618083EA89FB89808188608083D9
:100F5000EA89FB89808180688083EA89FB898081B6
:100F60008F7D8083DF91CF91FF90EF90DF90CF90C6
:100F7000BF9008951F920F920FB60F9211242F93D6
:100F80008F939F93EF93FF93E091F301F091F4011E
:100F90008081E091F901F091FA0182FD12C0908107
:100FA0008091FC018F5F8F732091FD01821751F0BA
:100FB000E091FC01F0E0ED51FE4F958F8093FC0134
:100FC00001C08081FF91EF919F918F912F910F90A0
:100FD0000FBE0F901F9018951F920F920FB60F9291
:100FE00011242F933F934F935F936F937F938F932E
:100FF0009F93AF93BF93EF93FF9383EE91E0B4DEA3
:10100000FF91EF91BF91AF919F918F917F916F91E0
:101010005F914F913F912F910F900FBE0F901F90B6
:10102000189583EE91E066DE21E0892B09F420E03B
:10103000822F08951092E6011092E50188EE93E068
:10104000A0E0B0E08093E7019093E801A093E9016C
:10105000B093EA018FE291E09093E4018093E30181
:1010600085EC90E09093F0018093EF0184EC90E0A8
:101070009093F2018093F10180EC90E09093F40161
:101080008093F30181EC90E09093F6018093F50159
:1010900082EC90E09093F8018093F70186EC90E069
:1010A0009093FA018093F9011092FC011092FD01D6
:1010B0001092FE011092FF010895CF92DF92EF92FD
:1010C000FF920F931F93CF93DF937C016A01EB0193
:1010D00000E010E00C151D0571F06991D701ED914C
:1010E000FC910190F081E02DC7010995892B19F041
:1010F0000F5F1F4FEFCFC801DF91CF911F910F916D
:10110000FF90EF90DF90CF9008956115710581F009
:10111000DB010D900020E9F7AD0141505109461B5C
:10112000570BDC01ED91FC910280F381E02D0994D5
:1011300080E090E00895E9CFDC01ED91FC91019011
:10114000F081E02D09946BE371E0DFCF0F931F93E3
:10115000CF93DF93EC01D9DF8C01CE01F4DF800F58
:10116000911FDF91CF911F910F9108958F929F92C0
:10117000AF92BF92CF92DF92EF92FF920F931F93A5
:10118000CF93DF93CDB7DEB7A1970FB6F894DEBF4C
:101190000FBECDBF7C01C42EE52FCB01D22E19A2EC
:1011A00021E02D1510F02AE0D22E8E010F5D1F4F89
:1011B0008D2C912CA12CB12C6C2D7E2FA50194018E
:1011C00066D68C2DD29E80191124015011098A30C7
:1011D00014F4805D01C0895CF8018083211531051C
:1011E0004105510521F0C22EE32FCA01E5CFB80118
:1011F000C7018BDFA1960FB6F894DEBF0FBECDBF3F
:10120000DF91CF911F910F91FF90EF90DF90CF90E2
:10121000BF90AF909F908F900895CF92DF92EF9202
:10122000FF920F931F93CF93DF93EC016A017B0131
:101230002115310579F4E881F9810190F081E02DE3
:10124000642FDF91CF911F910F91FF90EF90DF906E
:10125000CF9009942A303105D9F477FF18C06DE298
:101260006BDF8C0144275527BA014C195D096E09C3
:101270007F092AE0CE017ADF800F911FDF91CF91A5
:101280001F910F91FF90EF90DF90CF9008952AE08B
:10129000B701A601CE01DF91CF911F910F91FF9071
:1012A000EF90DF90CF9062CF9A01AB01662757FD98
:1012B0006095762FB2CF0F931F93CF93DF93EC01FE
:1012C0009A01AB01662757FD6095762FA6DF8C014A
:1012D000CE0139DF800F911FDF91CF911F910F91C8
:1012E00008950F931F93CF93DF93EC018FD26887FC
:1012F00079878A879B87E881F9810680F781E02DCD
:10130000CE01099597FF14C081D2088519852A85D9
:101310003B85601B710B820B930B0C811D812E8111
:101320003F81601771078207930728F38FEF9FEFC4
:10133000DF91CF911F910F910895EF92FF920F933C
:101340001F93CF93DF93EC018B01E42E6DE371E0EB
:10135000BCD0C801C6DFFF24E7FCF09497FD09C0AC
:101360008E159F0531F0682FCE0121D1C801B9DF5C
:10137000F5CFCE01DF91CF911F910F91FF90EF90AC
:101380000895CF93DF9300D000D0CDB7DEB79B0197
:10139000AC01611571058105910559F069833A83A6
:1013A0004B835C8342D729813A814B815C8191D503
:1013B00003C060E070E0CB010F900F900F900F9092
:1013C000DF91CF910895CF92DF92EF92FF926B0160
:1013D0007C0162177307840795075CF4CA01B901A1
:1013E0006C197D098E099F09CCDF6C0D7D1D8E1D4A
:1013F0009F1DFF90EF90DF90CF900895FC018081BA
:1014000091813AC6CF93DF93EC018881998100974F
:1014100009F032D6198218821D821C821B821A8220
:10142000DF91CF9108950F931F93CF93DF93EC013A
:101430008B016F5F7F4F8881998103D7009731F0CF
:10144000998388831B830A8381E001C080E0DF9158
:10145000CF911F910F910895CF93DF93EC01888175
:101460009981892B29F08A819B818617970758F4E7
:10147000CE01D9DF882341F08C819D81892B19F41D
:10148000E881F981108281E0DF91CF910895EF9298
:10149000FF920F931F93CF93DF93EC017B018A019F
:1014A000BA01DADF811103C0CE01ACDF06C01D83B3
:1014B0000C83B70188819981D0D7CE01DF91CF917C
:1014C0001F910F91FF90EF900895FC0111821082FF
:1014D00013821282158214826115710551F0FB018D
:1014E00001900020E9F7AF0141505109461B570B0D
:1014F000CECF0895CF93DF93EC01FB0186179707BA
:1015000051F0608171816115710521F0448155812F
:10151000BEDF01C077DFCE01DF91CF910895FC01DE
:10152000118210821382128215821482E3CFCF932C
:10153000DF93EC016115710559F0FB01019000206A
:10154000E9F7AF0141505109461B570BA0DF01C01D
:1015500059DFCE01DF91CF910895EF92FF920F9363
:101560001F93CF93DF93EC017B010C811D816115EB
:10157000710511F480E014C04115510581F0040F8C
:10158000151FB80169DF8823A9F3288139818C816F
:101590009D81B701820F931F60D71D830C8381E06B
:1015A000DF91CF911F910F91FF90EF900895CF930E
:1015B000DF9300D0CDB7DEB769831A8241E050E0F7
:1015C000BE016F5F7F4FC9DF0F900F90DF91CF910A
:1015D0000895CF93DF93FC018481958148175907C3
:1015E00070F4C081D181772767FD7095CE01840F9B
:1015F000951F28D7009719F08C1B9D0B02C08FEF09
:101600009FEFDF91CF91089540E050E0E2CFBF928D
:10161000CF92DF92EF92FF920F931F93CF93DF93BE
:101620006C017B01EA0189012417350720F48D2F15
:10163000E901042F182F6DE371E0C60146DFD701E1
:1016400014968D919C911597C817D907C0F48017EF
:10165000910708F48C01D701ED91FC911197E00FEF
:10166000F11FB08010826D917C916C0F7D1FC601BF
:101670005EDFD701ED91FC91E00FF11FB082C60152
:10168000DF91CF911F910F91FF90EF90DF90CF905E
:10169000BF900895AF92BF92CF92DF92EF92FF92E8
:1016A0000F931F93CF93DF937C01DC01CD90DC90EF
:1016B0001197C114D10409F43EC01496CD91DC9168
:1016C00015972097C1F156018501BFEFAB1ABB0AF0
:1016D000F8018081992787FD90959CD6892BA1F7E9
:1016E0002197CC0DDD1D8881992787FD909592D695
:1016F000892B89F4AE014F5F5F4F401B510BD7011F
:1017000015965C934E931497C016D10648F4B80111
:10171000C60188D605C0C017D10760F32197E3CF73
:10172000D701ED91FC91119714968D919C9115978D
:10173000E80FF91F1082DF91CF911F910F91FF9059
:10174000EF90DF90CF90BF90AF900895FC01808123
:101750009181009709F038C660E070E0CB010895F0
:101760000895A8D0FDDF92DAC7EAD6E035D92097F0
:10177000E9F3EDDAFBCFE8C31F920F920FB60F9299
:1017800011242F933F938F939F93AF93BF93809197
:10179000810290918202A0918302B09184023091E3
:1017A000800223E0230F2D3720F40196A11DB11DE7
:1017B00005C026E8230F0296A11DB11D20938002CB
:1017C0008093810290938202A0938302B09384025B
:1017D0008091850290918602A0918702B091880243
:1017E0000196A11DB11D8093850290938602A0935E
:1017F0008702B0938802BF91AF919F918F913F91E3
:101800002F910F900FBE0F901F9018952FB7F8943F
:101810006091810270918202809183029091840292
:101820002FBF08953FB7F89480918502909186026A
:10183000A0918702B091880226B5A89B05C02F3FD2
:1018400019F00196A11DB11D3FBF6627782F892F82
:101850009A2F620F711D811D911D42E0660F771F47
:10186000881F991F4A95D1F70895CF92DF92EF9282
:10187000FF92CF93DF936B017C01D4DFEB01C114A6
:10188000D104E104F10479F050D0CCDF6C1B7D0B66
:10189000683E7340A0F381E0C81AD108E108F1085E
:1018A000C851DC4FECCFDF91CF91FF90EF90DF90EC
:1018B000CF900895789484B5826084BD84B58160AA
:1018C00084BD85B5826085BD85B5816085BDEEE648
:1018D000F0E0808181608083E1E8F0E01082808127
:1018E00082608083808181608083E0E8F0E0808195
:1018F00081608083E1EBF0E0808184608083E0EBB5
:10190000F0E0808181608083EAE7F0E0808184609C
:1019100080838081826080838081816080838081F8
:10192000806880831092C100089508950F931F93DB
:10193000CF93DF93EC01798368838B01000F111F34
:10194000060F171F1B830A832C834D8350E0FA0177
:10195000E057FF4FE491F0E0EE0FFF1FEC55FF4F13
:10196000859194919E878D87FA01E458FF4F4491A9
:101970004F87C801E9D298878F83009741F0A8016B
:1019800060E070E0DF91CF911F910F9154C5DF911E
:10199000CF911F910F910895CF93DF93EC0161E0F8
:1019A0008D81F3D160E08D81DF91CF9127C2CF92FD
:1019B000DF92EF92FF920F931F93CF93DF93CDB7F8
:1019C000DEB729970FB6F894DEBF0FBECDBF8C01EE
:1019D000DC0117968D919C911897892B09F499C079
:1019E00021DFF801C184D284E384F4846C197D0979
:1019F0008E099F09623371058105910588F3F8947A
:101A0000828193819A838983A781B0857D01EFEFDD
:101A1000EE1AFE0A8C918987D80114969C9114972E
:101A20001D960D90BC91A02DF801878591FF2EC0C9
:101A30009C91982B98879C91809589238F838F8187
:101A40008E8388E08D8358856F8149853D812E8105
:101A500089819A81F7015C9347FD252F3A952C9354
:101A6000262F39F0441F00C000006C93000000C016
:101A7000F2CF38E041916C930000019761F7F801D3
:101A8000B687A58749873D832E8338C09C91982BC4
:101A900098879C91809589238F838F818C8388E0A0
:101AA0008B8358856F8149853B812C8189819A81FF
:101AB000F7015C9347FD252F00C000C02C9300C0A8
:101AC00000C000C000C000C06C930000262F3A95F3
:101AD00041F0441F000000C000C000C000C000C0B2
:101AE000E8CF38E0419100C06C9300C0019709F73E
:101AF000F801B687A58749873B832C839A8389831E
:101B0000789490DED80119966D937D938D939C9374
:101B10001C9729960FB6F894DEBF0FBECDBFDF919C
:101B2000CF911F910F91FF90EF90DF90CF9008958C
:101B30000F931F93DC018D919C9111976817790782
:101B400040F516968C911697882361F0489FA00166
:101B50001124452F289F90011124232F089F8001D5
:101B60001124012FCB01880F991F860F971F1796FD
:101B7000ED91FC911897E80FF91F14968C91DF01F5
:101B8000129680FF03C02083418302C040832183DB
:101B90000C931F910F910895CF92DF92EF92FF92D5
:101BA0000F931F93CF93DF93FC018081918168177E
:101BB000790778F5CA01AA27BB27182FC32ED42E80
:101BC000E52EFF24DC2D022FC681CC2361F08C9FF3
:101BD000C0011124192FCC9E60011124DD2D2C9FF2
:101BE00090011124032FCB01880F991F860F971F97
:101BF000A781B085A80FB91F8481FD01329680FFAF
:101C000004C0DC9311961C9303C01C931196DC93C3
:101C10000083DF91CF911F910F91FF90EF90DF90A4
:101C2000CF900895962F50E060E070E0592B682B1C
:101C3000CB01BA0108950F931F93DC018D919C9104
:101C400011976817790778F5CB01880F991F860FD0
:101C5000971F1796ED91FC911897E80FF91F428195
:101C600050E060E070E014968C91218180FF0AC002
:101C7000808190E0A0E0B0E0BA2FA92F982F8827AC
:101C8000A22B08C0808190E0A0E0B0E0DC019927A1
:101C90008827922B8C019D01042B152B262B372B8B
:101CA000C901B80103C060E070E0CB011F910F9142
:101CB0000895FC01808191810895FF920F931F93F5
:101CC000CF93DF93EC01FF24F394F60E2E81F216EE
:101CD00069F10F8118852150A9F06F3F51F430E070
:101CE00040E050E06FEF7FEF80E090E0F2D0B9018C
:101CF0000BC08F2D90E0982F88270197622F70E0FE
:101D0000B2D002C060E070E0F8018A819B81AF012F
:101D1000401B510B4817590740F44081469FC001B2
:101D2000479F900D11249193F0CFFE82DF91CF91C8
:101D30001F910F91FF900895833081F028F4813036
:101D400099F08230A1F008958730A9F08830B9F079
:101D50008430D1F4809180008F7D03C08091800019
:101D60008F7780938000089584B58F7702C084B503
:101D70008F7D84BD08958091B0008F7703C08091DE
:101D8000B0008F7D8093B0000895CF93DF9390E0F3
:101D9000FC01E458FF4F2491FC01E057FF4F849170
:101DA000882349F190E0880F991FFC01E255FF4F0D
:101DB000A591B4918C559F4FFC01C591D4919FB7CB
:101DC000611108C0F8948C91209582238C938881AE
:101DD00082230AC0623051F4F8948C91322F3095EE
:101DE00083238C938881822B888304C0F8948C9100
:101DF000822B8C939FBFDF91CF9108950F931F93F8
:101E0000CF93DF931F92CDB7DEB7282F30E0F901D3
:101E1000E859FF4F8491F901E458FF4F1491F901FB
:101E2000E057FF4F04910023C1F0882319F0698324
:101E300083DF6981E02FF0E0EE0FFF1FEC55FF4FCD
:101E4000A591B4919FB7F8948C91611103C010953E
:101E5000812301C0812B8C939FBF0F90DF91CF9185
:101E60001F910F910895AA1BBB1B51E107C0AA1F28
:101E7000BB1FA617B70710F0A61BB70B881F991F2B
:101E80005A95A9F780959095BC01CD010895A1E2DE
:101E90001A2EAA1BBB1BFD010DC0AA1FBB1FEE1FE4
:101EA000FF1FA217B307E407F50720F0A21BB30B2F
:101EB000E40BF50B661F771F881F991F1A9469F7AB
:101EC00060957095809590959B01AC01BD01CF0107
:101ED0000895052E97FB16F400940FD057FD05D0FA
:101EE000D6DF07FC02D046F408C0509540953095E7
:101EF00021953F4F4F4F5F4F089590958095709576
:101F000061957F4F8F4F9F4F08950FD0A59F900DE4
:101F1000B49F900DA49F800D911D11240895EE0F84
:101F2000FF1F0590F491E02D0994A29FB001B39F8B
:101F3000C001A39F700D811D1124911DB29F700DD2
:101F4000811D1124911D0895CF93DF938230910557
:101F500010F482E090E0E0918B02F0918C0220E09E
:101F600030E0A0E0B0E0309739F14081518148176E
:101F70005907B8F04817590771F482819381109777
:101F800029F013969C938E9312972CC090938C02F9
:101F900080938B0227C02115310531F0421753077A
:101FA00018F0A901DB0101C0EF019A01BD01DF01B9
:101FB0000280F381E02DD7CF21153105F9F0281BE0
:101FC000390B2430310580F48A819B8161157105BC
:101FD00021F0FB019383828304C090938C02809351
:101FE0008B02FE01329644C0FE01E20FF31F819383
:101FF000919322503109398328833AC02091890274
:1020000030918A02232B41F4209102013091030187
:1020100030938A02209389022091000130910101BE
:102020002115310541F42DB73EB74091040150917F
:102030000501241B350BE0918902F0918A02E21719
:10204000F307A0F42E1B3F0B2817390778F0AC01DB
:102050004E5F5F4F2417350748F04E0F5F1F5093B8
:102060008A02409389028193919302C0E0E0F0E0FC
:10207000CF01DF91CF910895CF93DF93009709F4BB
:1020800087C0FC01329713821282C0918B02D091DB
:102090008C02209781F420813181280F391F809193
:1020A000890290918A028217930779F5F0938A0248
:1020B000E09389026DC0DE0120E030E0AE17BF077B
:1020C00050F412964D915C9113979D014115510565
:1020D00009F1DA01F3CFB383A28340815181840FE8
:1020E000951F8A179B0771F48D919C911197840F0E
:1020F000951F02969183808312968D919C911397E0
:10210000938382832115310529F4F0938C02E093A7
:102110008B023EC0D9011396FC93EE9312974D911A
:102120005D91A40FB51FEA17FB0779F480819181B7
:10213000840F951F0296D90111969C938E938281EC
:10214000938113969C938E931297E0E0F0E08A813E
:102150009B81009719F0FE01EC01F9CFCE010296A8
:1021600028813981820F931F2091890230918A0240
:102170002817390769F4309729F410928C021092CD
:102180008B0202C013821282D0938A02C09389020A
:10219000DF91CF9108958F929F92AF92BF92CF928D
:1021A000DF92EF92FF92CF93DF93EC016881798108
:1021B0008A819B81611571058105910521F464E295
:1021C00079ED8BE597E02DE133EF41E050E081DEE2
:1021D00049015A019B01AC01A7EAB1E496DE6B010B
:1021E0007C01ACEEB4EFA501940158D1C60ED71E08
:1021F000E81EF91EF7FE06C081E0C81AD108E10802
:1022000080E8F80AC882D982EA82FB82C701B60157
:102210009F77DF91CF91FF90EF90DF90CF90BF90AD
:10222000AF909F908F900895B6CF86E091E0B3CFA6
:102230006093060170930701809308019093090150
:102240000895A0E0B0E0E6E2F1E130C1EC01CB019D
:10225000209711F479DEB4C0FE01E60FF71F9E014E
:1022600022503109E217F30708F4A8C0D9010D91F3
:102270001C91119706171707B0F00530110508F4E7
:102280009BC0A801445051094617570708F494C051
:1022900002501109061B170B019311936D937C9348
:1022A000CF01EADE89C05B01A01AB10A4E01800E9F
:1022B000911EA0918B02B0918C02612C712C60E078
:1022C00070E0109709F449C0A815B905C9F5ED905B
:1022D000FC901197670142E0C40ED11CCA14DB04C4
:1022E00078F147018A189B08640142E0C40ED11CB2
:1022F0001296BC9012971396AC91B5E0CB16D10410
:1023000040F0B282A38391828082D9018D939C9305
:1023100009C00E5F1F4F0E0D1F1DF90111830083B1
:10232000EB2DFA2F6115710531F0DB011396FC934B
:10233000EE93129741C0F0938C02E0938B023CC065
:102340006D917C9111976616770608F43B01BD01EB
:1023500012960D90BC91A02DB4CF6091890270911E
:102360008A0268157905E9F468167906D0F4409177
:102370000001509101014115510541F44DB75EB77F
:102380006091040170910501461B570BE417F50796
:10239000A8F4F0938A02E0938902F9019183808383
:1023A0000BC0D2DD7C01009749F0A801BE013AD0F4
:1023B000CE0162DEC70104C0CE0102C080E090E021
:1023C000CDB7DEB7EEE08EC01F93FC0199278827BA
:1023D000BC01E89411911032E9F3193010F01E306D
:1023E000C8F31B3249F01D3241F4689405C03CD05B
:1023F000610F711D811D911D119110531A30B8F399
:102400003EF490958095709561957F4F8F4F9F4FCB
:102410001F91089591113DC0803219F08950855067
:10242000D0F70895FB01DC0102C001900D924150EC
:102430005040D8F70895DC0101C06D9341505040E1
:10244000E0F70895FC018191861721F08823D9F7E0
:10245000992708953197CF010895FB01DC01019080
:102460000D920020E1F70895592F482F372F262F7E
:10247000660F771F881F991F660F771F881F991F88
:10248000620F731F841F951F660F771F881F991F88
:102490000895992788270895B7FF37CD36DD821B29
:1024A000930B08952F923F924F925F926F927F927B
:1024B0008F929F92AF92BF92CF92DF92EF92FF9254
:1024C0000F931F93CF93DF93CDB7DEB7CA1BDB0B00
:1024D0000FB6F894DEBF0FBECDBF09942A883988A5
:1024E00048885F846E847D848C849B84AA84B984AC
:1024F000C884DF80EE80FD800C811B81AA81B981B8
:10250000CE0FD11D0FB6F894DEBF0FBECDBFED01CB
:10251000089510E0CCEBD0E003C0FE0102DD22966E
:0A252000CE3BD107D1F7F894FFCFAE
:10252A0000008D022000010000000101010A202F95
:10253A0020006D6173746572004265666F72652072
:10254A00496E69740041667465720000000000F605
:10255A00065D087A0693068506D5060D0A006E61A1
:0C256A006E00696E66006F7666002E0041
:00000001FF
