:100000005EC0000084C0000082C0000080C000000C
:100010007EC000007CC000007AC0000078C00000F4
:1000200076C0000074C0000072C0000070C0000004
:100030006EC000006CC000006AC0000068C0000014
:100040000C94470C64C000000C9435080C946708AD
:100050005EC000005CC000005AC0000058C0000034
:1000600056C0000054C0000000000008000201005B
:100070000003040700000000000000000102040863
:100080001020408001020408102001020408102002
:10009000040404040404040402020202020203032E
:1000A0000303030300000000250028002B000000CC
:1000B0000000240027002A001C0595087E05112455
:1000C0001FBECFEFD8E0DEBFCDBF11E0A0E0B1E0B2
:1000D000E0E4F6E202C005900D92AE34B107D9F724
:1000E00022E0AEE4B1E001C01D92A13AB207E1F70F
:1000F00010E0CCEBD0E004C02297FE010E941C105F
:10010000C83BD107C9F70E943C0C0C94141378CF5C
:10011000CF92DF92EF92FF920F931F93CF93DF93D3
:100120007C01162FD42EC22EC0E0D0E0F7018081D2
:100130009181C817D9075CF40C2D2D2D412FBE01DC
:10014000F701848195810E94230E2196EFCFDF91E4
:10015000CF911F910F91FF90EF90DF90CF90089576
:1001600080916A0190916B010C94620DAF92BF92E5
:10017000CF92DF92EF92FF920F931F93CF93DF9373
:1001800000D000D000D0CDB7DEB76C010DEB11E090
:1001900089EDA82E81E0B82EE12CF12CE114F104B8
:1001A00031F56CE2C6010E948F0BAC01662757FD4A
:1001B0006095762F4093C1015093C2016093C301B3
:1001C0007093C4019C0142E050E0B601CE0101965B
:1001D0000E94920BCE0101960E94310C6093D901CE
:1001E0007093DA018093DB019093DC0126C0F80163
:1001F000408151814F5F5F4F6CE2C6010E94740BDA
:10020000AC01662757FD6095762FF801448355832E
:1002100066837783408151814F5F5F4F9C01B601B8
:10022000CE0101960E94920BCE0101960E94310CE4
:10023000F5016083718382839383CE0101960E94CE
:10024000890AFFEFEF1AFF0A0C5F1F4F84E0A80E28
:10025000B11CE5E0EE16F10409F0A0CFC090D90181
:10026000D090DA01E090DB01F090DC018601609132
:10027000DD018091DE0160937F01809380014091D8
:10028000E1018091E20140937D0180937E01209104
:10029000E5018091E60120937B0180937C0181E060
:1002A0008093F601C114D10419F486E691E030DFA1
:1002B000F1E0CF1AD10888E0C816D10478F429E01B
:1002C0002C9DC0012D9D900D112420917B0140910A
:1002D0007D0160917F018A599E4F1ADF0930110517
:1002E00071F481E08093F3010E94910C6093750199
:1002F0007093760180937701909378010EC00A3055
:10030000110559F41092F30120917B0140917D0178
:1003100060917F0186E691E0FBDE81E08093F10150
:1003200026960FB6F894DEBF0FBECDBFDF91CF91FA
:100330001F910F91FF90EF90DF90CF90BF90AF9003
:1003400008952F923F924F925F926F927F928F9279
:100350009F92AF92BF92CF92DF92EF92FF920F9354
:100360001F93CF93DF93CDB7DEB72C970FB6F894DA
:10037000DEBF0FBECDBF6C010DEB11E099EDA92ED4
:1003800091E0B92EE12CF12CE114F10431F56CE28D
:10039000C6010E948F0BAC01662757FD6095762F32
:1003A0004093C1015093C2016093C3017093C40193
:1003B0009C0142E050E0B601CE0101960E94920BF2
:1003C000CE0101960E94310C6093D9017093DA013D
:1003D0008093DB019093DC0127C0D8014D915C91A3
:1003E0004F5F5F4F6CE2C6010E94740BAC01662741
:1003F00057FD6095762FF801448355836683778394
:10040000408151814F5F5F4F9C01B601CE01019643
:100410000E94920BCE0101960E94310CD5016D9382
:100420007D938D939C931397CE0101960E94890A28
:10043000BFEFEB1AFB0A0C5F1F4FE4E0AE0EB11CDE
:10044000F6E0EF16F10409F09FCF0091D901109169
:10045000DA01A090DD01B090DE019090E101809082
:10046000E2013090E3012090E40199828A823B828C
:100470002C824090E5015090E6016090E701709079
:10048000E8014D825E826F827886C090E901D0904B
:10049000EA01E090EB01F090EC01C986DA86EB8688
:1004A000FC868091ED019091EE0190937A0180930A
:1004B00079016EE071E087EF91E0C3D64AE050E049
:1004C000B80187EF91E072D74AE050E0B50187EFBD
:1004D00091E06CD72AE030E0492D582D632D722D24
:1004E00087EF91E079D72AE030E0B301A20187EFEE
:1004F00091E072D72AE030E0B701A60187EF91E0E2
:100500006BD76091790170917A014AE050E087EFF2
:1005100091E04CD71092F2010115110539F4309297
:100520006C0180926D0190926E0132C0AA94AB284A
:1005300011F59E012F5F3F4FE5E5F1E0AE01435F0E
:100540005F4FD901CD90DD90ED90FD909D01BF01F1
:1005500062507109DB01EC926F5F7F4FDB01DC922F
:10056000C08212971C9238962417350751F781E004
:100570008093F2010DC00150110989E0809FF001C4
:10058000819FF00D1124EA59FE4F368287829086B2
:1005900010920C012C960FB6F894DEBF0FBECDBFA3
:1005A000DF91CF911F910F91FF90EF90DF90CF904F
:1005B000BF90AF909F908F907F906F905F904F9083
:1005C0003F902F9008958091520190915A01891384
:1005D00005C0882321F090916201891380E008957D
:1005E000CF93DF93E901CC0FDD1FCC0FDD1FFE01A0
:1005F000EF57FE4F60837183828393830E94910C37
:10060000FE01EF55FE4F6083718382839383DF91F8
:10061000CF9108950F931F93CF93DF93EC010E9426
:10062000910CAE01440F551F440F551FEA01CF55E1
:10063000DE4F088119812A813B81601B710B820B7F
:10064000930BFA01EF57FE4F008111812281338114
:10065000601771078207930740F00E94910C68832E
:1006600079838A839B8381E001C080E0DF91CF9111
:100670001F910F9108953F924F925F926F927F92D8
:100680008F929F92AF92BF92CF92DF92EF92FF92A2
:100690000F931F93CF93DF93E12CF12C29E0289F38
:1006A000E001299FD00D1124CA59DE4F2E0186E0AA
:1006B000480E511C3E01A7E06A0E711C4E01B8E0C5
:1006C0008B0E911C332433948C819D810E94E40E07
:1006D000E816F9060CF091C0B7018C819D810E944B
:1006E000A60EC82ED12CA72EB12C062F10E0E0911B
:1006F0000A01F0E0D2014C9150E0CA018C199D0929
:1007000097FF03C0919581959109E817F9074CF47B
:10071000C416D5061CF4CE0EDF1E04C0CE1ADF0AA6
:1007200001C06A01D3012C9130E0C9018A199B09EB
:1007300097FF03C0919581959109E817F9074CF44B
:10074000A216B3061CF4AE0EBF1E04C0AE1ABF0A3A
:1007500001C05901D4018C9190E0BC01601B710B68
:1007600077FF03C0719561957109E617F7074CF49F
:10077000081719071CF40E0F1F1F04C00E1B1F0BB8
:1007800001C08C01C416D50651F4A216B30639F483
:100790000817190721F430920C013092F40180916E
:1007A000F501882329F081E090E034DF811117C042
:1007B0002A2D4C2DB7018C819D810E94230E6091C2
:1007C000790170917A01882777FD8095982F20E034
:1007D00030E0A90105DFBFEFEB1AFB0A75CF2FEF61
:1007E00030E040E050E062E370E080E090E076D6F8
:1007F0008C819D810E94E80EDBCFDF91CF911F910C
:100800000F91FF90EF90DF90CF90BF90AF909F90AF
:100810008F907F906F905F904F903F9008952F92B0
:100820003F924F925F926F927F928F929F92AF9280
:10083000BF92CF92DF92EF92FF920F931F93CF93CD
:10084000DF9300D000D0CDB7DEB74EE4A42E41E058
:10085000B42E25E531E03C832B8329E0289F7001ED
:10086000299FF00C1124C7018A599E4F7C01D501A4
:10087000CD90DC904B805C80B2E04B1A5108EB814C
:10088000FC813197FA83E9832B803C80F3E02F1AB7
:100890003108F50182819381C816D9060CF08CC00D
:1008A000B601D70114968D919C9115970E94A60EC2
:1008B000682E712C872E912C062F10E020910A01B2
:1008C00030E0D201EC91F0E0CF018619970997FF53
:1008D00003C0919581959109281739074CF46E163C
:1008E0007F061CF4620E731E04C0621A730A01C0F4
:1008F0003F01A981BA814C9150E0CA018819990938
:1009000097FF03C0919581959109281739074CF4F9
:10091000841695061CF4820E931E04C0821A930A54
:1009200001C04A01AB81BC818C9190E0BC01601B8D
:10093000710B77FF03C07195619571092617370711
:100940004CF4081719071CF4020F131F04C0021BF4
:10095000130B01C08C016E167F0659F484169506A0
:1009600041F40817190729F421E0F10120832093AD
:10097000F4018091F501882329F081E090E04ADEBE
:10098000811132C0282D462DB601D70114968D91C4
:100990009C9115970E94230E6091790170917A01C4
:1009A000882777FD8095982F20E030E0A90118DE98
:1009B000BFEFCB1ADB0A6DCFF8E0AF0EB11C2B8175
:1009C0003C81285F3F4F3C832B8336E6A31631E002
:1009D000B30609F04CCFF7DD8823B9F081E08093AE
:1009E0000C011092F20111C02FEF30E040E050E016
:1009F00062E370E080E090E071D5D70114968D91AC
:100A00009C9115970E94E80EBDCF0F900F900F900C
:100A10000F90DF91CF911F910F91FF90EF90DF909A
:100A2000CF90BF90AF909F908F907F906F905F908E
:100A30004F903F902F900895CF92DF92EF92FF92C8
:100A40000F931F93CF93DF936EE371E08FE691E0F6
:100A5000C7D556E6C52E51E0D52EC2E2D0E0F6014C
:100A6000D183C08368E6E62E61E0F62E82E090E056
:100A7000F7019183808380E190E008D78C01F60133
:100A80006081718123E0F7014081DBD710936B0116
:100A900000936A0110926E0110924F0110924E0164
:100AA00084E190E0909351018093500110925201A3
:100AB0002FEF2093550190935701809356018EE1BB
:100AC00090E0909359018093580110925A0120931D
:100AD0005D0190935F0180935E01D0936101C093AB
:100AE00060011092620120936501DF91CF911F9107
:100AF0000F91FF90EF90DF90CF9008958FE691E0F7
:100B000008C5DF92EF92FF920F931F93CF93DF936D
:100B100000D000D000D0CDB7DEB787EF91E065D12F
:100B2000181619060CF056C040910D0167EF71E0E0
:100B3000CE0101968DD4BE016F5F7F4F8FE691E0AD
:100B400064D5CE010196E5D48FE691E02ED664E51A
:100B50008FE691E0E4D5892B39F464E78FE691E0E4
:100B6000DED5019709F4CDC063E48FE691E0D7D5D7
:100B7000892B39F463E68FE691E0D1D5019709F42A
:100B8000CCC063E58FE691E0CAD5892B19F563E700
:100B90008FE691E0C4D50197E9F40EE411E0F80185
:100BA000608171814AE050E087EF91E0F8D361E223
:100BB00071E087EF91E045D3F801628173814AE0EB
:100BC00050E087EF91E0F2D3085F1F4FF1E0063667
:100BD0001F0729F78091F301882309F471C0A1D67A
:100BE0000091750110917601209177013091780183
:100BF000601B710B820B930B6C33710581059105A2
:100C000008F45EC08ED624E130E040E050E00E945F
:100C1000D20FCA01B90120E035E040E050E00E9467
:100C2000D20FD62EE12CF12C00E010E080916A0169
:100C300090916B010E94E40E20916A0130916B014A
:100C40000817190790F5C9010E94E40EBC01C701FD
:100C50000E94BE0F962F9D0D953538F4892F880F71
:100C6000890F682F609540E011C09A3A40F09A5A77
:100C7000692F660F690F462F409580E007C0955594
:100C8000892F880F890F482F60E080950E949D0E64
:100C90009B01AC01B80180916A0190916B010E94A7
:100CA000570E0F5F1F4FF394C1CFC9010BD739D631
:100CB000609375017093760180937701909378012A
:100CC00080910A018823A9F080910C01811111C043
:100CD00080E090E09FDC882361F01092F40181E0D5
:100CE0008093F1018091F201882319F180E090E076
:100CF00096DD8091F101882301F132DA1092F10141
:100D00001CC06FE671E0CE01019694D4CE0101962D
:100D100018DBCE010196FDD327CF6FE671E0CE013F
:100D2000019688D4CE01019621DACE010196F1D345
:100D300028CF80E090E09FDCDCCF26960FB6F894B9
:100D4000DEBF0FBECDBFDF91CF911F910F91FF90FE
:100D5000EF90DF900895CF9368EE73E080E090E02D
:100D60000FD6C1E087EF91E040D01816190684F045
:100D700065E271E087EF91E059D287EF91E05ED2B2
:100D8000C0930B016CE271E080E090E0F9D5EACF0E
:100D9000CF910895CF93DF9326E040E051EE60E0DD
:100DA00070E087EF91E001D1C6E6D1E08C819D81B2
:100DB00089D68C819D817BD66FEF8C819D810E942D
:100DC000E80EC9DF20E030E0A90161E070E080E0DA
:100DD00090E006DC21E030E040E050E061E070E0CF
:100DE00080E090E0DF91CF91FBCBFC01818D228DE3
:100DF00090E0805C9F4F821B91098F739927089523
:100E0000FC01918D828D981731F0828DE80FF11DD4
:100E1000858D90E008958FEF9FEF0895FC01918DEF
:100E2000828D981761F0828DDF01A80FB11D5D964C
:100E30008C91928D9F5F9F73928F90E008958FEFBA
:100E40009FEF08958CE898E0892B41F080E090E0D6
:100E5000892B21F061D181110C9400000895FC01CF
:100E6000848DDF01A80FB11DA35ABF4F2C91848D33
:100E700090E001968F739927848FA689B7892C9368
:100E8000A089B1898C9180648C93938D848D981303
:100E900006C00288F389E02D80818F7D80830895CC
:100EA000CF93DF93EC01888D8823C1F0EA89FB8919
:100EB000808185FD05C0A889B9898C9186FD0EC009
:100EC0000FB607FCF5CF808185FFF2CFA889B989DD
:100ED0008C9185FFEDCFCE01C2DFE8CFDF91CF91BE
:100EE0000895CF92DF92FF920F931F93CF93DF93DA
:100EF0001F92CDB7DEB76C0181E0D60158968C9376
:100F000058975B969C915B975C968C915C97981335
:100F100007C05096ED91FC915197808185FD2DC0C1
:100F2000F601038D10E00F5F1F4F0F731127F02E96
:100F3000F601848DF81210C00FB607FCF9CFD60168
:100F40005096ED91FC915197808185FFF1CFC601BC
:100F5000698385DF6981ECCF838DE80FF11DE35A4A
:100F6000FF4F6083D6015B960C935B975296ED9191
:100F7000FC915397808180620CC0D6015696ED910A
:100F8000FC91579760835096ED91FC915197808129
:100F90008064808381E090E00F90DF91CF911F917A
:100FA0000F91FF90DF90CF900895BF92CF92DF9284
:100FB000EF92FF92CF93DF93EC016A017B01B22E97
:100FC000E889F98982E08083411581EE580761053F
:100FD000710599F060E079E08DE390E0A70196015A
:100FE000E1D7215031094109510956954795379567
:100FF0002795211580E1380790F0E889F98910825A
:1010000060E874E88EE190E0A7019601CBD721500B
:101010003109410951095695479537952795EC8532
:10102000FD853083EE85FF852083188EEC89FD8950
:10103000B082EA89FB89808180618083EA89FB89AB
:10104000808188608083EA89FB89808180688083D1
:10105000EA89FB8980818F7D8083DF91CF91FF902A
:10106000EF90DF90CF90BF9008951F920F920FB630
:101070000F9211242F938F939F93EF93FF93E091FF
:101080000702F09108028081E0910D02F0910E02BA
:1010900082FD12C09081809110028F5F8F7320912A
:1010A0001102821751F0E0911002F0E0E950FE4F7A
:1010B000958F8093100201C08081FF91EF919F91E5
:1010C0008F912F910F900FBE0F901F9018951F9228
:1010D0000F920FB60F9211242F933F934F935F936C
:1010E0006F937F938F939F93AF93BF93EF93FF93F0
:1010F00087EF91E0B4DEFF91EF91BF91AF919F91A7
:101100008F917F916F915F914F913F912F910F90B0
:101110000FBE0F901F90189587EF91E066DE21E0DB
:10112000892B09F420E0822F08951092FA01109281
:10113000F90188EE93E0A0E0B0E08093FB0190938A
:10114000FC01A093FD01B093FE0180E391E0909338
:10115000F8018093F70185EC90E09093040280936E
:10116000030284EC90E0909306028093050280ECE9
:1011700090E0909308028093070281EC90E09093B6
:101180000A028093090282EC90E090930C02809313
:101190000B0286EC90E090930E0280930D02109269
:1011A000100210921102109212021092130208956E
:1011B000CF92DF92EF92FF920F931F93CF93DF9323
:1011C0007C016A01EB0100E010E00C151D0571F0D7
:1011D0006991D701ED91FC910190F081E02DC7015B
:1011E0000995892B19F00F5F1F4FEFCFC801DF91D1
:1011F000CF911F910F91FF90EF90DF90CF900895C6
:101200006115710581F0DB010D900020E9F7AD015A
:1012100041505109461B570BDC01ED91FC910280B6
:10122000F381E02D099480E090E00895E9CFDC019E
:10123000ED91FC910190F081E02D09946CE371E057
:10124000DFCF0F931F93CF93DF93EC01D9DF8C0196
:10125000CE01F4DF800F911FDF91CF911F910F918D
:1012600008958F929F92AF92BF92CF92DF92EF92AA
:10127000FF920F931F93CF93DF93CDB7DEB7A19764
:101280000FB6F894DEBF0FBECDBF7C01C42EE52F94
:10129000CB01D22E19A221E02D1510F02AE0D22E7A
:1012A0008E010F5D1F4F8D2C912CA12CB12C6C2D1C
:1012B0007E2FA501940176D68C2DD29E8019112403
:1012C000015011098A3014F4805D01C0895CF80175
:1012D0008083211531054105510521F0C22EE32FF0
:1012E000CA01E5CFB801C7018BDFA1960FB6F8940C
:1012F000DEBF0FBECDBFDF91CF911F910F91FF9049
:10130000EF90DF90CF90BF90AF909F908F90089517
:10131000CF92DF92EF92FF920F931F93CF93DF93C1
:10132000EC016A017B012115310579F4E881F9812D
:101330000190F081E02D642FDF91CF911F910F91EB
:10134000FF90EF90DF90CF9009942A303105D9F4C7
:1013500077FF18C06DE26BDF8C0144275527BA0177
:101360004C195D096E097F092AE0CE017ADF800FF2
:10137000911FDF91CF911F910F91FF90EF90DF9020
:10138000CF9008952AE0B701A601CE01DF91CF9159
:101390001F910F91FF90EF90DF90CF9062CF9A0155
:1013A000AB01662757FD6095762FB2CF0F931F9341
:1013B000CF93DF93EC019A01AB01662757FD60954F
:1013C000762FA6DF8C01CE0139DF800F911FDF91D0
:1013D000CF911F910F9108950F931F93CF93DF9398
:1013E000EC0196DF8C01CE0129DF800F911FDF9188
:1013F000CF911F910F9108950F931F93CF93DF9378
:10140000EC018FD2688779878A879B87E881F98189
:101410000680F781E02DCE01099597FF14C081D297
:10142000088519852A853B85601B710B820B930B00
:101430000C811D812E813F81601771078207930700
:1014400028F38FEF9FEFDF91CF911F910F910895B8
:10145000EF92FF920F931F93CF93DF93EC018B01D9
:10146000E42E6EE371E0BCD0C801C6DFFF24E7FCC8
:10147000F09497FD09C08E159F0531F0682FCE01BD
:1014800021D1C801B9DFF5CFCE01DF91CF911F91F6
:101490000F91FF90EF900895CF93DF9300D000D08D
:1014A000CDB7DEB79B01AC016115710581059105D2
:1014B00059F069833A834B835C8342D729813A810F
:1014C0004B815C8191D503C060E070E0CB010F904F
:1014D0000F900F900F90DF91CF910895CF92DF92F0
:1014E000EF92FF926B017C016217730784079507E7
:1014F0005CF4CA01B9016C197D098E099F09CCDF22
:101500006C0D7D1D8E1D9F1DFF90EF90DF90CF9085
:101510000895FC01808191813AC6CF93DF93EC015D
:1015200088819981009709F032D6198218821D822C
:101530001C821B821A82DF91CF9108950F931F9313
:10154000CF93DF93EC018B016F5F7F4F888199818F
:1015500003D7009731F0998388831B830A8381E046
:1015600001C080E0DF91CF911F910F910895CF933B
:10157000DF93EC0188819981892B29F08A819B81F5
:101580008617970758F4CE01D9DF882341F08C8164
:101590009D81892B19F4E881F981108281E0DF9126
:1015A000CF910895EF92FF920F931F93CF93DF9304
:1015B000EC017B018A01BA01DADF811103C0CE019F
:1015C000ACDF06C01D830C83B70188819981D0D719
:1015D000CE01DF91CF911F910F91FF90EF90089571
:1015E000FC0111821082138212821582148261150D
:1015F000710551F0FB0101900020E9F7AF01415066
:101600005109461B570BCECF0895CF93DF93EC01C2
:10161000FB018617970751F0608171816115710593
:1016200021F044815581BEDF01C077DFCE01DF911B
:10163000CF910895FC0111821082138212821582CB
:101640001482E3CFCF93DF93EC016115710559F05C
:10165000FB0101900020E9F7AF0141505109461B01
:10166000570BA0DF01C059DFCE01DF91CF91089564
:10167000EF92FF920F931F93CF93DF93EC017B01C7
:101680000C811D816115710511F480E014C04115B4
:10169000510581F0040F151FB80169DF8823A9F3F4
:1016A000288139818C819D81B701820F931F60D77A
:1016B0001D830C8381E0DF91CF911F910F91FF90EB
:1016C000EF900895CF93DF9300D0CDB7DEB7698355
:1016D0001A8241E050E0BE016F5F7F4FC9DF0F907B
:1016E0000F90DF91CF910895CF93DF93FC01848118
:1016F00095814817590770F4C081D181772767FD1C
:101700007095CE01840F951F28D7009719F08C1B78
:101710009D0B02C08FEF9FEFDF91CF91089540E0C6
:1017200050E0E2CFBF92CF92DF92EF92FF920F9301
:101730001F93CF93DF936C017B01EA01890124178A
:10174000350720F48D2FE901042F182F6EE371E087
:10175000C60146DFD70114968D919C911597C81745
:10176000D907C0F48017910708F48C01D701ED91D7
:10177000FC911197E00FF11FB08010826D917C9168
:101780006C0F7D1FC6015EDFD701ED91FC91E00F6C
:10179000F11FB082C601DF91CF911F910F91FF9091
:1017A000EF90DF90CF90BF900895AF92BF92CF920D
:1017B000DF92EF92FF920F931F93CF93DF937C0101
:1017C000DC01CD90DC901197C114D10409F43EC026
:1017D0001496CD91DC9115972097C1F156018501A2
:1017E000BFEFAB1ABB0AF8018081992787FD90955E
:1017F0009CD6892BA1F72197CC0DDD1D88819927D7
:1018000087FD909592D6892B89F4AE014F5F5F4F8B
:10181000401B510BD70115965C934E931497C0163D
:10182000D10648F4B801C60188D605C0C017D10753
:1018300060F32197E3CFD701ED91FC9111971496B6
:101840008D919C911597E80FF91F1082DF91CF9130
:101850001F910F91FF90EF90DF90CF90BF90AF90CE
:101860000895FC0180819181009709F038C660E0FD
:1018700070E0CB0108950895A8D0FDDF8BDAC2E2B5
:10188000D7E03FD92097E9F3DDDAFBCFE8C31F9219
:101890000F920FB60F9211242F933F938F939F9324
:1018A000AF93BF938091950290919602A091970279
:1018B000B09198023091940223E0230F2D3720F449
:1018C0000196A11DB11D05C026E8230F0296A11D9A
:1018D000B11D209394028093950290939602A09359
:1018E0009702B09398028091990290919A02A091E8
:1018F0009B02B0919C020196A11DB11D809399029B
:1019000090939A02A0939B02B0939C02BF91AF91D7
:101910009F918F913F912F910F900FBE0F901F902D
:1019200018952FB7F8946091950270919602809166
:101930009702909198022FBF08953FB7F894809135
:10194000990290919A02A0919B02B0919C0226B5B7
:10195000A89B05C02F3F19F00196A11DB11D3FBFE7
:101960006627782F892F9A2F620F711D811D911D77
:1019700042E0660F771F881F991F4A95D1F7089597
:10198000CF92DF92EF92FF92CF93DF936B017C01B6
:10199000D4DFEB01C114D104E104F10479F050D09B
:1019A000CCDF6C1B7D0B683E7340A0F381E0C81A4E
:1019B000D108E108F108C851DC4FECCFDF91CF919D
:1019C000FF90EF90DF90CF900895789484B5826077
:1019D00084BD84B5816084BD85B5826085BD85B5D3
:1019E000816085BDEEE6F0E0808181608083E1E882
:1019F000F0E01082808182608083808181608083BA
:101A0000E0E8F0E0808181608083E1EBF0E08081BC
:101A100084608083E0EBF0E0808181608083EAE78E
:101A2000F0E0808184608083808182608083808117
:101A3000816080838081806880831092C1000895D6
:101A400008950F931F93CF93DF93EC0179836883FD
:101A50008B01000F111F060F171F1B830A832C8396
:101A60004D8350E0FA01E057FF4FE491F0E0EE0FB4
:101A7000FF1FEC55FF4F859194919E878D87FA014A
:101A8000E458FF4F44914F87C801E9D298878F836C
:101A9000009741F0A80160E070E0DF91CF911F91C5
:101AA0000F9154C5DF91CF911F910F910895CF935E
:101AB000DF93EC0161E08D81F3D160E08D81DF91F6
:101AC000CF9127C2CF92DF92EF92FF920F931F9395
:101AD000CF93DF93CDB7DEB729970FB6F894DEBF6B
:101AE0000FBECDBF8C01DC0117968D919C9118978C
:101AF000892B09F499C021DFF801C184D284E384E1
:101B0000F4846C197D098E099F0962337105810582
:101B1000910588F3F894828193819A838983A781C0
:101B2000B0857D01EFEFEE1AFE0A8C918987D8010E
:101B300014969C9114971D960D90BC91A02DF801C0
:101B4000878591FF2EC09C91982B98879C918095BA
:101B500089238F838F818E8388E08D8358856F8161
:101B600049853D812E8189819A81F7015C9347FDEA
:101B7000252F3A952C93262F39F0441F00C00000E2
:101B80006C93000000C0F2CF38E041916C930000EC
:101B9000019761F7F801B687A58749873D832E83B2
:101BA00038C09C91982B98879C91809589238F832E
:101BB0008F818C8388E08B8358856F8149853B8139
:101BC0002C8189819A81F7015C9347FD252F00C004
:101BD00000C02C9300C000C000C000C000C06C93C7
:101BE0000000262F3A9541F0441F000000C000C0BD
:101BF00000C000C000C0E8CF38E0419100C06C9345
:101C000000C0019709F7F801B687A58749873B838C
:101C10002C839A838983789490DED80119966D93EA
:101C20007D938D939C931C9729960FB6F894DEBFF5
:101C30000FBECDBFDF91CF911F910F91FF90EF901D
:101C4000DF90CF9008950F931F93DC018D919C91AD
:101C500011976817790740F516968C911697882387
:101C600061F0489FA0011124452F289F9001112465
:101C7000232F089F80011124012FCB01880F991F6A
:101C8000860F971F1796ED91FC911897E80FF91F93
:101C900014968C91DF01129680FF03C0208341834C
:101CA00002C0408321830C931F910F910895CF921E
:101CB000DF92EF92FF920F931F93CF93DF93FC017C
:101CC000808191816817790778F5CA01AA27BB2717
:101CD000182FC32ED42EE52EFF24DC2D022FC68113
:101CE000CC2361F08C9FC0011124192FCC9E600180
:101CF0001124DD2D2C9F90011124032FCB01880F7F
:101D0000991F860F971FA781B085A80FB91F8481DF
:101D1000FD01329680FF04C0DC9311961C9303C032
:101D20001C931196DC930083DF91CF911F910F914B
:101D3000FF90EF90DF90CF900895962F50E060E0F5
:101D400070E0592B682BCB01BA0108950F931F93B4
:101D5000DC018D919C9111976817790778F5CB017B
:101D6000880F991F860F971F1796ED91FC91189772
:101D7000E80FF91F428150E060E070E014968C910A
:101D8000218180FF0AC0808190E0A0E0B0E0BA2FFE
:101D9000A92F982F8827A22B08C0808190E0A0E06F
:101DA000B0E0DC0199278827922B8C019D01042B40
:101DB000152B262B372BC901B80103C060E070E05A
:101DC000CB011F910F910895FC01808191810895AD
:101DD000FF920F931F93CF93DF93EC01FF24F394B3
:101DE000F60E2E81F21669F10F8118852150A9F0A7
:101DF0006F3F51F430E040E050E06FEF7FEF80E064
:101E000090E0F2D0B9010BC08F2D90E0982F882779
:101E10000197622F70E0B2D002C060E070E0F8017C
:101E20008A819B81AF01401B510B4817590740F431
:101E30004081469FC001479F900D11249193F0CFA0
:101E4000FE82DF91CF911F910F91FF900895833013
:101E500081F028F4813099F08230A1F00895873024
:101E6000A9F08830B9F08430D1F4809180008F7D62
:101E700003C0809180008F7780938000089584B59F
:101E80008F7702C084B58F7D84BD08958091B000A6
:101E90008F7703C08091B0008F7D8093B00008954C
:101EA000CF93DF9390E0FC01E458FF4F2491FC01B5
:101EB000E057FF4F8491882349F190E0880F991FE4
:101EC000FC01E255FF4FA591B4918C559F4FFC0149
:101ED000C591D4919FB7611108C0F8948C91209559
:101EE00082238C93888182230AC0623051F4F89453
:101EF0008C91322F309583238C938881822B888319
:101F000004C0F8948C91822B8C939FBFDF91CF916A
:101F100008950F931F93CF93DF931F92CDB7DEB732
:101F2000282F30E0F901E859FF4F8491F901E45876
:101F3000FF4F1491F901E057FF4F04910023C1F0C6
:101F4000882319F0698383DF6981E02FF0E0EE0FC9
:101F5000FF1FEC55FF4FA591B4919FB7F8948C915A
:101F6000611103C01095812301C0812B8C939FBF09
:101F70000F90DF91CF911F910F910895AA1BBB1B6A
:101F800051E107C0AA1FBB1FA617B70710F0A61B79
:101F9000B70B881F991F5A95A9F780959095BC019A
:101FA000CD010895A1E21A2EAA1BBB1BFD010DC095
:101FB000AA1FBB1FEE1FFF1FA217B307E407F507F9
:101FC00020F0A21BB30BE40BF50B661F771F881FD5
:101FD000991F1A9469F760957095809590959B016B
:101FE000AC01BD01CF010895052E97FB16F40094B6
:101FF0000FD057FD05D0D6DF07FC02D046F408C04D
:1020000050954095309521953F4F4F4F5F4F089524
:1020100090958095709561957F4F8F4F9F4F089554
:102020000FD0A59F900DB49F900DA49F800D911D82
:1020300011240895EE0FFF1F0590F491E02D0994EF
:10204000A29FB001B39FC001A39F700D811D1124F9
:10205000911DB29F700D811D1124911D0895CF9384
:10206000DF938230910510F482E090E0E0919F02CE
:10207000F091A00220E030E0A0E0B0E0309739F12C
:102080004081518148175907B8F04817590771F432
:1020900082819381109729F013969C938E931297C7
:1020A0002CC09093A00280939F0227C02115310578
:1020B00031F04217530718F0A901DB0101C0EF010D
:1020C0009A01BD01DF010280F381E02DD7CF2115F8
:1020D0003105F9F0281B390B2430310580F48A8151
:1020E0009B816115710521F0FB019383828304C0FC
:1020F0009093A00280939F02FE01329644C0FE019D
:10210000E20FF31F81939193225031093983288381
:102110003AC020919D0230919E02232B41F42091E0
:1021200002013091030130939E0220939D02209181
:102130000001309101012115310541F42DB73EB761
:102140004091040150910501241B350BE0919D0243
:10215000F0919E02E217F307A0F42E1B3F0B281705
:10216000390778F0AC014E5F5F4F2417350748F010
:102170004E0F5F1F50939E0240939D028193919357
:1021800002C0E0E0F0E0CF01DF91CF910895CF935E
:10219000DF93009709F487C0FC0132971382128203
:1021A000C0919F02D091A002209781F420813181BB
:1021B000280F391F80919D0290919E0282179307EC
:1021C00079F5F0939E02E0939D026DC0DE0120E060
:1021D00030E0AE17BF0750F412964D915C91139703
:1021E0009D014115510509F1DA01F3CFB383A283B3
:1021F00040815181840F951F8A179B0771F48D913F
:102200009C911197840F951F02969183808312965B
:102210008D919C911397938382832115310529F425
:10222000F093A002E0939F023EC0D9011396FC9365
:10223000EE9312974D915D91A40FB51FEA17FB071E
:1022400079F480819181840F951F0296D9011196AE
:102250009C938E938281938113969C938E93129775
:10226000E0E0F0E08A819B81009719F0FE01EC012B
:10227000F9CFCE01029628813981820F931F2091D8
:102280009D0230919E022817390769F4309729F48E
:102290001092A00210929F0202C013821282D09369
:1022A0009E02C0939D02DF91CF9108958F929F92DD
:1022B000AF92BF92CF92DF92EF92FF92CF93DF93D4
:1022C000EC01688179818A819B81611571058105A5
:1022D000910521F464E279ED8BE597E02DE133EF90
:1022E00041E050E081DE49015A019B01AC01A7EABF
:1022F000B1E496DE6B017C01ACEEB4EFA501940174
:1023000058D1C60ED71EE81EF91EF7FE06C081E0A2
:10231000C81AD108E10880E8F80AC882D982EA829E
:10232000FB82C701B6019F77DF91CF91FF90EF90BD
:10233000DF90CF90BF90AF909F908F900895B6CFD1
:1023400086E091E0B3CF609306017093070180931C
:102350000801909309010895A0E0B0E0E1EBF1E1FC
:1023600030C1EC01CB01209711F479DEB4C0FE013D
:10237000E60FF71F9E0122503109E217F30708F418
:10238000A8C0D9010D911C91119706171707B0F03D
:102390000530110508F49BC0A801445051094617A7
:1023A000570708F494C002501109061B170B01933C
:1023B00011936D937C93CF01EADE89C05B01A01A73
:1023C000B10A4E01800E911EA0919F02B091A00211
:1023D000612C712C60E070E0109709F449C0A815D9
:1023E000B905C9F5ED90FC901197670142E0C40E64
:1023F000D11CCA14DB0478F147018A189B086401D8
:1024000042E0C40ED11C1296BC9012971396AC9168
:10241000B5E0CB16D10440F0B282A38391828082D2
:10242000D9018D939C9309C00E5F1F4F0E0D1F1D88
:10243000F90111830083EB2DFA2F6115710531F03D
:10244000DB011396FC93EE93129741C0F093A00228
:10245000E0939F023CC06D917C91119766167706C0
:1024600008F43B01BD0112960D90BC91A02DB4CF94
:1024700060919D0270919E0268157905E9F46816D5
:102480007906D0F4409100015091010141155105A8
:1024900041F44DB75EB76091040170910501461B90
:1024A000570BE417F507A8F4F0939E02E0939D0202
:1024B000F901918380830BC0D2DD7C01009749F044
:1024C000A801BE013AD0CE0162DEC70104C0CE0130
:1024D00002C080E090E0CDB7DEB7EEE08EC01F9383
:1024E000FC0199278827BC01E89411911032E9F387
:1024F000193010F01E30C8F31B3249F01D3241F480
:10250000689405C03CD0610F711D811D911D119112
:1025100010531A30B8F33EF49095809570956195FC
:102520007F4F8F4F9F4F1F91089591113DC0803273
:1025300019F089508550D0F70895FB01DC0102C0E5
:1025400001900D9241505040D8F70895DC0101C030
:102550006D9341505040E0F70895FC01819186173A
:1025600021F08823D9F7992708953197CF0108954D
:10257000FB01DC0101900D920020E1F70895592F35
:10258000482F372F262F660F771F881F991F660F3A
:10259000771F881F991F620F731F841F951F660F77
:1025A000771F881F991F0895992788270895B7FFD7
:1025B00037CD36DD821B930B08952F923F924F92B9
:1025C0005F926F927F928F929F92AF92BF92CF92C3
:1025D000DF92EF92FF920F931F93CF93DF93CDB7CC
:1025E000DEB7CA1BDB0B0FB6F894DEBF0FBECDBF44
:1025F00009942A88398848885F846E847D848C8415
:102600009B84AA84B984C884DF80EE80FD800C811D
:102610001B81AA81B981CE0FD11D0FB6F894DEBF00
:102620000FBECDBFED01089510E0CCEBD0E003C0AC
:10263000FE0102DD2296CE3BD107D1F7F894FFCF01
:102640000000A1022000010000000101010A5370F6
:102650006C697474656420537472696E67733A2090
:1026600000202F20006D617374657200000000006F
:102670007107D808F5060E07000750070D0A006E0F
:0E268000616E00696E66006F7666002E0000C7
:00000001FF
