:100000005EC0000084C0000082C0000080C000000C
:100010007EC000007CC000007AC0000078C00000F4
:1000200076C0000074C0000072C0000070C0000004
:100030006EC000006CC000006AC0000068C0000014
:100040000C94680964C0000003C6000033C60000B9
:100050005EC000005CC000005AC0000058C0000034
:1000600056C0000054C0000000000008000201005B
:100070000003040700000000000000000102040863
:100080001020408001020408102001020408102002
:10009000040404040404040402020202020203032E
:1000A0000303030300000000250028002B000000CC
:1000B0000000240027002A0051038806840311242D
:1000C0001FBECFEFD8E0DEBFCDBF11E0A0E0B1E0B2
:1000D000E2E8F0E202C005900D92A835B107D9F729
:1000E00022E0A8E5B1E001C01D92AE37B207E1F70A
:1000F00010E0CCEBD0E004C02297FE010E943D0D41
:10010000C83BD107C9F70E945D090C94351078CF20
:10011000CF92DF92EF92FF920F931F93CF93DF93D3
:100120007C01162FD42EC22EC0E0D0E0F7018081D2
:100130009181C817D9075CF40C2D2D2D412FBE01DC
:10014000F701848195810E94440B2196EFCFDF91C6
:10015000CF911F910F91FF90EF90DF90CF90089576
:1001600080915C0190915D010C94830AAF92BF92E3
:10017000CF92DF92EF92FF920F931F93CF93DF9373
:1001800000D000D000D0CDB7DEB76C0109EB11E094
:1001900085ECA82E81E0B82EE12CF12CE114F104BD
:1001A000B9F46CE2C601DCD79093BC018093BB012B
:1001B0009C0142E050E0B601CE010196D4D7CE01B9
:1001C00001960E9452097093C6016093C5011BC03D
:1001D000F801408151814F5F5F4F6CE2C601A5D7A6
:1001E000F80193838283408151814F5F5F4F9C016F
:1001F000B601CE010196B7D7CE0101960E945209F1
:10020000F50171836083CE010196A4D6FFEFEF1A4A
:10021000FF0A0E5F1F4F82E0A80EB11CE5E0EE164C
:10022000F10409F0BBCF0091C5011091C6016091A6
:10023000C7018091C8016093790180937A01409150
:10024000C9018091CA014093770180937801209180
:10025000CB018091CC012093750180937601809130
:10026000CD019091CE0190936C0180936B0181E060
:100270008093D3010115110519F488E591E048DF59
:100280009801215031092830310578F449E0429F26
:10029000C001439F900D1124209175014091770179
:1002A00060917901885A9E4F1EC00930110571F482
:1002B00081E08093D0010E94B2096093670170933E
:1002C00068018093690190936A010EC00A3011059C
:1002D00059F41092D00120917501409177016091FD
:1002E000790188E591E014DF81E08093CF012696C3
:1002F0000FB6F894DEBF0FBECDBFDF91CF911F9137
:100300000F91FF90EF90DF90CF90BF90AF90089546
:10031000AF92BF92CF92DF92EF92FF920F931F9313
:10032000CF93DF9300D000D000D0CDB7DEB76C0103
:1003300009EB11E095ECA92E91E0B92EE12CF12CFE
:10034000E114F104B1F46CE2C6010AD79093BC0148
:100350008093BB019C0142E050E0B601CE010196C2
:1003600002D7CE0101969ED77093C6016093C50156
:100370001AC0F801408151814F5F5F4F6CE2C601A6
:10038000D4D6F80193838283408151814F5F5F4FC0
:100390009C01B601CE010196E6D6CE01019682D728
:1003A000F50171836083CE010196D4D5FFEFEF1A7A
:1003B000FF0A0E5F1F4F82E0A80EB11CE5E0EE16AB
:1003C000F10409F0BDCF8091C5019091C601609103
:1003D000C7012091C801609373012093740150916B
:1003E000C9012091CA01509371012093720140917B
:1003F000CB012091CC0140936F012093700120919B
:10040000CD013091CE0130936E0120936D010097A4
:1004100039F460935E0150935F01409360010CC01A
:10042000019729E0289FF001299FF00D1124E85A37
:10043000FE4F66835783408781E090E090936C0184
:1004400080936B0126960FB6F894DEBF0FBECDBF2A
:10045000DF91CF911F910F91FF90EF90DF90CF90A0
:10046000BF90AF900895CF93DF93E901CC0FDD1FCC
:10047000CC0FDD1FFE01E558FE4F60837183828340
:10048000938370D7FE01E556FE4F608371838283AC
:100490009383DF91CF9108950F931F93CF93DF93B1
:1004A000EC0160D7AE01440F551F440F551FEA0100
:1004B000C556DE4F088119812A813B81601B710B73
:1004C000820B930BFA01E558FE4F008111812281C6
:1004D0003381601771078207930738F043D7688329
:1004E00079838A839B8381E001C080E0DF91CF9193
:1004F0001F910F9108953F924F925F926F927F925A
:100500008F929F92AF92BF92CF92DF92EF92FF9223
:100510000F931F93CF93DF93E12CF12C29E0289FB9
:10052000E001299FD00D1124C85ADE4F2E0186E02C
:10053000480E511C3E01A7E06A0E711C4E01B8E046
:100540008B0E911C332433948C819D810E94050C69
:10055000E816F9060CF093C0B7018C819D810E94CA
:10056000C70BC82ED12CA72EB12C062F10E0E0917E
:100570000A01F0E0D2014C9150E0CA018C199D09AA
:1005800097FF03C0919581959109E817F9074CF4FD
:10059000C416D5061CF4CE0EDF1E04C0CE1ADF0A28
:1005A00001C06A01D3012C9130E0C9018A199B096D
:1005B00097FF03C0919581959109E817F9074CF4CD
:1005C000A216B3061CF4AE0EBF1E04C0AE1ABF0ABC
:1005D00001C05901D4018C9190E0BC01601B710BEA
:1005E00077FF03C0719561957109E617F7074CF421
:1005F000081719071CF40E0F1F1F04C00E1B1F0B3A
:1006000001C08C01C416D50661F4A216B30649F4E4
:100610000817190731F410926C0110926B01309297
:10062000D1018091D201882329F081E090E034DF6C
:10063000811117C02A2D4C2DB7018C819D810E94FC
:10064000440B60916D0170916E01882777FD809554
:10065000982F20E030E0A90106DFBFEFEB1AFB0A7C
:1006600073CF2FEF30E040E050E062E370E080E0D5
:1006700090E055D48C819D810E94090CDBCFDF91E5
:10068000CF911F910F91FF90EF90DF90CF90BF908F
:10069000AF909F908F907F906F905F904F903F9022
:1006A0000895EF92FF920F931F93CF93DF9368E427
:1006B00071E081E691E0B5D448E5E42E41E0F42E06
:1006C00082E290E0F701918380830AE511E082E005
:1006D00090E0F8019183808380E190E0F8D5EC010F
:1006E000F7016081718123E0F8014081CBD6D0937E
:1006F0005D01C0935C0110926001DF91CF911F9169
:100700000F91FF90EF90089581E691E023C48F92BE
:100710009F92AF92BF92CF92DF92EF92FF920F9390
:100720001F93CF93DF9300D000D000D0CDB7DEB7BA
:1007300084ED91E04DD11816190694F56DE071E045
:1007400084ED91E06AD340910C0164ED71E0CE013B
:1007500001969FD3BE016F5F7F4F81E691E076D413
:10076000CE010196F7D381E691E040D564E581E6BC
:1007700091E0F6D4892B39F464E781E691E0F0D476
:10078000019709F49EC063E481E691E0E9D4892BE6
:1007900039F463E681E691E0E3D4019709F49DC062
:1007A0008091D001882309F475C0DCD500916701E0
:1007B000109168012091690130916A01601B710BF1
:1007C000820B930B6C3371058105910508F462C0AF
:1007D000C9D524E130E040E050E00E94F30CCA01AA
:1007E000B90120E035E040E050E00E94F30CD62E45
:1007F000E62EEE0CE60E8E2D8195F12C00E010E039
:10080000CC24C394CE0C5EEFB52EB80E6DEFA62EA1
:10081000A80E72E0972E9E0C88248A94880E8091F0
:100820005C0190915D01F1D70817190728F59F2DFC
:100830009D0D953530F440E0682D6F0D8F2D8E0D98
:100840000DC09A3A30F04A2D4F0D692D6F0D80E0A2
:1008500005C04C2D4F0D60E08B2D8F0D8FD79B0168
:10086000AC01B80180915C0190915D0141D70F5FAF
:100870001F4F80E8F80ED3CF80915C0190915D010D
:1008800042D670D5609367017093680180936901C7
:1008900090936A0180910A01882359F080916B013D
:1008A00090916C01019729F480E090E0F5DD8111D1
:1008B00020C08091CF01882329F152DC1092CF0112
:1008C00021C061E671E0CE010196D5D3CE0101963B
:1008D0001FDDCE0101963ED356CF61E671E0CE0119
:1008E0000196C9D3CE01019641DCCE01019632D3E7
:1008F00057CF1092D10181E08093CF0180E090E04A
:10090000FADDD7CF26960FB6F894DEBF0FBECDBF67
:10091000DF91CF911F910F91FF90EF90DF90CF90DB
:10092000BF90AF909F908F900895CF9368EE73E043
:1009300080E090E046D5C1E084ED91E049D0181602
:10094000190684F06DE171E084ED91E062D284EDEE
:1009500091E060D2C0930B016CE271E080E090E026
:1009600030D5EACFCF910895CF93DF9326E040E0D2
:1009700051EE60E070E084ED91E00AD164E271E054
:1009800084ED91E04AD2C8E5D1E08C819D81BBD550
:100990008C819D81ADD56FEF8C819D813AD760E3CD
:1009A00071E084ED91E039D2C0DF20E030E0A901B0
:1009B00061E070E080E090E056DD21E030E040E072
:1009C00050E061E070E080E090E0DF91CF914BCDAE
:1009D000FC01818D228D90E0805C9F4F821B9109EC
:1009E0008F7399270895FC01918D828D981731F0AE
:1009F000828DE80FF11D858D90E008958FEF9FEFB8
:100A00000895FC01918D828D981761F0828DDF0130
:100A1000A80FB11D5D968C91928D9F5F9F73928FF1
:100A200090E008958FEF9FEF08958FE796E0892B70
:100A300041F080E090E0892B21F061D181110C948C
:100A400000000895FC01848DDF01A80FB11DA35A99
:100A5000BF4F2C91848D90E001968F739927848FDE
:100A6000A689B7892C93A089B1898C9180648C93D5
:100A7000938D848D981306C00288F389E02D8081C0
:100A80008F7D80830895CF93DF93EC01888D882339
:100A9000C1F0EA89FB89808185FD05C0A889B989F3
:100AA0008C9186FD0EC00FB607FCF5CF808185FFC7
:100AB000F2CFA889B9898C9185FFEDCFCE01C2DF35
:100AC000E8CFDF91CF910895CF92DF92FF920F93FD
:100AD0001F93CF93DF931F92CDB7DEB76C0181E0F8
:100AE000D60158968C9358975B969C915B975C9631
:100AF0008C915C97981307C05096ED91FC9151979B
:100B0000808185FD2DC0F601038D10E00F5F1F4F22
:100B10000F731127F02EF601848DF81210C00FB656
:100B200007FCF9CFD6015096ED91FC915197808149
:100B300085FFF1CFC601698385DF6981ECCF838DA5
:100B4000E80FF11DE35AFF4F6083D6015B960C93CB
:100B50005B975296ED91FC915397808180620CC017
:100B6000D6015696ED91FC91579760835096ED9182
:100B7000FC91519780818064808381E090E00F90A8
:100B8000DF91CF911F910F91FF90DF90CF9008954B
:100B9000BF92CF92DF92EF92FF92CF93DF93EC015F
:100BA0006A017B01B22EE889F98982E080834115D0
:100BB00081EE58076105710599F060E079E08DE3F9
:100BC00090E0A70196010FD7215031094109510941
:100BD0005695479537952795211580E1380790F070
:100BE000E889F989108260E874E88EE190E0A70155
:100BF0009601F9D621503109410951095695479579
:100C000037952795EC85FD853083EE85FF8520831C
:100C1000188EEC89FD89B082EA89FB898081806128
:100C20008083EA89FB89808188608083EA89FB89E7
:100C3000808180688083EA89FB8980818F7D8083C1
:100C4000DF91CF91FF90EF90DF90CF90BF9008950C
:100C50001F920F920FB60F9211242F938F939F9391
:100C6000EF93FF93E091E401F091E5018081E09141
:100C7000EA01F091EB0182FD12C090818091ED01BB
:100C80008F5F8F732091EE01821751F0E091ED019B
:100C9000F0E0EC52FE4F958F8093ED0101C0808112
:100CA000FF91EF919F918F912F910F900FBE0F9019
:100CB0001F9018951F920F920FB60F9211242F9329
:100CC0003F934F935F936F937F938F939F93AF93D4
:100CD000BF93EF93FF9384ED91E0B4DEFF91EF912A
:100CE000BF91AF919F918F917F916F915F914F9144
:100CF0003F912F910F900FBE0F901F90189584ED8C
:100D000091E066DE21E0892B09F420E0822F08952E
:100D10001092D7011092D60188EE93E0A0E0B0E0E7
:100D20008093D8019093D901A093DA01B093DB01AD
:100D30008AE391E09093D5018093D40185EC90E013
:100D40009093E1018093E00184EC90E09093E301C3
:100D50008093E20180EC90E09093E5018093E401C0
:100D600081EC90E09093E7018093E60182EC90E0C3
:100D70009093E9018093E80186EC90E09093EB0179
:100D80008093EA011092ED011092EE011092EF01B2
:100D90001092F0010895CF92DF92EF92FF920F939D
:100DA0001F93CF93DF937C016A01EB0100E010E019
:100DB0000C151D0571F06991D701ED91FC91019021
:100DC000F081E02DC7010995892B19F00F5F1F4FA6
:100DD000EFCFC801DF91CF911F910F91FF90EF905E
:100DE000DF90CF9008956115710581F0DB010D90C2
:100DF0000020E9F7AD0141505109461B570BDC01BA
:100E0000ED91FC910280F381E02D099480E090E067
:100E10000895E9CF66E471E0E6CF0F931F93CF9377
:100E2000DF93EC01E0DF8C01CE01F4DF800F911F36
:100E3000DF91CF911F910F9108950F931F93CF933F
:100E4000DF93EC018FD2688779878A879B87E88157
:100E5000F9810680F781E02DCE01099597FF14C036
:100E600081D2088519852A853B85601B710B820B11
:100E7000930B0C811D812E813F81601771078207C2
:100E8000930728F38FEF9FEFDF91CF911F910F9181
:100E90000895EF92FF920F931F93CF93DF93EC018E
:100EA0008B01E42E68E471E0BCD0C801C6DFFF24EA
:100EB000E7FCF09497FD09C08E159F0531F0682F6F
:100EC000CE0121D1C801B9DFF5CFCE01DF91CF919D
:100ED0001F910F91FF90EF900895CF93DF9300D073
:100EE00000D0CDB7DEB79B01AC016115710581055E
:100EF000910559F069833A834B835C8342D72981FA
:100F00003A814B815C8191D503C060E070E0CB01F8
:100F10000F900F900F900F90DF91CF910895CF9287
:100F2000DF92EF92FF926B017C01621773078407D7
:100F300095075CF4CA01B9016C197D098E099F09F6
:100F4000CCDF6C0D7D1D8E1D9F1DFF90EF90DF90FF
:100F5000CF900895FC01808191813AC6CF93DF93B1
:100F6000EC0188819981009709F032D619821882A4
:100F70001D821C821B821A82DF91CF9108950F93EC
:100F80001F93CF93DF93EC018B016F5F7F4F8881BD
:100F9000998103D7009731F0998388831B830A8353
:100FA00081E001C080E0DF91CF911F910F91089502
:100FB000CF93DF93EC0188819981892B29F08A8175
:100FC0009B818617970758F4CE01D9DF882341F01B
:100FD0008C819D81892B19F4E881F981108281E04F
:100FE000DF91CF910895EF92FF920F931F93CF93CC
:100FF000DF93EC017B018A01BA01DADF811103C0C2
:10100000CE01ACDF06C01D830C83B70188819981B6
:10101000D0D7CE01DF91CF911F910F91FF90EF902C
:101020000895FC01118210821382128215821482AB
:101030006115710551F0FB0101900020E9F7AF0146
:1010400041505109461B570BCECF0895CF93DF93E4
:10105000EC01FB018617970751F0608171816115E2
:10106000710521F044815581BEDF01C077DFCE01DB
:10107000DF91CF910895FC011182108213821282B8
:1010800015821482E3CFCF93DF93EC0161157105D4
:1010900059F0FB0101900020E9F7AF0141505109DF
:1010A000461B570BA0DF01C059DFCE01DF91CF9166
:1010B0000895EF92FF920F931F93CF93DF93EC016C
:1010C0007B010C811D816115710511F480E014C054
:1010D0004115510581F0040F151FB80169DF882300
:1010E000A9F3288139818C819D81B701820F931FDB
:1010F00060D71D830C8381E0DF91CF911F910F9109
:10110000FF90EF900895CF93DF9300D0CDB7DEB777
:1011100069831A8241E050E0BE016F5F7F4FC9DFF3
:101120000F900F90DF91CF910895CF93DF93FC0143
:10113000848195814817590770F4C081D181772740
:1011400067FD7095CE01840F951F28D7009719F081
:101150008C1B9D0B02C08FEF9FEFDF91CF91089505
:1011600040E050E0E2CFBF92CF92DF92EF92FF9249
:101170000F931F93CF93DF936C017B01EA018901E9
:101180002417350720F48D2FE901042F182F68E468
:1011900071E0C60146DFD70114968D919C91159799
:1011A000C817D907C0F48017910708F48C01D7013C
:1011B000ED91FC911197E00FF11FB08010826D91BD
:1011C0007C916C0F7D1FC6015EDFD701ED91FC9114
:1011D000E00FF11FB082C601DF91CF911F910F91F7
:1011E000FF90EF90DF90CF90BF900895AF92BF92A5
:1011F000CF92DF92EF92FF920F931F93CF93DF93E3
:101200007C01DC01CD90DC901197C114D10409F46C
:101210003EC01496CD91DC9115972097C1F15601EF
:101220008501BFEFAB1ABB0AF8018081992787FDC2
:1012300090959CD6892BA1F72197CC0DDD1D888137
:10124000992787FD909592D6892B89F4AE014F5F3F
:101250005F4F401B510BD70115965C934E9314972B
:10126000C016D10648F4B801C60188D605C0C0171B
:10127000D10760F32197E3CFD701ED91FC9111974E
:1012800014968D919C911597E80FF91F1082DF91AC
:10129000CF911F910F91FF90EF90DF90CF90BF9073
:1012A000AF900895FC0180819181009709F038C6C4
:1012B00060E070E0CB0108950895A8D0FDDF54DB15
:1012C000C5E1D5E024DA2097E9F3AFDBFBCFE8C333
:1012D0001F920F920FB60F9211242F933F938F936B
:1012E0009F93AF93BF938091720290917302A091EC
:1012F0007402B09175023091710223E0230F2D37F3
:1013000020F40196A11DB11D05C026E8230F029609
:10131000A11DB11D209371028093720290937302FC
:10132000A0937402B0937502809176029091770237
:10133000A0917802B09179020196A11DB11D809310
:10134000760290937702A0937802B0937902BF91CE
:10135000AF919F918F913F912F910F900FBE0F9062
:101360001F9018952FB7F8946091720270917302D4
:1013700080917402909175022FBF08953FB7F89441
:101380008091760290917702A0917802B0917902D3
:1013900026B5A89B05C02F3F19F00196A11DB11DD0
:1013A0003FBF6627782F892F9A2F620F711D811DED
:1013B000911D42E0660F771F881F991F4A95D1F74C
:1013C0000895CF92DF92EF92FF92CF93DF936B015C
:1013D0007C01D4DFEB01C114D104E104F10479F004
:1013E00050D0CCDF6C1B7D0B683E7340A0F381E0D6
:1013F000C81AD108E108F108C851DC4FECCFDF91E1
:10140000CF91FF90EF90DF90CF900895789484B5BE
:10141000826084BD84B5816084BD85B5826085BDF0
:1014200085B5816085BDEEE6F0E0808181608083D6
:10143000E1E8F0E0108280818260808380818160B9
:101440008083E0E8F0E0808181608083E1EBF0E080
:10145000808184608083E0EBF0E080818160808324
:10146000EAE7F0E08081846080838081826080830D
:101470008081816080838081806880831092C10038
:10148000089508950F931F93CF93DF93EC01798311
:1014900068838B01000F111F060F171F1B830A8320
:1014A0002C834D8350E0FA01E057FF4FE491F0E0C8
:1014B000EE0FFF1FEC55FF4F859194919E878D870E
:1014C000FA01E458FF4F44914F87C801E9D2988749
:1014D0008F83009741F0A80160E070E0DF91CF9129
:1014E0001F910F9154C5DF91CF911F910F910895D6
:1014F000CF93DF93EC0161E08D81F3D160E08D81CA
:10150000DF91CF9127C2CF92DF92EF92FF920F939C
:101510001F93CF93DF93CDB7DEB729970FB6F8941B
:10152000DEBF0FBECDBF8C01DC0117968D919C9163
:101530001897892B09F499C021DFF801C184D2845E
:10154000E384F4846C197D098E099F096233710567
:101550008105910588F3F894828193819A83898328
:10156000A781B0857D01EFEFEE1AFE0A8C91898785
:10157000D80114969C9114971D960D90BC91A02DA6
:10158000F801878591FF2EC09C91982B98879C919C
:10159000809589238F838F818E8388E08D83588502
:1015A0006F8149853D812E8189819A81F7015C9304
:1015B00047FD252F3A952C93262F39F0441F00C064
:1015C00000006C93000000C0F2CF38E041916C93B2
:1015D0000000019761F7F801B687A58749873D8329
:1015E0002E8338C09C91982B98879C918095892355
:1015F0008F838F818C8388E08B8358856F814985A9
:101600003B812C8189819A81F7015C9347FD252FCD
:1016100000C000C02C9300C000C000C000C000C0CB
:101620006C930000262F3A9541F0441F000000C043
:1016300000C000C000C000C0E8CF38E0419100C049
:101640006C9300C0019709F7F801B687A587498711
:101650003B832C839A838983789490DED8011996F2
:101660006D937D938D939C931C9729960FB6F89458
:10167000DEBF0FBECDBFDF91CF911F910F91FF90C5
:10168000EF90DF90CF9008950F931F93DC018D9121
:101690009C9111976817790740F516968C911697CB
:1016A000882361F0489FA0011124452F289F9001B5
:1016B0001124232F089F80011124012FCB01880FB3
:1016C000991F860F971F1796ED91FC911897E80FB9
:1016D000F91F14968C91DF01129680FF03C02083BE
:1016E000418302C0408321830C931F910F91089581
:1016F000CF92DF92EF92FF920F931F93CF93DF93DE
:10170000FC01808191816817790778F5CA01AA27C1
:10171000BB27182FC32ED42EE52EFF24DC2D022F3D
:10172000C681CC2361F08C9FC0011124192FCC9E5F
:1017300060011124DD2D2C9F90011124032FCB017A
:10174000880F991F860F971FA781B085A80FB91F13
:101750008481FD01329680FF04C0DC9311961C93B6
:1017600003C01C931196DC930083DF91CF911F91EE
:101770000F91FF90EF90DF90CF900895962F50E05B
:1017800060E070E0592B682BCB01BA0108950F93EC
:101790001F93DC018D919C9111976817790778F55B
:1017A000CB01880F991F860F971F1796ED91FC911B
:1017B0001897E80FF91F428150E060E070E014963E
:1017C0008C91218180FF0AC0808190E0A0E0B0E090
:1017D000BA2FA92F982F8827A22B08C0808190E0CC
:1017E000A0E0B0E0DC0199278827922B8C019D01B5
:1017F000042B152B262B372BC901B80103C060E041
:1018000070E0CB011F910F910895FC0180819181BF
:101810000895FF920F931F93CF93DF93EC01FF2462
:10182000F394F60E2E81F21669F10F81188521507E
:10183000A9F06F3F51F430E040E050E06FEF7FEFF0
:1018400080E090E0F2D0B9010BC08F2D90E0982F8E
:1018500088270197622F70E0B2D002C060E070E08C
:10186000F8018A819B81AF01401B510B4817590732
:1018700040F44081469FC001479F900D11249193F1
:10188000F0CFFE82DF91CF911F910F91FF900895CD
:10189000833081F028F4813099F08230A1F00895EE
:1018A0008730A9F08830B9F08430D1F4809180007D
:1018B0008F7D03C0809180008F7780938000089592
:1018C00084B58F7702C084B58F7D84BD08958091E3
:1018D000B0008F7703C08091B0008F7D8093B000FF
:1018E0000895CF93DF9390E0FC01E458FF4F2491DB
:1018F000FC01E057FF4F8491882349F190E0880F65
:10190000991FFC01E255FF4FA591B4918C559F4F53
:10191000FC01C591D4919FB7611108C0F8948C91D6
:10192000209582238C93888182230AC0623051F4EF
:10193000F8948C91322F309583238C938881822B5D
:10194000888304C0F8948C91822B8C939FBFDF9185
:10195000CF9108950F931F93CF93DF931F92CDB72D
:10196000DEB7282F30E0F901E859FF4F8491F901E3
:10197000E458FF4F1491F901E057FF4F0491002301
:10198000C1F0882319F0698383DF6981E02FF0E0DB
:10199000EE0FFF1FEC55FF4FA591B4919FB7F89440
:1019A0008C91611103C01095812301C0812B8C9310
:1019B0009FBF0F90DF91CF911F910F910895AA1BA8
:1019C000BB1B51E107C0AA1FBB1FA617B70710F02A
:1019D000A61BB70B881F991F5A95A9F7809590955C
:1019E000BC01CD010895A1E21A2EAA1BBB1BFD016B
:1019F0000DC0AA1FBB1FEE1FFF1FA217B307E407EE
:101A0000F50720F0A21BB30BE40BF50B661F771F45
:101A1000881F991F1A9469F7609570958095909525
:101A20009B01AC01BD01CF010895052E97FB16F473
:101A300000940FD057FD05D0D6DF07FC02D046F446
:101A400008C050954095309521953F4F4F4F5F4FBF
:101A5000089590958095709561957F4F8F4F9F4F1A
:101A600008950FD0A59F900DB49F900DA49F800D59
:101A7000911D11240895EE0FFF1F0590F491E02DA4
:101A80000994A29FB001B39FC001A39F700D811D57
:101A90001124911DB29F700D811D1124911D089577
:101AA000CF93DF938230910510F482E090E0E091D3
:101AB0007C02F0917D0220E030E0A0E0B0E03097C1
:101AC00039F14081518148175907B8F04817590733
:101AD00071F482819381109729F013969C938E93D1
:101AE00012972CC090937D0280937C0227C0211511
:101AF000310531F04217530718F0A901DB0101C08D
:101B0000EF019A01BD01DF010280F381E02DD7CF03
:101B100021153105F9F0281B390B2430310580F4EB
:101B20008A819B816115710521F0FB01938382837A
:101B300004C090937D0280937C02FE01329644C0E3
:101B4000FE01E20FF31F81939193225031093983F3
:101B500028833AC020917A0230917B02232B41F4F2
:101B6000209102013091030130937B0220937A028D
:101B700020910001309101012115310541F42DB76B
:101B80003EB74091040150910501241B350BE091B3
:101B90007A02F0917B02E217F307A0F42E1B3F0BB1
:101BA0002817390778F0AC014E5F5F4F24173507CF
:101BB00048F04E0F5F1F50937B0240937A0281934F
:101BC000919302C0E0E0F0E0CF01DF91CF91089562
:101BD000CF93DF93009709F487C0FC0132971382FB
:101BE0001282C0917C02D0917D02209781F42081E5
:101BF0003181280F391F80917A0290917B028217E0
:101C0000930779F5F0937B02E0937A026DC0DE01D1
:101C100020E030E0AE17BF0750F412964D915C9172
:101C200013979D014115510509F1DA01F3CFB383F3
:101C3000A28340815181840F951F8A179B0771F4FD
:101C40008D919C911197840F951F029691838083AB
:101C500012968D919C911397938382832115310560
:101C600029F4F0937D02E0937C023EC0D9011396E3
:101C7000FC93EE9312974D915D91A40FB51FEA1757
:101C8000FB0779F480819181840F951F0296D90119
:101C900011969C938E938281938113969C938E933D
:101CA0001297E0E0F0E08A819B81009719F0FE0135
:101CB000EC01F9CFCE01029628813981820F931F62
:101CC00020917A0230917B022817390769F4309706
:101CD00029F410927D0210927C0202C013821282BB
:101CE000D0937B02C0937A02DF91CF9108958F92B7
:101CF0009F92AF92BF92CF92DF92EF92FF92CF93DB
:101D0000DF93EC01688179818A819B81611571057E
:101D10008105910521F464E279ED8BE597E02DE1F1
:101D200033EF41E050E081DE49015A019B01AC01F3
:101D3000A7EAB1E496DE6B017C01ACEEB4EFA5013D
:101D4000940158D1C60ED71EE81EF91EF7FE06C034
:101D500081E0C81AD108E10880E8F80AC882D9826F
:101D6000EA82FB82C701B6019F77DF91CF91FF9096
:101D7000EF90DF90CF90BF90AF909F908F9008959D
:101D8000B6CF86E091E0B3CF609306017093070170
:101D900080930801909309010895A0E0B0E0E2ED7E
:101DA000FEE030C1EC01CB01209711F479DEB4C024
:101DB000FE01E60FF71F9E0122503109E217F307DB
:101DC00008F4A8C0D9010D911C91119706171707A7
:101DD000B0F00530110508F49BC0A801445051092A
:101DE0004617570708F494C002501109061B170B39
:101DF000019311936D937C93CF01EADE89C05B015F
:101E0000A01AB10A4E01800E911EA0917C02B091E1
:101E10007D02612C712C60E070E0109709F449C0DC
:101E2000A815B905C9F5ED90FC901197670142E03E
:101E3000C40ED11CCA14DB0478F147018A189B0830
:101E4000640142E0C40ED11C1296BC901297139606
:101E5000AC91B5E0CB16D10440F0B282A38391825D
:101E60008082D9018D939C9309C00E5F1F4F0E0D88
:101E70001F1DF90111830083EB2DFA2F61157105E8
:101E800031F0DB011396FC93EE93129741C0F0936F
:101E90007D02E0937C023CC06D917C9111976616A7
:101EA000770608F43B01BD0112960D90BC91A02D60
:101EB000B4CF60917A0270917B0268157905E9F4DC
:101EC00068167906D0F44091000150910101411546
:101ED000510541F44DB75EB7609104017091050161
:101EE000461B570BE417F507A8F4F0937B02E09329
:101EF0007A02F901918380830BC0D2DD7C010097C7
:101F000049F0A801BE013AD0CE0162DEC70104C08B
:101F1000CE0102C080E090E0CDB7DEB7EEE08EC02B
:101F20001F93FC0199278827BC01E8941191103276
:101F3000E9F3193010F01E30C8F31B3249F01D329E
:101F400041F4689405C03CD0610F711D811D911D45
:101F5000119110531A30B8F33EF490958095709516
:101F600061957F4F8F4F9F4F1F91089591113DC0F5
:101F7000803219F089508550D0F70895FB01DC01BB
:101F800002C001900D9241505040D8F70895DC01F5
:101F900001C06D9341505040E0F70895FC018191DC
:101FA000861721F08823D9F7992708953197CF0113
:101FB0000895FB01DC0101900D920020E1F70895E6
:101FC000592F482F372F262F660F771F881F991FED
:101FD000660F771F881F991F620F731F841F951F3D
:101FE000660F771F881F991F0895992788270895DE
:101FF000B7FF37CD36DD821B930B08952F923F92AA
:102000004F925F926F927F928F929F92AF92BF9208
:10201000CF92DF92EF92FF920F931F93CF93DF93B4
:10202000CDB7DEB7CA1BDB0B0FB6F894DEBF0FBE11
:10203000CDBF09942A88398848885F846E847D845E
:102040008C849B84AA84B984C884DF80EE80FD8060
:102050000C811B81AA81B981CE0FD11D0FB6F894D6
:10206000DEBF0FBECDBFED01089510E0CCEBD0E098
:1020700003C0FE0102DD2296CE3BD107D1F7F894D2
:02208000FFCF90
:1020820000007E0220000100000001010A53657277
:1020920069616C205265636965766564006D617380
:1020A200746572004265666F726520496E697400DC
:1020B200416674657200000000006405CB06E80406
:1020C2000105F30443050D0A006E616E00696E6638
:0820D200006F7666002E00008D
:00000001FF
