:100000005EC0000084C0000082C0000080C000000C
:100010007EC000007CC000007AC0000078C00000F4
:1000200076C0000074C0000072C0000070C0000004
:100030006EC000006CC000006AC0000068C0000014
:100040000C94450C64C000000C9425080C945708CF
:100050005EC000005CC000005AC0000058C0000034
:1000600056C0000054C0000000000008000201005B
:100070000003040700000000000000000102040863
:100080001020408001020408102001020408102002
:10009000040404040404040402020202020203032E
:1000A0000303030300000000250028002B000000CC
:1000B0000000240027002A00980485083805112430
:1000C0001FBECFEFD8E0DEBFCDBF11E0A0E0B1E0B2
:1000D000E6EEF5E202C005900D92A039B107D9F71E
:1000E00026E0A0E9B1E001C01D92A136B207E1F718
:1000F00010E0CCEBD0E004C02297FE010E94EF0F8D
:10010000C83BD107C9F70E943A0C0C94E71278CF8C
:10011000CF92DF92EF92FF920F931F93CF93DF93D3
:100120007C01162FD42EC22EC0E0D0E0F7018081D2
:100130009181C817D9075CF40C2D2D2D412FBE01DC
:10014000F701848195810E94210E2196EFCFDF91E6
:10015000CF911F910F91FF90EF90DF90CF90089576
:100160008091AC019091AD010C94600DAF92BF9263
:10017000CF92DF92EF92FF920F931F93CF93DF9373
:1001800000D000D000D0CDB7DEB76C0100E815E09C
:100190008CE9A82E85E0B82EE12CF12CE114F104B5
:1001A00031F56CE2C6010E948D0BAC01662757FD4C
:1001B0006095762F4093840550938505609386055E
:1001C000709387059C0142E050E0B601CE01019694
:1001D0000E94900BCE0101960E942F0C60939C050B
:1001E00070939D0580939E0590939F0526C0F8010E
:1001F000408151814F5F5F4F6CE2C6010E94720BDC
:10020000AC01662757FD6095762FF801448355832E
:1002100066837783408151814F5F5F4F9C01B601B8
:10022000CE0101960E94900BCE0101960E942F0CE8
:10023000F5016083718382839383CE0101960E94CE
:10024000870AFFEFEF1AFF0A0C5F1F4F84E0A80E2A
:10025000B11CE5E0EE16F10409F0A0CFC0909C05BA
:10026000D0909D05E0909E05F0909F0586016091DD
:10027000A0058091A10560934205809343054091BC
:10028000A4058091A50540934005809341052091E8
:10029000A8058091A90520933E0580933F0581E044
:1002A0008093B605C114D10419F488EA91E030DFD7
:1002B000F1E0CF1AD10888E0C816D10490F42AE8FA
:1002C00033E0C29EC001C39E900DD29E900D1124BA
:1002D00020913E05409140056091420588559E4F12
:1002E00017DF0930110571F481E08093B5050E9494
:1002F0008F0C609338057093390580933A0590937D
:100300003B050EC00A30110559F41092B505209135
:100310003E05409140056091420588EA91E0F8DE93
:1003200081E08093B40526960FB6F894DEBF0FBE29
:10033000CDBFDF91CF911F910F91FF90EF90DF9094
:10034000CF90BF90AF900895AF92BF92CF92DF92BF
:10035000EF92FF920F931F93CF93DF93CDB7DEB74A
:100360002C970FB6F894DEBF0FBECDBF6C0100E82E
:1003700015E09CE9A92E95E0B92EE12CF12CE114B1
:10038000F10431F56CE2C6010E948D0BAC016627C9
:1003900057FD6095762F40938405509385056093B3
:1003A0008605709387059C0142E050E0B601CE01BE
:1003B00001960E94900BCE0101960E942F0C609333
:1003C0009C0570939D0580939E0590939F0526C084
:1003D000F801408151814F5F5F4F6CE2C6010E947E
:1003E000720BAC01662757FD6095762FF8014483A8
:1003F000558366837783408151814F5F5F4F9C01B6
:10040000B601CE0101960E94900BCE0101960E948A
:100410002F0CF5016083718382839383CE01019653
:100420000E94870AFFEFEF1AFF0A0C5F1F4F84E05C
:10043000A80EB11C96E0E916F10409F0A0CF2091B6
:100440009C0530919D058091A0059091A105A091FA
:10045000A205B091A3054091A4055091A505609116
:10046000A6057091A70549835A836B837C834091CD
:10047000A8055091A9056091AA057091AB054D831F
:100480005E836F8378874091AC055091AD05609194
:10049000AE057091AF0549875A876B877C8740917D
:1004A000B0055091B10550933D0540933C05213076
:1004B0003105A1F5019791F5A0E9B1E0FE01319672
:1004C0006F018D919C91119712966D917C9113976C
:1004D000861797074CF01896F4E0CF0ED11C81E0F8
:1004E000A83AB80771F71AC0F60110810181F280AD
:1004F0009C0128553E4FA9014F5A5F4FFA01F082E7
:10050000455B5F4FFA010083455B5F4FFA01108343
:100510002E5C3E4FF90110820196DACF10920D0148
:100520002C960FB6F894DEBF0FBECDBFDF91CF91F2
:100530001F910F91FF90EF90DF90CF90BF90AF9001
:100540000895EF92FF920F931F93CF93DF932AE8C2
:1005500033E0829F8001839F100D929F100D112424
:1005600008551E4FC0E0D0E07801F70184819581E5
:100570000E94A40E0197C817D90754F4F801EC0F94
:10058000FD1FEE5CFE4F8081882319F02196EDCF90
:1005900081E0DF91CF911F910F91FF90EF9008952F
:1005A0004F925F926F927F928F929F92AF92BF9283
:1005B000CF92DF92EF92FF920F931F93CF93DF932F
:1005C0002AE833E0829FE001839FD00D929FD00DF7
:1005D0001124C855DE4FC12CD12CE12CF12CAA24BA
:1005E000AA94B12C2E01F601EE0FFF1FEC0FFD1F98
:1005F000E853FE4F4081218162814E018C0C9D1C8D
:100600008CE0881A8DEF980AD401ED91FC918F014E
:10061000F7FF04C0002711270E1B1F0B70E06F5F50
:100620007109609FC001619F900D709F900D112412
:10063000B5010E94920F3B01BFEF6B0E711C30E0C1
:100640002F5F3109209FC001219F900D309F900D99
:100650001124B5010E94920F9B0121503F4F50E0A1
:100660004F5F5109409FC001419F900D509F900DD9
:100670001124B5010E94920F8B0101501F4FEF3FD3
:10068000F10524F0F401B182A08204C03596D401B2
:10069000ED93FC93462DB701F201848195810E9470
:1006A000210EFFEFEF1AFF0A82E0C80ED11CAAE06C
:1006B000EA16F10409F097CFDF91CF911F910F91C6
:1006C000FF90EF90DF90CF90BF90AF909F908F9072
:1006D0007F906F905F904F900895CF93DF93E901E3
:1006E000CC0FDD1FCC0FDD1FFE01EC5BFA4F6083EA
:1006F0007183828393830E948F0CFE01EC59FA4F21
:100700006083718382839383DF91CF9108952F92C9
:100710003F924F925F926F927F928F929F92AF9291
:10072000BF92CF92DF92EF92FF920F931F93CF93DE
:10073000DF935C018AE893E0A89E7001A99EF00C0B
:10074000B89EF00C1124C70188559E4F7C01412CA6
:10075000512CC0E0D0E01C01F101848195810E9400
:10076000A40EC817D9070CF092C04701840C951C41
:1007700098E3891A9EEF990AF40100818181C28071
:10078000D12C90E010E020910A0130E0D701AC0FAD
:10079000BD1FFD01EF5AFF4F608170E0AB014C19A6
:1007A0005D09141615061CF0A601461B570B2417ED
:1007B00035074CF4C616D7061CF4C20ED31E04C06F
:1007C000C21AD30A01C06B01FD01E456FF4F4081FC
:1007D00050E0FA01E81BF90B1E161F061CF0FC0185
:1007E000E41BF50B2E173F0754F43C0184179507C3
:1007F0001CF4620E731E04C0621A730A01C03A012F
:10080000FD01E951FF4F808190E0FC01E01BF10BFD
:100810001E161F061CF0F801E81BF90B2E173F07E8
:100820004CF4081719071CF4020F131F04C0021B15
:10083000130B01C08C01C616D70631F46416750679
:1008400019F40817190759F1402F662D8C2D0E94B5
:100850009B0EF4016083718382839383262D4C2D3C
:10086000BE01F101848195810E94210E60913C05B9
:1008700070913D05882777FD8095982F20E030E026
:10088000A9012BDF2196F4E04F0E511C65CFC50165
:1008900058DE882349F081E080930D0105C0AE5CED
:1008A000BE4FF1E0FC93D0CFDF91CF911F910F911C
:1008B000FF90EF90DF90CF90BF90AF909F908F9080
:1008C0007F906F905F904F903F902F9008950F937F
:1008D0001F93CF93DF93EC010E948F0CAE01440F66
:1008E000551F440F551FEA01CC59DA4F0881198171
:1008F0002A813B81601B710B820B930BFA01EC5B2D
:10090000FA4F0081118122813381601771078207BC
:10091000930740F00E948F0C688379838A839B83BE
:1009200081E001C080E0DF91CF911F910F91089588
:100930008F929F92AF92BF92CF92DF92EF92FF92EF
:100940000F931F93CF93DF9360E871E082E395E00C
:1009500045D68BE490E09093A9018093A80182E0B2
:1009600090E09093AB018093AA0180E190E08CD756
:10097000EC016091A8017091A90123E04091AA01C6
:100980000E941F0DD093AD01C093AC01C090A8018F
:10099000D090A901FEEA8F2EF1E09F2EA5E2B3E0F0
:1009A000C9EFD1E024E432E04FE852E06AED72E0B2
:1009B00000E713E08CE9E82E84E0F82E80E090E078
:1009C000AA24AA94B12C8C159D05D4F4F40111929B
:1009D0004F011D921992F90111929F01FA01119292
:1009E000AF01FB011192BF01F80111921192119216
:1009F00011928F01F701A192B1927F010196E3CF8D
:100A000010929101109290018FE090E090939301E9
:100A100080939201109294012FEF2093970190936D
:100A200099018093980189E190E090939B018093D4
:100A30009A0110929C0120939F019093A1018093B1
:100A4000A0018BE490E09093A3018093A201109207
:100A5000A4012093A701DF91CF911F910F91FF90E7
:100A6000EF90DF90CF90BF90AF909F908F900895C0
:100A700082E395E04CC5DF92EF92FF920F931F93B4
:100A8000CF93DF9300D000D000D0CDB7DEB787EB97
:100A900095E09BD1181619060CF065C06FE071E067
:100AA00087EB95E0DCD340910E0167EB75E0CE015A
:100AB0000196CCD4BE016F5F7F4F82E395E0A3D552
:100AC000CE01019624D56DE171E087EB95E0C7D3A7
:100AD00082E395E068D662E375E087EB95E0AFD3FB
:100AE00064E582E395E019D6892B39F464E782E363
:100AF00095E013D6019709F4ECC063E482E395E036
:100B00000CD6892B39F463E682E395E006D601978B
:100B100009F4EBC063E582E395E0FFD5892B19F575
:100B200063E782E395E0F9D50197E9F400E911E084
:100B3000F801608171814AE050E087EB95E03DD497
:100B400066E371E087EB95E08AD3F80162817381F7
:100B50004AE050E087EB95E037D4085F1F4FF1E0A3
:100B6000083A1F0729F78091B505882309F471C059
:100B7000D6D6009138051091390520913A0530916B
:100B80003B05601B710B820B930B6C337105810568
:100B9000910508F45EC0C3D624E130E040E050E0A7
:100BA0000E94A50FCA01B90120E035E040E050E005
:100BB0000E94A50FD62EE12CF12C00E010E08091D0
:100BC000AC019091AD010E94A40E2091AC01309136
:100BD000AD010817190790F5C9010E94A40EBC01C8
:100BE000C7010E947E0F962F9D0D953538F4892FF1
:100BF000880F890F682F609540E011C09A3A40F045
:100C00009A5A692F660F690F462F409580E007C0FA
:100C10009555892F880F890F482F60E080950E9495
:100C20009B0E9B01AC01B8018091AC019091AD018C
:100C30000E94550E0F5F1F4FF394C1CFC90140D7DB
:100C40006ED6609338057093390580933A0590937A
:100C50003B0580910A01882349F080910D018111A3
:100C600005C080E090E033DE811155C080910C0119
:100C7000882331F080E090E093DC81E08093B4053C
:100C800081E090E024DE8823E1F02AE030E040E0DB
:100C900050E060E070E0CB011FD4FB01E658FE4F4E
:100CA000EE0FFF1FE855FE4F81E09FEF9183808399
:100CB00021E030E040E050E068EC70E080E090E05F
:100CC0000CDD8091B405882369F14ADA1092B405ED
:100CD00029C062E375E0CE010196AAD4CE01019647
:100CE00033DBCE01019613D408CF6AE371E087EBC2
:100CF00095E0B5D262E375E0CE01019699D4CE01BC
:100D0000019634DACE01019602D46DE471E087EBEE
:100D100095E0A5D2FFCE81E08093B40580E090E01D
:100D2000F6DCA4CF26960FB6F894DEBF0FBECDBF7B
:100D3000DF91CF911F910F91FF90EF90DF90089579
:100D4000CF9368EE73E080E090E018D6C1E087EBC7
:100D500095E03BD01816190684F061E671E087EB48
:100D600095E062D287EB95E067D2C0930B016CE20D
:100D700071E080E090E002D6EACFCF910895CF9362
:100D8000DF9326E040E051EE60E070E087EB95E015
:100D9000FCD0C8EAD1E08C819D8192D68C819D8166
:100DA00084D66FEF8C819D81D3D768E671E087EBA5
:100DB00095E055D2C5DF20E030E0A90161E070E0A8
:100DC00080E090E0DF91CF9188CCFC01818D228D75
:100DD00090E0805C9F4F821B91098F739927089543
:100DE000FC01918D828D981731F0828DE80FF11DF5
:100DF000858D90E008958FEF9FEF0895FC01918D10
:100E0000828D981761F0828DDF01A80FB11D5D966C
:100E10008C91928D9F5F9F73928F90E008958FEFDA
:100E20009FEF08958CE798E0892B41F080E090E0F7
:100E3000892B21F061D181110C9400000895FC01EF
:100E4000848DDF01A80FB11DA35ABF4F2C91848D53
:100E500090E001968F739927848FA689B7892C9388
:100E6000A089B1898C9180648C93938D848D981323
:100E700006C00288F389E02D80818F7D80830895EC
:100E8000CF93DF93EC01888D8823C1F0EA89FB8939
:100E9000808185FD05C0A889B9898C9186FD0EC029
:100EA0000FB607FCF5CF808185FFF2CFA889B989FD
:100EB0008C9185FFEDCFCE01C2DFE8CFDF91CF91DE
:100EC0000895CF92DF92FF920F931F93CF93DF93FA
:100ED0001F92CDB7DEB76C0181E0D60158968C9396
:100EE00058975B969C915B975C968C915C97981356
:100EF00007C05096ED91FC915197808185FD2DC0E2
:100F0000F601038D10E00F5F1F4F0F731127F02EB6
:100F1000F601848DF81210C00FB607FCF9CFD60188
:100F20005096ED91FC915197808185FFF1CFC601DC
:100F3000698385DF6981ECCF838DE80FF11DE35A6A
:100F4000FF4F6083D6015B960C935B975296ED91B1
:100F5000FC915397808180620CC0D6015696ED912A
:100F6000FC91579760835096ED91FC915197808149
:100F70008064808381E090E00F90DF91CF911F919A
:100F80000F91FF90DF90CF900895BF92CF92DF92A4
:100F9000EF92FF92CF93DF93EC016A017B01B22EB7
:100FA000E889F98982E08083411581EE580761055F
:100FB000710599F060E079E08DE390E0A70196017A
:100FC000C4D72150310941095109569547953795A4
:100FD0002795211580E1380790F0E889F98910827A
:100FE00060E874E88EE190E0A7019601AED7215049
:100FF0003109410951095695479537952795EC8553
:10100000FD853083EE85FF852083188EEC89FD8970
:10101000B082EA89FB89808180618083EA89FB89CB
:10102000808188608083EA89FB89808180688083F1
:10103000EA89FB8980818F7D8083DF91CF91FF904A
:10104000EF90DF90CF90BF9008951F920F920FB650
:101050000F9211242F938F939F93EF93FF93E0911F
:10106000C705F091C8058081E091CD05F091CE05CE
:1010700082FD12C090818091D0058F5F8F73209187
:10108000D105821751F0E091D005F0E0E954FA4F14
:10109000958F8093D00501C08081FF91EF919F9142
:1010A0008F912F910F900FBE0F901F9018951F9248
:1010B0000F920FB60F9211242F933F934F935F938C
:1010C0006F937F938F939F93AF93BF93EF93FF9310
:1010D00087EB95E0B4DEFF91EF91BF91AF919F91C7
:1010E0008F917F916F915F914F913F912F910F90D1
:1010F0000FBE0F901F90189587EB95E066DE21E0FC
:10110000892B09F420E0822F08951092BA051092DD
:10111000B90588EE93E0A0E0B0E08093BB05909322
:10112000BC05A093BD05B093BE0582E791E0909306
:10113000B8058093B70585EC90E09093C405809343
:10114000C30584EC90E09093C6058093C50580ECC0
:1011500090E09093C8058093C70581EC90E0909350
:10116000CA058093C90582EC90E09093CC058093EA
:10117000CB0586EC90E09093CE058093CD05109240
:10118000D0051092D1051092D2051092D305089582
:10119000CF92DF92EF92FF920F931F93CF93DF9343
:1011A0007C016A01EB0100E010E00C151D0571F0F7
:1011B0006991D701ED91FC910190F081E02DC7017B
:1011C0000995892B19F00F5F1F4FEFCFC801DF91F1
:1011D000CF911F910F91FF90EF90DF90CF900895E6
:1011E0006115710581F0DB010D900020E9F7AD017B
:1011F00041505109461B570BDC01ED91FC910280D7
:10120000F381E02D099480E090E00895DC01ED91F8
:10121000FC91DB0114964D915C9115976D917C9139
:101220000280F381E02D0994DBCFDC01ED91FC918C
:101230000190F081E02D09946EE771E0D1CF0F931A
:101240001F93CF93DF93EC01E1DF8C01CE01F4DF3C
:10125000800F911FDF91CF911F910F9108950F93F0
:101260001F93CF93DF93EC01BBDF8C01CE01E4DF52
:10127000800F911FDF91CF911F910F9108958F9251
:101280009F92AF92BF92CF92DF92EF92FF920F9315
:101290001F93CF93DF93CDB7DEB7A1970FB6F89426
:1012A000DEBF0FBECDBF7C01C42EE52FCB01D22EF9
:1012B00019A221E02D1510F02AE0D22E8E010F5D2B
:1012C0001F4F8D2C912CA12CB12C6C2D7E2FA501A4
:1012D00094013BD68C2DD29E801911240150110906
:1012E0008A3014F4805D01C0895CF8018083211587
:1012F00031054105510521F0C22EE32FCA01E5CF8A
:10130000B801C7016DDFA1960FB6F894DEBF0FBE1E
:10131000CDBFDF91CF911F910F91FF90EF90DF90A4
:10132000CF90BF90AF909F908F900895CF92DF9213
:10133000EF92FF920F931F93CF93DF93EC016A011B
:101340007B012115310579F4E881F9810190F08163
:10135000E02D642FDF91CF911F910F91FF90EF90BF
:10136000DF90CF9009942A303105D9F477FF18C067
:101370006DE25BDF8C0144275527BA014C195D09EA
:101380006E097F092AE0CE017ADF800F911FDF917D
:10139000CF911F910F91FF90EF90DF90CF90089524
:1013A0002AE0B701A601CE01DF91CF911F910F91E5
:1013B000FF90EF90DF90CF9062CF9A01AB0166274C
:1013C00057FD6095762FB2CF0F931F93CF93DF9386
:1013D000EC019A01AB01662757FD6095762FA6DFD9
:1013E0008C01CE0129DF800F911FDF91CF911F91DA
:1013F0000F9108950F931F93CF93DF93EC018FD23A
:10140000688779878A879B87E881F9810680F781D9
:10141000E02DCE01099597FF14C081D2088519856A
:101420002A853B85601B710B820B930B0C811D8100
:101430002E813F81601771078207930728F38FEF92
:101440009FEFDF91CF911F910F910895EF92FF923F
:101450000F931F93CF93DF93EC018B01E42E60E891
:1014600071E0BCD0C801C6DFFF24E7FCF09497FD13
:1014700009C08E159F0531F0682FCE0121D1C8011A
:10148000B9DFF5CFCE01DF91CF911F910F91FF9082
:10149000EF900895CF93DF9300D000D0CDB7DEB7A3
:1014A0009B01AC01611571058105910559F06983B6
:1014B0003A834B835C8317D729813A814B815C81C6
:1014C00066D503C060E070E0CB010F900F900F90E5
:1014D0000F90DF91CF910895CF92DF92EF92FF921C
:1014E0006B017C0162177307840795075CF4CA01DE
:1014F000B9016C197D098E099F09CCDF6C0D7D1D2A
:101500008E1D9F1DFF90EF90DF90CF900895FC01FE
:10151000808191810FC6CF93DF93EC0188819981FF
:10152000009709F007D6198218821D821C821B823F
:101530001A82DF91CF9108950F931F93CF93DF937A
:10154000EC018B016F5F7F4F88819981D8D600971E
:1015500031F0998388831B830A8381E001C080E096
:10156000DF91CF911F910F910895CF93DF93EC01FD
:1015700088819981892B29F08A819B818617970719
:1015800058F4CE01D9DF882341F08C819D81892BCD
:1015900019F4E881F981108281E0DF91CF910895FB
:1015A000EF92FF920F931F93CF93DF93EC017B0198
:1015B0008A01BA01DADF811103C0CE01ACDF06C0B7
:1015C0001D830C83B70188819981A5D7CE01DF9156
:1015D000CF911F910F91FF90EF900895FC01118220
:1015E000108213821282158214826115710551F0E6
:1015F000FB0101900020E9F7AF0141505109461B62
:10160000570BCECF0895CF93DF93EC01FB018617E4
:10161000970751F0608171816115710521F0448156
:101620005581BEDF01C077DFCE01DF91CF910895F4
:10163000FC01118210821382128215821482E3CF80
:10164000CF93DF93EC016115710559F0FB01019017
:101650000020E9F7AF0141505109461B570BA0DFAD
:1016600001C059DFCE01DF91CF910895EF92FF9233
:101670000F931F93CF93DF93EC017B010C811D81AE
:101680006115710511F480E014C04115510581F018
:10169000040F151FB80169DF8823A9F32881398158
:1016A0008C819D81B701820F931F35D71D830C83D9
:1016B00081E0DF91CF911F910F91FF90EF900895FE
:1016C000CF93DF9300D0CDB7DEB769831A8241E0B4
:1016D00050E0BE016F5F7F4FC9DF0F900F90DF9129
:1016E000CF910895CF93DF93FC01848195814817B2
:1016F000590770F4C081D181772767FD7095CE01BD
:10170000840F951FFDD6009719F08C1B9D0B02C00E
:101710008FEF9FEFDF91CF91089540E050E0E2CF4F
:10172000BF92CF92DF92EF92FF920F931F93CF93CE
:10173000DF936C017B01EA0189012417350720F44E
:101740008D2FE901042F182F60E871E0C60146DFF4
:10175000D70114968D919C911597C817D907C0F49D
:101760008017910708F48C01D701ED91FC91119736
:10177000E00FF11FB08010826D917C916C0F7D1F86
:10178000C6015EDFD701ED91FC91E00FF11FB08241
:10179000C601DF91CF911F910F91FF90EF90DF90E5
:1017A000CF90BF900895AF92BF92CF92DF92EF9209
:1017B000FF920F931F93CF93DF937C01DC01CD90B9
:1017C000DC901197C114D10409F43EC01496CD9158
:1017D000DC9115972097C1F156018501BFEFAB1A37
:1017E000BB0AF8018081992787FD909571D6892BD6
:1017F000A1F72197CC0DDD1D8881992787FD909554
:1018000067D6892B89F4AE014F5F5F4F401B510BA8
:10181000D70115965C934E931497C016D10648F4E1
:10182000B801C6015DD605C0C017D10760F3219786
:10183000E3CFD701ED91FC91119714968D919C9176
:101840001597E80FF91F1082DF91CF911F910F912B
:10185000FF90EF90DF90CF90BF90AF900895FC0184
:1018600080819181009709F00DC660E070E0CB01A6
:1018700008950895A8D0FDDF82DAC2E1D7E0FBD851
:101880002097E9F3CFDAFBCFBDC31F920F920FB6BB
:101890000F9211242F933F938F939F93AF93BF93F6
:1018A0008091550690915606A0915706B091580622
:1018B0003091540623E0230F2D3720F40196A11D0B
:1018C000B11D05C026E8230F0296A11DB11D20936E
:1018D00054068093550690935606A0935706B093EE
:1018E00058068091590690915A06A0915B06B091D6
:1018F0005C060196A11DB11D8093590690935A066E
:10190000A0935B06B0935C06BF91AF919F918F91BE
:101910003F912F910F900FBE0F901F9018952FB7EA
:10192000F8946091550670915606809157069091F3
:1019300058062FBF08953FB7F894809159069091AB
:101940005A06A0915B06B0915C0626B5A89B05C01F
:101950002F3F19F00196A11DB11D3FBF6627782FBB
:10196000892F9A2F620F711D811D911D42E0660F14
:10197000771F881F991F4A95D1F70895CF92DF925C
:10198000EF92FF92CF93DF936B017C01D4DFEB01E9
:10199000C114D104E104F10479F050D0CCDF6C1B08
:1019A0007D0B683E7340A0F381E0C81AD108E108BE
:1019B000F108C851DC4FECCFDF91CF91FF90EF9051
:1019C000DF90CF900895789484B5826084BD84B50B
:1019D000816084BD85B5826085BD85B5816085BD2A
:1019E000EEE6F0E0808181608083E1E8F0E0108243
:1019F000808182608083808181608083E0E8F0E084
:101A0000808181608083E1EBF0E08081846080836D
:101A1000E0EBF0E0808181608083EAE7F0E08081A4
:101A20008460808380818260808380818160808304
:101A30008081806880831092C100089508950F937B
:101A40001F93CF93DF93EC01798368838B01000FA1
:101A5000111F060F171F1B830A832C834D8350E031
:101A6000FA01E057FF4FE491F0E0EE0FFF1FEC5555
:101A7000FF4F859194919E878D87FA01E458FF4F1F
:101A800044914F87C801BED298878F83009741F059
:101A9000A80160E070E0DF91CF911F910F9129C5FF
:101AA000DF91CF911F910F910895CF93DF93EC01B8
:101AB00061E08D81B5D160E08D81DF91CF91E9C189
:101AC000CF92DF92EF92FF920F931F93CF93DF930A
:101AD000CDB7DEB729970FB6F894DEBF0FBECDBFE6
:101AE0008C01DC0117968D919C911897892B09F434
:101AF00099C021DFF801C184D284E384F4846C1995
:101B00007D098E099F09623371058105910588F36E
:101B1000F894828193819A838983A781B0857D011E
:101B2000EFEFEE1AFE0A8C918987D80114969C91EA
:101B300014971D960D90BC91A02DF801878591FFFB
:101B40002EC09C91982B98879C91809589238F8398
:101B50008F818E8388E08D8358856F8149853D8193
:101B60002E8189819A81F7015C9347FD252F3A9553
:101B70002C93262F39F0441F00C000006C93000006
:101B800000C0F2CF38E041916C930000019761F7FB
:101B9000F801B687A58749873D832E8338C09C917D
:101BA000982B98879C91809589238F838F818C8334
:101BB00088E08B8358856F8149853B812C818981A1
:101BC0009A81F7015C9347FD252F00C000C02C933C
:101BD00000C000C000C000C000C06C930000262FF1
:101BE0003A9541F0441F000000C000C000C000C092
:101BF00000C0E8CF38E0419100C06C9300C001976D
:101C000009F7F801B687A58749873B832C839A8318
:101C10008983789490DED80119966D937D938D9386
:101C20009C931C9729960FB6F894DEBF0FBECDBFCC
:101C3000DF91CF911F910F91FF90EF90DF90CF90A8
:101C400008950F931F93DC018D919C911197681754
:101C5000790740F516968C911697882361F0489F76
:101C6000A0011124452F289F90011124232F089FA4
:101C700080011124012FCB01880F991F860F971F18
:101C80001796ED91FC911897E80FF91F14968C9117
:101C9000DF01129680FF03C02083418302C040838E
:101CA00021830C931F910F910895CF92DF92EF92B1
:101CB000FF920F931F93CF93DF93FC01808191815B
:101CC0006817790778F5CA01AA27BB27182FC32EF2
:101CD000D42EE52EFF24DC2D022FC681CC2361F00B
:101CE0008C9FC0011124192FCC9E60011124DD2D81
:101CF0002C9F90011124032FCB01880F991F860F71
:101D0000971FA781B085A80FB91F8481FD01329666
:101D100080FF04C0DC9311961C9303C01C931196A2
:101D2000DC930083DF91CF911F910F91FF90EF9093
:101D3000DF90CF900895962F50E060E070E0592B2F
:101D4000682BCB01BA010895FC018081918108952F
:101D5000FF920F931F93CF93DF93EC01FF24F39433
:101D6000F60E2E81F21669F10F8118852150A9F027
:101D70006F3F51F430E040E050E06FEF7FEF80E0E4
:101D800090E005D1B9010BC08F2D90E0982F8827E6
:101D90000197622F70E0B2D002C060E070E0F801FD
:101DA0008A819B81AF01401B510B4817590740F4B2
:101DB0004081469FC001479F900D11249193F0CF21
:101DC000FE82DF91CF911F910F91FF900895833094
:101DD00081F028F4813099F08230A1F008958730A5
:101DE000A9F08830B9F08430D1F4809180008F7DE3
:101DF00003C0809180008F7780938000089584B520
:101E00008F7702C084B58F7D84BD08958091B00026
:101E10008F7703C08091B0008F7D8093B0000895CC
:101E2000CF93DF9390E0FC01E458FF4F2491FC0135
:101E3000E057FF4F8491882349F190E0880F991F64
:101E4000FC01E255FF4FA591B4918C559F4FFC01C9
:101E5000C591D4919FB7611108C0F8948C912095D9
:101E600082238C93888182230AC0623051F4F894D3
:101E70008C91322F309583238C938881822B888399
:101E800004C0F8948C91822B8C939FBFDF91CF91EB
:101E900008950F931F93CF93DF931F92CDB7DEB7B3
:101EA000282F30E0F901E859FF4F8491F901E458F7
:101EB000FF4F1491F901E057FF4F04910023C1F047
:101EC000882319F0698383DF6981E02FF0E0EE0F4A
:101ED000FF1FEC55FF4FA591B4919FB7F8948C91DB
:101EE000611103C01095812301C0812B8C939FBF8A
:101EF0000F90DF91CF911F910F910895AA1BBB1BEB
:101F000051E107C0AA1FBB1FA617B70710F0A61BF9
:101F1000B70B881F991F5A95A9F780959095BC011A
:101F2000CD01089597FB072E16F4009406D077FD97
:101F300008D0E4DF07FC05D03EF4909581959F4FD3
:101F40000895709561957F4F0895A1E21A2EAA1BFE
:101F5000BB1BFD010DC0AA1FBB1FEE1FFF1FA21759
:101F6000B307E407F50720F0A21BB30BE40BF50B56
:101F7000661F771F881F991F1A9469F760957095DF
:101F8000809590959B01AC01BD01CF010895052E70
:101F900097FB16F400940FD057FD05D0D6DF07FC51
:101FA00002D046F408C050954095309521953F4F9A
:101FB0004F4F5F4F089590958095709561957F4F35
:101FC0008F4F9F4F08950FD0A59F900DB49F900DF8
:101FD000A49F800D911D11240895EE0FFF1F059001
:101FE000F491E02D0994A29FB001B39FC001A39F7B
:101FF000700D811D1124911DB29F700D811D112442
:10200000911D0895CF93DF938230910510F482E003
:1020100090E0E0915F06F091600620E030E0A0E003
:10202000B0E0309739F14081518148175907B8F035
:102030004817590771F482819381109729F01396FC
:102040009C938E9312972CC09093600680935F06AA
:1020500027C02115310531F04217530718F0A901A7
:10206000DB0101C0EF019A01BD01DF010280F381B4
:10207000E02DD7CF21153105F9F0281B390B24307D
:10208000310580F48A819B816115710521F0FB0186
:102090009383828304C09093600680935F06FE0161
:1020A000329644C0FE01E20FF31F819391932250B8
:1020B0003109398328833AC020915D0630915E064C
:1020C000232B41F4209102013091030130935E06ED
:1020D00020935D0620910001309101012115310509
:1020E00041F42DB73EB74091040150910501241BE6
:1020F000350BE0915D06F0915E06E217F307A0F460
:102100002E1B3F0B2817390778F0AC014E5F5F4F4D
:102110002417350748F04E0F5F1F50935E0640931B
:102120005D068193919302C0E0E0F0E0CF01DF9182
:10213000CF910895CF93DF93009709F487C0FC01F6
:10214000329713821282C0915F06D0916006209769
:1021500081F420813181280F391F80915D06909193
:102160005E068217930779F5F0935E06E0935D06AD
:102170006DC0DE0120E030E0AE17BF0750F41296CC
:102180004D915C9113979D014115510509F1DA01BB
:10219000F3CFB383A28340815181840F951F8A17A7
:1021A0009B0771F48D919C911197840F951F029656
:1021B0009183808312968D919C9113979383828350
:1021C0002115310529F4F0936006E0935F063EC0C7
:1021D000D9011396FC93EE9312974D915D91A40F44
:1021E000B51FEA17FB0779F480819181840F951F51
:1021F0000296D90111969C938E93828193811396B6
:102200009C938E931297E0E0F0E08A819B81009787
:1022100019F0FE01EC01F9CFCE0102962881398137
:10222000820F931F20915D0630915E0628173907B3
:1022300069F4309729F41092600610925F0602C08C
:1022400013821282D0935E06C0935D06DF91CF9118
:1022500008958F929F92AF92BF92CF92DF92EF92AA
:10226000FF92CF93DF93EC01688179818A819B8112
:10227000611571058105910521F464E279ED8BE525
:1022800097E02DE133EF41E050E081DE49015A0152
:102290009B01AC01A7EAB1E496DE6B017C01ACEED8
:1022A000B4EFA501940158D1C60ED71EE81EF91E41
:1022B000F7FE06C081E0C81AD108E10880E8F80AF4
:1022C000C882D982EA82FB82C701B6019F77DF917B
:1022D000CF91FF90EF90DF90CF90BF90AF909F9005
:1022E0008F900895B6CF86E091E0B3CF609306015A
:1022F0007093070180930801909309010895A0E06D
:10230000B0E0E4E8F1E130C1EC01CB01209711F439
:1023100079DEB4C0FE01E60FF71F9E01225031099D
:10232000E217F30708F4A8C0D9010D911C91119789
:1023300006171707B0F00530110508F49BC0A80177
:10234000445051094617570708F494C00250110928
:10235000061B170B019311936D937C93CF01EADE5B
:1023600089C05B01A01AB10A4E01800E911EA09196
:102370005F06B0916006612C712C60E070E01097F0
:1023800009F449C0A815B905C9F5ED90FC9011975D
:10239000670142E0C40ED11CCA14DB0478F1470186
:1023A0008A189B08640142E0C40ED11C1296BC90AE
:1023B00012971396AC91B5E0CB16D10440F0B282DF
:1023C000A38391828082D9018D939C9309C00E5F73
:1023D0001F4F0E0D1F1DF90111830083EB2DFA2FE6
:1023E0006115710531F0DB011396FC93EE931297A2
:1023F00041C0F0936006E0935F063CC06D917C9114
:1024000011976616770608F43B01BD0112960D90F0
:10241000BC91A02DB4CF60915D0670915E066815E9
:102420007905E9F468167906D0F4409100015091DD
:1024300001014115510541F44DB75EB760910401AA
:1024400070910501461B570BE417F507A8F4F093AC
:102450005E06E0935D06F901918380830BC0D2DDB7
:102460007C01009749F0A801BE013AD0CE0162DE9E
:10247000C70104C0CE0102C080E090E0CDB7DEB756
:10248000EEE08EC01F93FC0199278827BC01E894D9
:1024900011911032E9F3193010F01E30C8F31B32DD
:1024A00049F01D3241F4689405C03CD0610F711DA4
:1024B000811D911D119110531A30B8F33EF490957F
:1024C0008095709561957F4F8F4F9F4F1F91089515
:1024D00091113DC0803219F089508550D0F7089590
:1024E000FB01DC0102C001900D9241505040D8F731
:1024F0000895DC0101C06D9341505040E0F708950C
:10250000FC018191861721F08823D9F79927089536
:102510003197CF010895FB01DC0101900D9200205D
:10252000E1F70895592F482F372F262F660F771F71
:10253000881F991F660F771F881F991F620F731FCF
:10254000841F951F660F771F881F991F089599276D
:1025500088270895B7FF37CD36DD821B930B08958A
:102560002F923F924F925F926F927F928F929F92A3
:10257000AF92BF92CF92DF92EF92FF920F931F9391
:10258000CF93DF93CDB7DEB7CA1BDB0B0FB6F89442
:10259000DEBF0FBECDBF09942A88398848885F8482
:1025A0006E847D848C849B84AA84B984C884DF80F3
:1025B000EE80FD800C811B81AA81B981CE0FD11DD7
:1025C0000FB6F894DEBF0FBECDBFED01089510E049
:1025D000CCEBD0E003C0FE0102DD2296CE3BD1075A
:0625E000D1F7F894FFCFD3
:1025E60000006106200001000000010101010A4906
:1025F6006E2073657269616C20636F6D0046696E4B
:1026060069736865642072656164537472696E6784
:10261600556E74696C00202F2000496E2072656328
:10262600656976696E6720636F6C6F7200416674C8
:1026360065722073657474696E6720636F6C6F7260
:10264600006D6173746572005365747570000000E7
:1026560000006107C808E506FE06F00640070D0AF9
:10266600006E616E00696E66006F7666002E000071
:00000001FF
