:100000005EC0000084C0000082C0000080C000000C
:100010007EC000007CC000007AC0000078C00000F4
:1000200076C0000074C0000072C0000070C0000004
:100030006EC000006CC000006AC0000068C0000014
:100040000C94D70B64C00000EDC700000C9444086A
:100050005EC000005CC000005AC0000058C0000034
:1000600056C0000054C0000000000008000201005B
:100070000003040700000000000000000102040863
:100080001020408001020408102001020408102002
:10009000040404040404040402020202020203032E
:1000A0000303030300000000250028002B000000CC
:1000B0000000240027002A00AB047208F104112478
:1000C0001FBECFEFD8E0DEBFCDBF11E0A0E0B1E0B2
:1000D000E6E7F4E202C005900D92A234B107D9F729
:1000E00025E0A2E4B1E001C01D92A332B207E1F71E
:1000F00010E0CCEBD0E004C02297FE010E94A20FDA
:10010000C83BD107C9F70E94CC0B0C942F1278CFB3
:100110000F931F93CF93DF93EC01798368835B8305
:100120004A8380E190E00E94D60B8C01688179813E
:1001300023E04A810E94B10C1D830C8348815981C0
:10014000CE0120E030E0019624173507A4F4FE012B
:10015000E20FF31F1682DC01A155BF4F1C9210A6BF
:10016000FC01E75BFF4F1082B2961082B2961082BC
:100170002F5F3F4FE8CFDF91CF911F910F910895EF
:10018000CF92DF92EF92FF920F931F93CF93DF9363
:100190007C01162FD42EC22EC0E0D0E0F701808162
:1001A0009181C817D9075CF40C2D2D2D412FBE016C
:1001B000F701848195810E94B30D2196EFCFDF91E5
:1001C000CF911F910F91FF90EF90DF90CF90089506
:1001D00080915E0190915F010E94F20C809130024B
:1001E000909131020E94F20C8091020390910303DE
:1001F0000C94F20CAF92BF92CF92DF92EF92FF92EB
:100200000F931F93CF93DF9300D000D000D0CDB7D2
:10021000DEB76C0102E414E08EE5A82E84E0B82E6F
:10022000E12CF12CE114F10431F56CE2C6010E94DD
:100230001F0BAC01662757FD6095762F409346044F
:100240005093470460934804709349049C0142E032
:1002500050E0B601CE0101960E94220BCE0101961C
:100260000E94C10B60935E0470935F0480936004EE
:100270009093610426C0F801408151814F5F5F4F28
:100280006CE2C6010E94040BAC01662757FD609525
:10029000762FF801448355836683778340815181AB
:1002A0004F5F5F4F9C01B601CE0101960E94220B69
:1002B000CE0101960E94C10BF50160837183828398
:1002C0009383CE0101960E94190AFFEFEF1AFF0AED
:1002D0000C5F1F4F84E0A80EB11CE5E0EE16F104A0
:1002E00009F0A0CFC0905E04D0905F04E09060045D
:1002F000F0906104560180916204909163049093A0
:10030000E1038093E00380916604909167049093E9
:10031000DF038093DE0380916A0490916B049093D5
:10032000DD038093DC0381E080937804C114D10461
:10033000B9F0F1E0CF1AD10888E0C816D10408F569
:1003400022ED2C9DC0012D9D900D11242091DC03E8
:100350004091DE036091E003865A9E4F11DF11C089
:100360000AE511E02091DC034091DE036091E00397
:10037000C80106DF0E521F4FE3E0003D1E0791F754
:10038000D8CFF9E0AF16B10471F481E0809377041F
:100390000E94210C6093D6037093D7038093D803F7
:1003A0009093D90316C08AE0A816B10491F4109274
:1003B00077040AE511E02091DC034091DE036091AF
:1003C000E003C801DDDE0E521F4FE3E0003D1E07D3
:1003D00091F781E08093760426960FB6F894DEBFFD
:1003E0000FBECDBFDF91CF911F910F91FF90EF9086
:1003F000DF90CF90BF90AF900895AF92BF92CF9211
:10040000DF92EF92FF920F931F93CF93DF93CDB7BD
:10041000DEB72C970FB6F894DEBF0FBECDBF6C01D0
:1004200002E414E09EE5A92E94E0B92EE12CF12C13
:10043000E114F10431F56CE2C6010E941F0BAC011E
:10044000662757FD6095762F4093460450934704E6
:1004500060934804709349049C0142E050E0B60167
:10046000CE0101960E94220BCE0101960E94C10B83
:1004700060935E0470935F048093600490936104C2
:1004800026C0F801408151814F5F5F4F6CE2C60189
:100490000E94040BAC01662757FD6095762FF8018A
:1004A0004483558366837783408151814F5F5F4FDB
:1004B0009C01B601CE0101960E94220BCE0101964D
:1004C0000E94C10BF5016083718382839383CE0107
:1004D0000196AFD7FFEFEF1AFF0A0C5F1F4F24E022
:1004E000A20EB11C36E0E316F10409F0A1CF209171
:1004F0005E0430915F048091620490916304A09146
:100500006404B09165044091660450916704609161
:1005100068047091690449835A836B837C8340919A
:100520006A0450916B0460916C0470916D044D836A
:100530005E836F83788740916E0450916F04609161
:1005400070047091710449875A876B877C8740914A
:100550007204509173045093DB034093DA0321300B
:100560003105D1F50197C1F58AE591E0A2E4B1E04A
:10057000FE0131966F012D913C91119712966D916C
:100580007C91139726173707CCF4F601F080E180B1
:100590001281AC01420F531FFA0110A78A01065BBA
:1005A0001F4FF801E0820E5D1F4FF801F0824257A5
:1005B0005F4FFA0110822F5F3F4FE4CF1896F4E0AF
:1005C000CF0ED11C21E0AA35B207A9F68E529F4F5B
:1005D00033E0803D930751F610920C012C960FB634
:1005E000F894DEBF0FBECDBFDF91CF911F910F9169
:1005F000FF90EF90DF90CF90BF90AF900895EF9273
:10060000FF920F931F93CF93DF9322ED289F8001DA
:10061000299F100D1124065A1E4FC0E0D0E078012A
:10062000F701848195810E94740E0197C817D9073C
:1006300094F4F801EC0FFD1FE257FF4F80812196E3
:10064000F801EC0FFD1FE257FF4F9081891305C0A1
:100650008111E6CF03C081E001C080E0DF91CF913E
:100660001F910F91FF90EF9008958F929F92AF92FC
:10067000BF92CF92DF92EF92FF920F93CF93DF93CF
:100680005C01EB014A016EE071E089E794E0B6D5C8
:10069000E12CF12C82ED8A9D60018B9DD00C112400
:1006A000C601865A9E4F6C01EC16FD066CF400E004
:1006B00020E040E0B701F601848195810E94B30DEE
:1006C000FFEFEF1AFF0AF0CF640182ED8A9D7001FF
:1006D0008B9DF00C1124C701865A9E4F7C01F701B7
:1006E000848195810E94740EC816D9066CF400E0CE
:1006F00020E040E0B601F701848195810E94B30DAE
:10070000FFEFCF1ADF0AEBCFC815D9055CF40FEF66
:100710002FEF4FEFBE01F701848195810E94B30D49
:100720002196F2CFDF91CF910F91FF90EF90DF9064
:10073000CF90BF90AF909F908F900895CF93DF930D
:10074000E901CC0FDD1FCC0FDD1FFE01EA5FFB4F7F
:1007500060837183828393830E94210CFE01EA5D92
:10076000FB4F6083718382839383DF91CF910895E0
:100770005F926F927F928F929F92AF92BF92CF9231
:10078000DF92EF92FF920F931F93CF93DF936C0151
:1007900082ED8C9D70018D9DF00C1124C701865A4D
:1007A0009E4F7C01C0E0D0E03C0155245394F301FE
:1007B000848195810E94740EC817D9070CF07FC000
:1007C000BE01F301848195810E94360EA82EB12CC2
:1007D000272F30E0062F10E040910A0150E047013A
:1007E0008C0E9D1EF401A0A5B0E0CD018A199B09D5
:1007F000181619061CF0C5018A1B9B0B48175907D0
:100800004CF4AA16BB061CF4A40EB51E04C0A41A10
:10081000B50A01C05D01F401E65BFF4F808190E005
:10082000BC01621B730B161617061CF0B901681B7E
:10083000790B461757074CF4281739071CF4240F77
:10084000351F04C0241B350B01C09C01F401E45981
:10085000FF4FE081F0E0BF01601B710B1616170619
:100860001CF0B8016E1B7F0B461757074CF40E1790
:100870001F071CF4040F151F04C0041B150B01C037
:100880008F01AA16BB0631F42817390719F40E1781
:100890001F07E9F04A2DBE01F301848195810E9472
:1008A000B30D6091DA037091DB03882777FD8095A3
:1008B000982F20E030E0A90141DF219678CFC601D2
:1008C0009EDE882349F081E080930C0105C0F4018D
:1008D000E257FF4F5082DECFDF91CF911F910F91F2
:1008E000FF90EF90DF90CF90BF90AF909F908F9050
:1008F0007F906F905F9008950F931F93CF93DF9336
:10090000EC019FD7AE01440F551F440F551FEA015C
:10091000CA5DDB4F088119812A813B81601B710B05
:10092000820B930BFA01EA5FFB4F00811181228158
:100930003381601771078207930738F082D7688385
:1009400079838A839B8381E001C080E0DF91CF912E
:100950001F910F91089563E371E080ED93E0D0D58E
:1009600042E050E062E270E08AE591E0D1DB43E0F2
:1009700050E062E270E08CE292E0CADB44E050E0DA
:1009800062E270E08EEF92E0C3DB109243011092BE
:1009900042018FE090E090934501809344011092D2
:1009A00046012FEF2093490190934B0180934A0118
:1009B00089E190E090934D0180934C0110924E019B
:1009C00020935101909353018093520182E290E071
:1009D0009093550180935401109256012093590130
:1009E000089580ED93E025C53F924F925F926F92FC
:1009F0007F928F929F92AF92BF92CF92DF92EF92AF
:100A0000FF920F931F93CF93DF9300D000D000D0BD
:100A1000CDB7DEB789E794E0C5D1181619060CF0FA
:100A200056C040910D0169E774E0CE010196DDD416
:100A3000BE016F5F7F4F80ED93E077D5CE010196C9
:100A4000F8D480ED93E041D664E580ED93E0F7D5EE
:100A5000892B39F464E780ED93E0F1D5019709F42F
:100A60000EC163E480ED93E0EAD5892B39F463E6A7
:100A700080ED93E0E4D5019709F40DC163E580EDC5
:100A800093E0DDD5892B19F563E780ED93E0D7D5A9
:100A90000197E9F402E411E0F801608171814AE014
:100AA00050E089E794E058D466E171E089E794E08A
:100AB000A5D3F801628173814AE050E089E794E0B0
:100AC00052D4085F1F4FF1E00A351F0729F78091C4
:100AD0007704882309F47EC0B4D60091D603109120
:100AE000D7032091D8033091D903601B710B820B7F
:100AF000930B6C3371058105910508F46BC00EE50D
:100B000011E044E1C42ED12CE12CF12C412C55E014
:100B1000552E612C712C95D6A70196010E94620F6B
:100B2000CA01B901A30192010E94620F362E812CE5
:100B3000912CA12CB12CF801808191810E94740E1E
:100B4000F801A816B90698F5808191810E94740E6B
:100B5000BC01C4010E944E0F630D653538F4862F29
:100B6000880F860F682F609540E012C06A3A40F403
:100B70006555862F880F860F482F60E0809508C046
:100B800086E5860F682F660F680F462F409580E038
:100B90000E942D0E9B01AC01B501F801808191816D
:100BA0000E94E70DFFEFAF1ABF0A9394C4CF808174
:100BB000918118D70E521F4FF3E0043D1F0709F033
:100BC000AACF3FD66093D6037093D7038093D80300
:100BD0009093D90380910A01882349F080910C01F8
:100BE000811105C080E090E087DE811160C081E066
:100BF00090E082DE8823D9F1E12CF12C00E010E0B6
:100C0000F701E65AFE4F848195810E94740E60912F
:100C1000E2037091E303AC014E515109460F571F97
:100C2000C80123DD0F5F1F4F82EDE80EF11C03307A
:100C3000110531F78091E2039091E3030A96823225
:100C400091052CF49093E3038093E20304C0109287
:100C5000E3031092E20321E030E040E050E068EE70
:100C600073E080E090E06ADD81E08093760480911B
:100C70007604882349F1ACDA1092760425C060ED41
:100C800073E0CE01019666D4CE010196B6DBCE01AB
:100C90000196CFD3E6CE60ED73E0CE0101965AD433
:100CA000CE010196A7DACE010196C3D3E7CE81E04B
:100CB0008093760480E090E05BDD81E090E058DD99
:100CC00082E090E055DD93CF26960FB6F894DEBF14
:100CD0000FBECDBFDF91CF911F910F91FF90EF908D
:100CE000DF90CF90BF90AF909F908F907F906F904C
:100CF0005F904F903F900895CF9368EE73E080E04F
:100D000090E0CED5C1E089E794E04CD018161906E2
:100D100084F06AE171E089E794E065D289E794E0C4
:100D20006AD2C0930B016CE271E080E090E0B8D52C
:100D3000EACFCF910895CF93DF9326E040E051EEC4
:100D400060E070E089E794E00DD1CEE5D1E08881E4
:100D5000998148D6888199813AD66FEF88819981A7
:100D6000C7D7CE52DF4F83E0C43DD80781F7E4EE0A
:100D7000F3E0119284E0E630F807D9F7BDDF20E018
:100D800030E0A90161E070E080E090E0D7DC21E094
:100D900030E040E050E061E070E080E090E0DF9122
:100DA000CF91CCCCFC01818D228D90E0805C9F4F57
:100DB000821B91098F7399270895FC01918D828D73
:100DC000981731F0828DE80FF11D858D90E0089520
:100DD0008FEF9FEF0895FC01918D828D981761F040
:100DE000828DDF01A80FB11D5D968C91928D9F5F62
:100DF0009F73928F90E008958FEF9FEF089589E69B
:100E000098E0892B41F080E090E0892B21F061D1BE
:100E100081110C9400000895FC01848DDF01A80F5E
:100E2000B11DA35ABF4F2C91848D90E001968F7312
:100E30009927848FA689B7892C93A089B1898C9131
:100E400080648C93938D848D981306C00288F389F7
:100E5000E02D80818F7D80830895CF93DF93EC0117
:100E6000888D8823C1F0EA89FB89808185FD05C0D2
:100E7000A889B9898C9186FD0EC00FB607FCF5CF05
:100E8000808185FFF2CFA889B9898C9185FFEDCF4C
:100E9000CE01C2DFE8CFDF91CF910895CF92DF92EC
:100EA000FF920F931F93CF93DF931F92CDB7DEB7BF
:100EB0006C0181E0D60158968C9358975B969C9173
:100EC0005B975C968C915C97981307C05096ED9158
:100ED000FC915197808185FD2DC0F601038D10E0B6
:100EE0000F5F1F4F0F731127F02EF601848DF8123C
:100EF00010C00FB607FCF9CFD6015096ED91FC91CA
:100F00005197808185FFF1CFC601698385DF6981B3
:100F1000ECCF838DE80FF11DE35AFF4F6083D601BC
:100F20005B960C935B975296ED91FC915397808161
:100F300080620CC0D6015696ED91FC915797608364
:100F40005096ED91FC91519780818064808381E07F
:100F500090E00F90DF91CF911F910F91FF90DF9064
:100F6000CF900895BF92CF92DF92EF92FF92CF93EE
:100F7000DF93EC016A017B01B22EE889F98982E0F6
:100F80008083411581EE58076105710599F060E095
:100F900079E08DE390E0A701960194D721503109C3
:100FA000410951095695479537952795211580E1B7
:100FB000380790F0E889F989108260E874E88EE1DA
:100FC00090E0A70196017ED72150310941095109CE
:100FD0005695479537952795EC85FD853083EE85A9
:100FE000FF852083188EEC89FD89B082EA89FB8910
:100FF000808180618083EA89FB8980818860808329
:10100000EA89FB89808180688083EA89FB89808105
:101010008F7D8083DF91CF91FF90EF90DF90CF9015
:10102000BF9008951F920F920FB60F9211242F9325
:101030008F939F93EF93FF93E0918904F0918A043B
:101040008081E0918F04F091900482FD12C0908124
:10105000809192048F5F8F7320919304821751F0D7
:10106000E0919204F0E0E758FB4F958F8093920453
:1010700001C08081FF91EF919F918F912F910F90EF
:101080000FBE0F901F9018951F920F920FB60F92E0
:1010900011242F933F934F935F936F937F938F937D
:1010A0009F93AF93BF93EF93FF9389E794E0B4DEF0
:1010B000FF91EF91BF91AF919F918F917F916F9130
:1010C0005F914F913F912F910F900FBE0F901F9006
:1010D000189589E794E066DE21E0892B09F420E089
:1010E000822F089510927C0410927B0488EE93E086
:1010F000A0E0B0E080937D0490937E04A0937F04F1
:10110000B093800485E291E090937A04809379040F
:1011100085EC90E0909386048093850484EC90E0C5
:10112000909388048093870480EC90E090938A04E5
:101130008093890481EC90E090938C0480938B04DD
:1011400082EC90E090938E0480938D0486EC90E086
:101150009093900480938F041092920410929304C1
:1011600010929404109295040895CF92DF92EF921A
:10117000FF920F931F93CF93DF937C016A01EB01E2
:1011800000E010E00C151D0571F06991D701ED919B
:10119000FC910190F081E02DC7010995892B19F090
:1011A0000F5F1F4FEFCFC801DF91CF911F910F91BC
:1011B000FF90EF90DF90CF9008956115710581F059
:1011C000DB010D900020E9F7AD0141505109461BAC
:1011D000570BDC01ED91FC910280F381E02D099425
:1011E00080E090E00895E9CFDC01ED91FC91019061
:1011F000F081E02D099461E371E0DFCF0F931F933D
:10120000CF93DF93EC01D9DF8C01CE01F4DF800FA7
:10121000911FDF91CF911F910F9108958F929F920F
:10122000AF92BF92CF92DF92EF92FF920F931F93F4
:10123000CF93DF93CDB7DEB7A1970FB6F894DEBF9B
:101240000FBECDBF7C01C42EE52FCB01D22E19A23B
:1012500021E02D1510F02AE0D22E8E010F5D1F4FD8
:101260008D2C912CA12CB12C6C2D7E2FA5019401DD
:1012700029D68C2DD29E80191124015011098A3053
:1012800014F4805D01C0895CF8018083211531056B
:101290004105510521F0C22EE32FCA01E5CFB80167
:1012A000C7018BDFA1960FB6F894DEBF0FBECDBF8E
:1012B000DF91CF911F910F91FF90EF90DF90CF9032
:1012C000BF90AF909F908F900895CF92DF92EF9252
:1012D000FF920F931F93CF93DF93EC016A017B0181
:1012E0002115310579F4E881F9810190F081E02D33
:1012F000642FDF91CF911F910F91FF90EF90DF90BE
:10130000CF9009942A303105D9F477FF18C06DE2E7
:101310006BDF8C0144275527BA014C195D096E0912
:101320007F092AE0CE017ADF800F911FDF91CF91F4
:101330001F910F91FF90EF90DF90CF9008952AE0DA
:10134000B701A601CE01DF91CF911F910F91FF90C0
:10135000EF90DF90CF9062CF9A01AB01662757FDE7
:101360006095762FB2CF0F931F93CF93DF93EC014D
:101370009A01AB01662757FD6095762FA6DF8C0199
:10138000CE0139DF800F911FDF91CF911F910F9117
:1013900008950F931F93CF93DF93EC0152D2688788
:1013A00079878A879B87E881F9810680F781E02D1C
:1013B000CE01099597FF14C044D2088519852A8566
:1013C0003B85601B710B820B930B0C811D812E8161
:1013D0003F81601771078207930728F38FEF9FEF14
:1013E000DF91CF911F910F910895EF92FF920F938C
:1013F0001F93CF93DF93EC018B01E42E63E371E045
:101400007FD0C801C6DFFF24E7FCF09497FD09C038
:101410008E159F0531F0682FCE01E4D0C801B9DFE9
:10142000F5CFCE01DF91CF911F910F91FF90EF90FB
:101430000895FC018081918121C6CF93DF93EC0157
:1014400088819981009709F019D6198218821D8226
:101450001C821B821A82DF91CF9108950F931F93F4
:10146000CF93DF93EC018B016F5F7F4F8881998170
:1014700094D6009731F0998388831B830A8381E097
:1014800001C080E0DF91CF911F910F910895CF931C
:10149000DF93EC0188819981892B29F08A819B81D6
:1014A0008617970758F4CE01D9DF882341F08C8145
:1014B0009D81892B19F4E881F981108281E0DF9107
:1014C000CF910895EF92FF920F931F93CF93DF93E5
:1014D000EC017B018A01BA01DADF811103C0CE0180
:1014E000ACDF06C01D830C83B7018881998161D769
:1014F000CE01DF91CF911F910F91FF90EF90089552
:10150000FC011182108213821282158214826115ED
:10151000710551F0FB0101900020E9F7AF01415046
:101520005109461B570BCECF0895CF93DF93EC01A3
:10153000FB018617970751F0608171816115710574
:1015400021F044815581BEDF01C077DFCE01DF91FC
:10155000CF910895FC0111821082138212821582AC
:101560001482E3CFCF93DF93EC016115710559F03D
:10157000FB0101900020E9F7AF0141505109461BE2
:10158000570BA0DF01C059DFCE01DF91CF91089545
:10159000EF92FF920F931F93CF93DF93EC017B01A8
:1015A0000C811D816115710511F480E014C0411595
:1015B000510581F0040F151FB80169DF8823A9F3D5
:1015C000288139818C819D81B701820F931FF1D6CB
:1015D0001D830C8381E0DF91CF911F910F91FF90CC
:1015E000EF900895CF93DF9300D0CDB7DEB7698336
:1015F0001A8241E050E0BE016F5F7F4FC9DF0F905C
:101600000F90DF91CF910895CF93DF93FC018481F8
:1016100095814817590770F4C081D181772767FDFC
:101620007095CE01840F951FB9D6009719F08C1BC9
:101630009D0B02C08FEF9FEFDF91CF91089540E0A7
:1016400050E0E2CFBF92CF92DF92EF92FF920F93E2
:101650001F93CF93DF936C017B01EA01890124176B
:10166000350720F48D2FE901042F182F63E371E073
:10167000C60146DFD70114968D919C911597C81726
:10168000D907C0F48017910708F48C01D701ED91B8
:10169000FC911197E00FF11FB08010826D917C9149
:1016A0006C0F7D1FC6015EDFD701ED91FC91E00F4D
:1016B000F11FB082C601DF91CF911F910F91FF9072
:1016C000EF90DF90CF90BF900895AF92BF92CF92EE
:1016D000DF92EF92FF920F931F93CF93DF937C01E2
:1016E000DC01CD90DC901197C114D10409F43EC007
:1016F0001496CD91DC9115972097C1F15601850183
:10170000BFEFAB1ABB0AF8018081992787FD90953E
:101710002DD6892BA1F72197CC0DDD1D8881992726
:1017200087FD909523D6892B89F4AE014F5F5F4FDB
:10173000401B510BD70115965C934E931497C0161E
:10174000D10648F4B801C60119D605C0C017D107A3
:1017500060F32197E3CFD701ED91FC911197149697
:101760008D919C911597E80FF91F1082DF91CF9111
:101770001F910F91FF90EF90DF90CF90BF90AF90AF
:101780000895FC0180819181009709F0C9C560E04E
:1017900070E0CB0108950895A8D0FDDFCCDACFEF3B
:1017A000D6E022D92097E9F32ADBFBCFCFC31F92E3
:1017B0000F920FB60F9211242F933F938F939F9305
:1017C000AF93BF938091170590911805A0911905CB
:1017D000B0911A053091160523E0230F2D3720F420
:1017E0000196A11DB11D05C026E8230F0296A11D7B
:1017F000B11D209316058093170590931805A093AB
:101800001905B0931A0580911B0590911C05A091B4
:101810001D05B0911E050196A11DB11D80931B05EC
:1018200090931C05A0931D05B0931E05BF91AF9129
:101830009F918F913F912F910F900FBE0F901F900E
:1018400018952FB7F894609117057091180580913D
:10185000190590911A052FBF08953FB7F89480910C
:101860001B0590911C05A0911D05B0911E0526B584
:10187000A89B05C02F3F19F00196A11DB11D3FBFC8
:101880006627782F892F9A2F620F711D811D911D58
:1018900042E0660F771F881F991F4A95D1F7089578
:1018A000CF92DF92EF92FF92CF93DF936B017C0197
:1018B000D4DFEB01C114D104E104F10479F050D07C
:1018C000CCDF6C1B7D0B683E7340A0F381E0C81A2F
:1018D000D108E108F108C851DC4FECCFDF91CF917E
:1018E000FF90EF90DF90CF900895789484B5826058
:1018F00084BD84B5816084BD85B5826085BD85B5B4
:10190000816085BDEEE6F0E0808181608083E1E862
:10191000F0E010828081826080838081816080839A
:10192000E0E8F0E0808181608083E1EBF0E080819D
:1019300084608083E0EBF0E0808181608083EAE76F
:10194000F0E08081846080838081826080838081F8
:10195000816080838081806880831092C1000895B7
:1019600008950F931F93CF93DF93EC0179836883DE
:101970008B01000F111F060F171F1B830A832C8377
:101980004D8350E0FA01E057FF4FE491F0E0EE0F95
:10199000FF1FEC55FF4F859194919E878D87FA012B
:1019A000E458FF4F44914F87C801D0D298878F8366
:1019B000009741F0A80160E070E0DF91CF911F91A6
:1019C0000F91E5C4DF91CF911F910F910895CF93AF
:1019D000DF93EC0161E08D81F3D160E08D81DF91D7
:1019E000CF9127C2CF92DF92EF92FF920F931F9376
:1019F000CF93DF93CDB7DEB729970FB6F894DEBF4C
:101A00000FBECDBF8C01DC0117968D919C9118976C
:101A1000892B09F499C021DFF801C184D284E384C1
:101A2000F4846C197D098E099F0962337105810563
:101A3000910588F3F894828193819A838983A781A1
:101A4000B0857D01EFEFEE1AFE0A8C918987D801EF
:101A500014969C9114971D960D90BC91A02DF801A1
:101A6000878591FF2EC09C91982B98879C9180959B
:101A700089238F838F818E8388E08D8358856F8142
:101A800049853D812E8189819A81F7015C9347FDCB
:101A9000252F3A952C93262F39F0441F00C00000C3
:101AA0006C93000000C0F2CF38E041916C930000CD
:101AB000019761F7F801B687A58749873D832E8393
:101AC00038C09C91982B98879C91809589238F830F
:101AD0008F818C8388E08B8358856F8149853B811A
:101AE0002C8189819A81F7015C9347FD252F00C0E5
:101AF00000C02C9300C000C000C000C000C06C93A8
:101B00000000262F3A9541F0441F000000C000C09D
:101B100000C000C000C0E8CF38E0419100C06C9325
:101B200000C0019709F7F801B687A58749873B836D
:101B30002C839A838983789490DED80119966D93CB
:101B40007D938D939C931C9729960FB6F894DEBFD6
:101B50000FBECDBFDF91CF911F910F91FF90EF90FE
:101B6000DF90CF9008950F931F93DC018D919C918E
:101B700011976817790740F516968C911697882368
:101B800061F0489FA0011124452F289F9001112446
:101B9000232F089F80011124012FCB01880F991F4B
:101BA000860F971F1796ED91FC911897E80FF91F74
:101BB00014968C91DF01129680FF03C0208341832D
:101BC00002C0408321830C931F910F910895CF92FF
:101BD000DF92EF92FF920F931F93CF93DF93FC015D
:101BE000808191816817790778F5CA01AA27BB27F8
:101BF000182FC32ED42EE52EFF24DC2D022FC681F4
:101C0000CC2361F08C9FC0011124192FCC9E600160
:101C10001124DD2D2C9F90011124032FCB01880F5F
:101C2000991F860F971FA781B085A80FB91F8481C0
:101C3000FD01329680FF04C0DC9311961C9303C013
:101C40001C931196DC930083DF91CF911F910F912C
:101C5000FF90EF90DF90CF900895962F50E060E0D6
:101C600070E0592B682BCB01BA0108950F931F9395
:101C7000DC018D919C9111976817790778F5CB015C
:101C8000880F991F860F971F1796ED91FC91189753
:101C9000E80FF91F428150E060E070E014968C91EB
:101CA000218180FF0AC0808190E0A0E0B0E0BA2FDF
:101CB000A92F982F8827A22B08C0808190E0A0E050
:101CC000B0E0DC0199278827922B8C019D01042B21
:101CD000152B262B372BC901B80103C060E070E03B
:101CE000CB011F910F910895FC018081918108958E
:101CF000FF920F931F93CF93DF93EC01FF24F39494
:101D0000F60E2E81F21669F10F8118852150A9F087
:101D10006F3F51F430E040E050E06FEF7FEF80E044
:101D200090E0F2D0B9010BC08F2D90E0982F88275A
:101D30000197622F70E0B2D002C060E070E0F8015D
:101D40008A819B81AF01401B510B4817590740F412
:101D50004081469FC001479F900D11249193F0CF81
:101D6000FE82DF91CF911F910F91FF9008958330F4
:101D700081F028F4813099F08230A1F00895873005
:101D8000A9F08830B9F08430D1F4809180008F7D43
:101D900003C0809180008F7780938000089584B580
:101DA0008F7702C084B58F7D84BD08958091B00087
:101DB0008F7703C08091B0008F7D8093B00008952D
:101DC000CF93DF9390E0FC01E458FF4F2491FC0196
:101DD000E057FF4F8491882349F190E0880F991FC5
:101DE000FC01E255FF4FA591B4918C559F4FFC012A
:101DF000C591D4919FB7611108C0F8948C9120953A
:101E000082238C93888182230AC0623051F4F89433
:101E10008C91322F309583238C938881822B8883F9
:101E200004C0F8948C91822B8C939FBFDF91CF914B
:101E300008950F931F93CF93DF931F92CDB7DEB713
:101E4000282F30E0F901E859FF4F8491F901E45857
:101E5000FF4F1491F901E057FF4F04910023C1F0A7
:101E6000882319F0698383DF6981E02FF0E0EE0FAA
:101E7000FF1FEC55FF4FA591B4919FB7F8948C913B
:101E8000611103C01095812301C0812B8C939FBFEA
:101E90000F90DF91CF911F910F910895AA1BBB1B4B
:101EA00051E107C0AA1FBB1FA617B70710F0A61B5A
:101EB000B70B881F991F5A95A9F780959095BC017B
:101EC000CD010895A1E21A2EAA1BBB1BFD010DC076
:101ED000AA1FBB1FEE1FFF1FA217B307E407F507DA
:101EE00020F0A21BB30BE40BF50B661F771F881FB6
:101EF000991F1A9469F760957095809590959B014C
:101F0000AC01BD01CF010895052E97FB16F4009496
:101F10000FD057FD05D0D6DF07FC02D046F408C02D
:101F200050954095309521953F4F4F4F5F4F089505
:101F300090958095709561957F4F8F4F9F4F089535
:101F4000EE0FFF1F0590F491E02D0994CF93DF93DE
:101F50008230910510F482E090E0E0912105F0914B
:101F6000220520E030E0A0E0B0E0309739F1408178
:101F7000518148175907B8F04817590771F4828101
:101F80009381109729F013969C938E9312972CC0EF
:101F9000909322058093210527C02115310531F04A
:101FA0004217530718F0A901DB0101C0EF019A01A4
:101FB000BD01DF010280F381E02DD7CF211531056E
:101FC000F9F0281B390B2430310580F48A819B817C
:101FD0006115710521F0FB019383828304C0909306
:101FE000220580932105FE01329644C0FE01E20FD6
:101FF000F31F8193919322503109398328833AC08A
:1020000020911F0530912005232B41F420910201DE
:10201000309103013093200520931F05209100018A
:10202000309101012115310541F42DB73EB74091A2
:10203000040150910501241B350BE0911F05F0911F
:102040002005E217F307A0F42E1B3F0B28173907D2
:1020500078F0AC014E5F5F4F2417350748F04E0F04
:102060005F1F5093200540931F058193919302C0F9
:10207000E0E0F0E0CF01DF91CF910895CF93DF93BF
:10208000009709F487C0FC01329713821282C09135
:102090002105D0912205209781F420813181280FDC
:1020A000391F80911F05909120058217930779F5BC
:1020B000F0932005E0931F056DC0DE0120E030E0C5
:1020C000AE17BF0750F412964D915C9113979D0186
:1020D0004115510509F1DA01F3CFB383A2834081A1
:1020E0005181840F951F8A179B0771F48D919C91E4
:1020F0001197840F951F02969183808312968D917C
:102100009C911397938382832115310529F4F093D1
:102110002205E09321053EC0D9011396FC93EE936E
:1021200012974D915D91A40FB51FEA17FB0779F443
:1021300080819181840F951F0296D90111969C93FD
:102140008E938281938113969C938E931297E0E0F5
:10215000F0E08A819B81009719F0FE01EC01F9CF34
:10216000CE01029628813981820F931F20911F058D
:10217000309120052817390769F4309729F4109217
:1021800022051092210502C013821282D0932005ED
:10219000C0931F05DF91CF910895A0E0B0E0E2ED7C
:1021A000F0E12AC1EC01CB01209711F4CFDEB4C0DD
:1021B000FE01E60FF71F9E0122503109E217F307D7
:1021C00008F4A8C0D9010D911C91119706171707A3
:1021D000B0F00530110508F49BC0A8014450510926
:1021E0004617570708F494C002501109061B170B35
:1021F000019311936D937C93CF0140DF89C05B0104
:10220000A01AB10A4E01800E911EA0912105B09135
:102210002205612C712C60E070E0109709F449C030
:10222000A815B905C9F5ED90FC901197670142E03A
:10223000C40ED11CCA14DB0478F147018A189B082C
:10224000640142E0C40ED11C1296BC901297139602
:10225000AC91B5E0CB16D10440F0B282A383918259
:102260008082D9018D939C9309C00E5F1F4F0E0D84
:102270001F1DF90111830083EB2DFA2F61157105E4
:1022800031F0DB011396FC93EE93129741C0F0936B
:102290002205E09321053CC06D917C911197661653
:1022A000770608F43B01BD0112960D90BC91A02D5C
:1022B000B4CF60911F057091200568157905E9F488
:1022C00068167906D0F44091000150910101411542
:1022D000510541F44DB75EB760910401709105015D
:1022E000461B570BE417F507A8F4F0932005E0937D
:1022F0001F05F901918380830BC028DE7C010097C4
:1023000049F0A801BE013AD0CE01B8DEC70104C031
:10231000CE0102C080E090E0CDB7DEB7EEE088C02D
:102320001F93FC0199278827BC01E8941191103272
:10233000E9F3193010F01E30C8F31B3249F01D329A
:1023400041F4689405C03CD0610F711D811D911D41
:10235000119110531A30B8F33EF490958095709512
:1023600061957F4F8F4F9F4F1F91089591113DC0F1
:10237000803219F089508550D0F70895FB01DC01B7
:1023800002C001900D9241505040D8F70895DC01F1
:1023900001C06D9341505040E0F70895FC018191D8
:1023A000861721F08823D9F7992708953197CF010F
:1023B0000895FB01DC0101900D920020E1F70895E2
:1023C000592F482F372F262F660F771F881F991FE9
:1023D000660F771F881F991F620F731F841F951F39
:1023E000660F771F881F991F0895992788270895DA
:1023F0002F923F924F925F926F927F928F929F9215
:10240000AF92BF92CF92DF92EF92FF920F931F9302
:10241000CF93DF93CDB7DEB7CA1BDB0B0FB6F894B3
:10242000DEBF0FBECDBF09942A88398848885F84F3
:102430006E847D848C849B84AA84B984C884DF8064
:10244000EE80FD800C811B81AA81B981CE0FD11D48
:102450000FB6F894DEBF0FBECDBFED01089510E0BA
:10246000CCEBD0E003C0FE016DDD2296CE3BD10760
:06247000D1F7F894FFCF44
:10247600000023052000010000000101010A496E49
:1024860020766F696400202F20006D617374657279
:1024960000000000004E07B508D206EB06DD062D4B
:1024A600070D0A006E616E00696E66006F76660043
:0224B6002E00F6
:00000001FF
